{
  "contractName": "RollItVetMultiPlayerGame",
  "abi": [
    {
      "inputs": [],
      "stateMutability": "payable",
      "type": "constructor",
      "payable": true
    },
    {
      "anonymous": false,
      "inputs": [
        {
          "indexed": true,
          "internalType": "uint256",
          "name": "gameId",
          "type": "uint256"
        },
        {
          "indexed": true,
          "internalType": "enum RollItVetMultiPlayerGame.GameStatus",
          "name": "status",
          "type": "uint8"
        },
        {
          "indexed": true,
          "internalType": "uint256",
          "name": "dateTime",
          "type": "uint256"
        }
      ],
      "name": "GameAwaitingLotteryEvent",
      "type": "event"
    },
    {
      "anonymous": false,
      "inputs": [
        {
          "indexed": true,
          "internalType": "uint256",
          "name": "gameId",
          "type": "uint256"
        },
        {
          "indexed": true,
          "internalType": "address",
          "name": "player",
          "type": "address"
        },
        {
          "indexed": true,
          "internalType": "uint256",
          "name": "dateTime",
          "type": "uint256"
        },
        {
          "indexed": false,
          "internalType": "uint256",
          "name": "winningPayout",
          "type": "uint256"
        },
        {
          "indexed": false,
          "internalType": "bytes32",
          "name": "transactionId",
          "type": "bytes32"
        },
        {
          "indexed": false,
          "internalType": "uint256",
          "name": "auditRecordDrawId",
          "type": "uint256"
        }
      ],
      "name": "GameCompletedEvent",
      "type": "event"
    },
    {
      "anonymous": false,
      "inputs": [
        {
          "indexed": true,
          "internalType": "uint256",
          "name": "gameId",
          "type": "uint256"
        },
        {
          "indexed": true,
          "internalType": "address",
          "name": "player",
          "type": "address"
        },
        {
          "indexed": true,
          "internalType": "uint256",
          "name": "dateTime",
          "type": "uint256"
        }
      ],
      "name": "GameCreatedEvent",
      "type": "event"
    },
    {
      "anonymous": false,
      "inputs": [
        {
          "indexed": true,
          "internalType": "uint256",
          "name": "gameId",
          "type": "uint256"
        },
        {
          "indexed": true,
          "internalType": "address",
          "name": "player",
          "type": "address"
        },
        {
          "indexed": true,
          "internalType": "uint256",
          "name": "dateTime",
          "type": "uint256"
        }
      ],
      "name": "PlayerJoinedGameEvent",
      "type": "event"
    },
    {
      "anonymous": false,
      "inputs": [
        {
          "indexed": true,
          "internalType": "uint256",
          "name": "gameId",
          "type": "uint256"
        },
        {
          "indexed": true,
          "internalType": "address",
          "name": "player",
          "type": "address"
        },
        {
          "indexed": true,
          "internalType": "uint256",
          "name": "dateTime",
          "type": "uint256"
        }
      ],
      "name": "PlayerLeftGameEvent",
      "type": "event"
    },
    {
      "inputs": [],
      "name": "awaitingGameCriteriaMetOnlyTotalCount",
      "outputs": [
        {
          "internalType": "uint256",
          "name": "",
          "type": "uint256"
        }
      ],
      "stateMutability": "view",
      "type": "function",
      "constant": true
    },
    {
      "inputs": [],
      "name": "completeGamesOnlyTotalCount",
      "outputs": [
        {
          "internalType": "uint256",
          "name": "",
          "type": "uint256"
        }
      ],
      "stateMutability": "view",
      "type": "function",
      "constant": true
    },
    {
      "inputs": [],
      "name": "criteriaMetAwaitingLotteryOnlyTotalCount",
      "outputs": [
        {
          "internalType": "uint256",
          "name": "",
          "type": "uint256"
        }
      ],
      "stateMutability": "view",
      "type": "function",
      "constant": true
    },
    {
      "inputs": [],
      "name": "gameHouseRules",
      "outputs": [
        {
          "internalType": "uint8",
          "name": "houseCommissionPercent",
          "type": "uint8"
        },
        {
          "internalType": "uint256",
          "name": "minBetSize",
          "type": "uint256"
        },
        {
          "internalType": "uint8",
          "name": "minGamePlayers",
          "type": "uint8"
        },
        {
          "internalType": "uint256",
          "name": "minimumAuditGameVetAmount",
          "type": "uint256"
        }
      ],
      "stateMutability": "view",
      "type": "function",
      "constant": true
    },
    {
      "inputs": [],
      "name": "gamePaused",
      "outputs": [
        {
          "internalType": "bool",
          "name": "",
          "type": "bool"
        }
      ],
      "stateMutability": "view",
      "type": "function",
      "constant": true
    },
    {
      "inputs": [],
      "name": "gamesTotalCount",
      "outputs": [
        {
          "internalType": "uint256",
          "name": "",
          "type": "uint256"
        }
      ],
      "stateMutability": "view",
      "type": "function",
      "constant": true
    },
    {
      "inputs": [
        {
          "internalType": "uint8",
          "name": "_minGamePlayers",
          "type": "uint8"
        },
        {
          "internalType": "bool",
          "name": "_isAuditEnabled",
          "type": "bool"
        }
      ],
      "name": "createGame",
      "outputs": [],
      "stateMutability": "payable",
      "type": "function",
      "payable": true
    },
    {
      "inputs": [
        {
          "internalType": "uint256",
          "name": "_gameId",
          "type": "uint256"
        }
      ],
      "name": "joinExistingGame",
      "outputs": [],
      "stateMutability": "payable",
      "type": "function",
      "payable": true
    },
    {
      "inputs": [
        {
          "internalType": "uint256",
          "name": "_gameId",
          "type": "uint256"
        }
      ],
      "name": "leaveGame",
      "outputs": [],
      "stateMutability": "nonpayable",
      "type": "function"
    },
    {
      "inputs": [
        {
          "internalType": "uint256",
          "name": "_amount",
          "type": "uint256"
        }
      ],
      "name": "setMinimumAuditGameVet",
      "outputs": [],
      "stateMutability": "nonpayable",
      "type": "function"
    },
    {
      "inputs": [
        {
          "internalType": "address",
          "name": "_treasury",
          "type": "address"
        }
      ],
      "name": "setTreasuryAddress",
      "outputs": [],
      "stateMutability": "nonpayable",
      "type": "function"
    },
    {
      "inputs": [],
      "name": "getPausedMode",
      "outputs": [
        {
          "internalType": "bool",
          "name": "",
          "type": "bool"
        }
      ],
      "stateMutability": "view",
      "type": "function",
      "constant": true
    },
    {
      "inputs": [],
      "name": "setPauseModeEnabled",
      "outputs": [],
      "stateMutability": "nonpayable",
      "type": "function"
    },
    {
      "inputs": [],
      "name": "setPauseModeDisabled",
      "outputs": [],
      "stateMutability": "nonpayable",
      "type": "function"
    },
    {
      "inputs": [],
      "name": "destroy",
      "outputs": [],
      "stateMutability": "nonpayable",
      "type": "function"
    },
    {
      "inputs": [
        {
          "internalType": "uint256",
          "name": "gameId",
          "type": "uint256"
        },
        {
          "internalType": "address",
          "name": "playerWinner",
          "type": "address"
        },
        {
          "internalType": "uint256",
          "name": "auditRecordDrawId",
          "type": "uint256"
        }
      ],
      "name": "setGameWinnerAudit",
      "outputs": [],
      "stateMutability": "nonpayable",
      "type": "function"
    },
    {
      "inputs": [
        {
          "internalType": "uint256",
          "name": "gameId",
          "type": "uint256"
        },
        {
          "internalType": "address",
          "name": "playerWinner",
          "type": "address"
        }
      ],
      "name": "setGameWinnerNoAudit",
      "outputs": [],
      "stateMutability": "nonpayable",
      "type": "function"
    },
    {
      "inputs": [
        {
          "internalType": "uint256",
          "name": "id",
          "type": "uint256"
        }
      ],
      "name": "getEligiblePlayersForLotteryByActiveGameId",
      "outputs": [
        {
          "internalType": "address[]",
          "name": "playerWallets",
          "type": "address[]"
        }
      ],
      "stateMutability": "view",
      "type": "function",
      "constant": true
    },
    {
      "inputs": [
        {
          "internalType": "uint256",
          "name": "id",
          "type": "uint256"
        }
      ],
      "name": "getGameById",
      "outputs": [
        {
          "internalType": "uint256",
          "name": "gameId",
          "type": "uint256"
        },
        {
          "internalType": "enum RollItVetMultiPlayerGame.GameStatus",
          "name": "gameStatus",
          "type": "uint8"
        },
        {
          "internalType": "uint256",
          "name": "gameTotalWagers",
          "type": "uint256"
        },
        {
          "internalType": "uint256",
          "name": "gameTotalEligiblePlayers",
          "type": "uint256"
        },
        {
          "internalType": "uint256",
          "name": "gameWinningPayout",
          "type": "uint256"
        },
        {
          "internalType": "address",
          "name": "gameWinnerAddress",
          "type": "address"
        },
        {
          "internalType": "uint8",
          "name": "gcsMinGamePlayers",
          "type": "uint8"
        },
        {
          "internalType": "uint256",
          "name": "gcsGameBetSize",
          "type": "uint256"
        },
        {
          "internalType": "bool",
          "name": "gcsIsAuditEnabled",
          "type": "bool"
        }
      ],
      "stateMutability": "view",
      "type": "function",
      "constant": true
    },
    {
      "inputs": [
        {
          "internalType": "uint256",
          "name": "gameId",
          "type": "uint256"
        }
      ],
      "name": "getGameWinnerAddress",
      "outputs": [
        {
          "internalType": "address",
          "name": "gameWinningAddress",
          "type": "address"
        }
      ],
      "stateMutability": "view",
      "type": "function",
      "constant": true
    },
    {
      "inputs": [
        {
          "internalType": "enum RollItVetMultiPlayerGame.GameStatus",
          "name": "_status",
          "type": "uint8"
        }
      ],
      "name": "getGamesByStatus",
      "outputs": [
        {
          "internalType": "uint256[]",
          "name": "gameIds",
          "type": "uint256[]"
        },
        {
          "internalType": "enum RollItVetMultiPlayerGame.GameStatus[]",
          "name": "gameStatus",
          "type": "uint8[]"
        },
        {
          "internalType": "uint256[]",
          "name": "gameTotalWagers",
          "type": "uint256[]"
        },
        {
          "internalType": "uint256[]",
          "name": "gameTotalEligiblePlayers",
          "type": "uint256[]"
        },
        {
          "internalType": "uint256[]",
          "name": "gameWinningPayout",
          "type": "uint256[]"
        },
        {
          "internalType": "address[]",
          "name": "gameWinnerAddress",
          "type": "address[]"
        },
        {
          "internalType": "uint8[]",
          "name": "gcsMinGamePlayers",
          "type": "uint8[]"
        },
        {
          "internalType": "uint256[]",
          "name": "gcsGameBetSize",
          "type": "uint256[]"
        },
        {
          "internalType": "bool[]",
          "name": "gcsIsAuditEnabled",
          "type": "bool[]"
        }
      ],
      "stateMutability": "view",
      "type": "function",
      "constant": true
    }
  ],
  "bytecode": "0x608060405268457874656e73696f6e600260006101000a81548173ffffffffffffffffffffffffffffffffffffffff021916908373ffffffffffffffffffffffffffffffffffffffff160217905550600260009054906101000a900473ffffffffffffffffffffffffffffffffffffffff16600360006101000a81548173ffffffffffffffffffffffffffffffffffffffff021916908373ffffffffffffffffffffffffffffffffffffffff160217905550336000806101000a81548173ffffffffffffffffffffffffffffffffffffffff021916908373ffffffffffffffffffffffffffffffffffffffff16021790555033600160006101000a81548173ffffffffffffffffffffffffffffffffffffffff021916908373ffffffffffffffffffffffffffffffffffffffff16021790555060006009819055506000600a819055506000600b819055506000600c819055506040518060800160405280600360ff168152602001670de0b6b3a76400008152602001600260ff1681526020016801a055690d9db80000815250600460008201518160000160006101000a81548160ff021916908360ff1602179055506020820151816001015560408201518160020160006101000a81548160ff021916908360ff16021790555060608201518160030155905050615894806101f66000396000f3fe60806040526004361061012a5760003560e01c806383197ef0116100ab578063bbc6f1341161006f578063bbc6f134146103a7578063c3de1ab9146103ec578063c552c59514610417578063da6c56d514610440578063dbcf97861461046b578063f1bc6ef1146104965761012a565b806383197ef0146103185780638484775e1461032f5780638c6b0a951461034b578063a6e3b74e14610367578063af7fe12c1461037e5761012a565b806350b14ca7116100f257806350b14ca714610231578063557174681461025c5780636605bfda146102875780637f68ca7e146102b05780638276f91b146102ed5761012a565b8063096605131461012f5780631393bf65146101745780633feef58a146101a2578063459d838c146101cb5780634d8c451b14610208575b600080fd5b34801561013b57600080fd5b5061015660048036038101906101519190614428565b6104ad565b60405161016b99989796959493929190614e3a565b60405180910390f35b34801561018057600080fd5b506101896106d7565b6040516101999493929190614ec7565b60405180910390f35b3480156101ae57600080fd5b506101c960048036038101906101c49190614428565b61070f565b005b3480156101d757600080fd5b506101f260048036038101906101ed9190614428565b610b90565b6040516101ff9190614a6d565b60405180910390f35b34801561021457600080fd5b5061022f600480360381019061022a9190614428565b610f83565b005b34801561023d57600080fd5b50610246611014565b6040516102539190614b76565b60405180910390f35b34801561026857600080fd5b5061027161102b565b60405161027e9190614db1565b60405180910390f35b34801561029357600080fd5b506102ae60048036038101906102a991906143ad565b611031565b005b3480156102bc57600080fd5b506102d760048036038101906102d29190614428565b611103565b6040516102e49190614a88565b60405180910390f35b3480156102f957600080fd5b506103026115b9565b60405161030f9190614db1565b60405180910390f35b34801561032457600080fd5b5061032d6115bf565b005b61034960048036038101906103449190614428565b611666565b005b610365600480360381019061036091906144dc565b611eca565b005b34801561037357600080fd5b5061037c6124a7565b005b34801561038a57600080fd5b506103a560048036038101906103a09190614451565b612552565b005b3480156103b357600080fd5b506103ce60048036038101906103c991906143ff565b612e09565b6040516103e399989796959493929190614aaa565b60405180910390f35b3480156103f857600080fd5b50610401613930565b60405161040e9190614b76565b60405180910390f35b34801561042357600080fd5b5061043e6004803603810190610439919061448d565b613943565b005b34801561044c57600080fd5b50610455614206565b6040516104629190614db1565b60405180910390f35b34801561047757600080fd5b5061048061420c565b60405161048d9190614db1565b60405180910390f35b3480156104a257600080fd5b506104ab614212565b005b600080600080600080600080600080600954116104ff576040517f08c379a00000000000000000000000000000000000000000000000000000000081526004016104f690614cd1565b60405180910390fd5b600060088b8154811061053b577f4e487b7100000000000000000000000000000000000000000000000000000000600052603260045260246000fd5b90600052602060002090600b020160405180610100016040529081600082015481526020016001820160009054906101000a900460ff1660028111156105aa577f4e487b7100000000000000000000000000000000000000000000000000000000600052602160045260246000fd5b60028111156105e2577f4e487b7100000000000000000000000000000000000000000000000000000000600052602160045260246000fd5b8152602001600282016040518060800160405290816000820160009054906101000a900460ff1660ff1660ff16815260200160018201548152602001600282015481526020016003820160009054906101000a900460ff161515151581525050815260200160068201548152602001600782015481526020016008820154815260200160098201548152602001600a82015481525050905080600001519950806020015198508060a0015197508060e001519650806080015195506106a68b610b90565b9450806040015160000151935080604001516020015192508060400151606001519150509193959799909294969850565b60048060000160009054906101000a900460ff16908060010154908060020160009054906101000a900460ff16908060030154905084565b60011515600160149054906101000a900460ff1615151415610766576040517f08c379a000000000000000000000000000000000000000000000000000000000815260040161075d90614d71565b60405180910390fd5b80600e60008281526020019081526020016000206000600d600084815260200190815260200160002060003373ffffffffffffffffffffffffffffffffffffffff1673ffffffffffffffffffffffffffffffffffffffff16815260200190815260200160002054815260200190815260200160002060020160019054906101000a900460ff1661082b576040517f08c379a000000000000000000000000000000000000000000000000000000000815260040161082290614c91565b60405180910390fd5b60016002811115610865577f4e487b7100000000000000000000000000000000000000000000000000000000600052602160045260246000fd5b6008828154811061089f577f4e487b7100000000000000000000000000000000000000000000000000000000600052603260045260246000fd5b90600052602060002090600b020160010160009054906101000a900460ff1660028111156108f6577f4e487b7100000000000000000000000000000000000000000000000000000000600052602160045260246000fd5b14610936576040517f08c379a000000000000000000000000000000000000000000000000000000000815260040161092d90614cb1565b60405180910390fd5b600060088381548110610972577f4e487b7100000000000000000000000000000000000000000000000000000000600052603260045260246000fd5b90600052602060002090600b0201905060018160010160006101000a81548160ff021916908360028111156109d0577f4e487b7100000000000000000000000000000000000000000000000000000000600052602160045260246000fd5b02179055506000600e60008581526020019081526020016000206000600d600087815260200190815260200160002060003373ffffffffffffffffffffffffffffffffffffffff1673ffffffffffffffffffffffffffffffffffffffff168152602001908152602001600020548152602001908152602001600020905080600101548260080154610a61919061510a565b826008018190555081600a016000815480929190610a7e906151d4565b919050555060018160020160006101000a81548160ff02191690836003811115610ad1577f4e487b7100000000000000000000000000000000000000000000000000000000600052602160045260246000fd5b02179055508060000160009054906101000a900473ffffffffffffffffffffffffffffffffffffffff1673ffffffffffffffffffffffffffffffffffffffff166108fc82600101549081150290604051600060405180830381858888f19350505050158015610b44573d6000803e3d6000fd5b50423373ffffffffffffffffffffffffffffffffffffffff16857f4125f5aa3824dbb516a4c4581f08927e3df29fe2ccf01c7ad86bdf64d9fd9c7460405160405180910390a450505050565b60008060088381548110610bcd577f4e487b7100000000000000000000000000000000000000000000000000000000600052603260045260246000fd5b90600052602060002090600b020160405180610100016040529081600082015481526020016001820160009054906101000a900460ff166002811115610c3c577f4e487b7100000000000000000000000000000000000000000000000000000000600052602160045260246000fd5b6002811115610c74577f4e487b7100000000000000000000000000000000000000000000000000000000600052602160045260246000fd5b8152602001600282016040518060800160405290816000820160009054906101000a900460ff1660ff1660ff16815260200160018201548152602001600282015481526020016003820160009054906101000a900460ff161515151581525050815260200160068201548152602001600782015481526020016008820154815260200160098201548152602001600a82015481525050905060006002811115610d46577f4e487b7100000000000000000000000000000000000000000000000000000000600052602160045260246000fd5b81602001516002811115610d83577f4e487b7100000000000000000000000000000000000000000000000000000000600052602160045260246000fd5b1415610f7d576000600190505b8160c001518111610f7b576000600e600086815260200190815260200160002060008381526020019081526020016000206040518060800160405290816000820160009054906101000a900473ffffffffffffffffffffffffffffffffffffffff1673ffffffffffffffffffffffffffffffffffffffff1673ffffffffffffffffffffffffffffffffffffffff168152602001600182015481526020016002820160009054906101000a900460ff166003811115610e77577f4e487b7100000000000000000000000000000000000000000000000000000000600052602160045260246000fd5b6003811115610eaf577f4e487b7100000000000000000000000000000000000000000000000000000000600052602160045260246000fd5b81526020016002820160019054906101000a900460ff161515151581525050905060026003811115610f0a577f4e487b7100000000000000000000000000000000000000000000000000000000600052602160045260246000fd5b81604001516003811115610f47577f4e487b7100000000000000000000000000000000000000000000000000000000600052602160045260246000fd5b148015610f55575080606001515b15610f67578060000151935050610f7b565b508080610f73906151fe565b915050610d90565b505b50919050565b60008054906101000a900473ffffffffffffffffffffffffffffffffffffffff1673ffffffffffffffffffffffffffffffffffffffff163373ffffffffffffffffffffffffffffffffffffffff1614611011576040517f08c379a000000000000000000000000000000000000000000000000000000000815260040161100890614bd1565b60405180910390fd5b50565b6000600160149054906101000a900460ff16905090565b600a5481565b60008054906101000a900473ffffffffffffffffffffffffffffffffffffffff1673ffffffffffffffffffffffffffffffffffffffff163373ffffffffffffffffffffffffffffffffffffffff16146110bf576040517f08c379a00000000000000000000000000000000000000000000000000000000081526004016110b690614bd1565b60405180910390fd5b80600160006101000a81548173ffffffffffffffffffffffffffffffffffffffff021916908373ffffffffffffffffffffffffffffffffffffffff16021790555050565b606060006009541161114a576040517f08c379a000000000000000000000000000000000000000000000000000000000815260040161114190614cd1565b60405180910390fd5b600060088381548110611186577f4e487b7100000000000000000000000000000000000000000000000000000000600052603260045260246000fd5b90600052602060002090600b020160405180610100016040529081600082015481526020016001820160009054906101000a900460ff1660028111156111f5577f4e487b7100000000000000000000000000000000000000000000000000000000600052602160045260246000fd5b600281111561122d577f4e487b7100000000000000000000000000000000000000000000000000000000600052602160045260246000fd5b8152602001600282016040518060800160405290816000820160009054906101000a900460ff1660ff1660ff16815260200160018201548152602001600282015481526020016003820160009054906101000a900460ff161515151581525050815260200160068201548152602001600782015481526020016008820154815260200160098201548152602001600a82015481525050905060006001905060008260e0015167ffffffffffffffff811115611311577f4e487b7100000000000000000000000000000000000000000000000000000000600052604160045260246000fd5b60405190808252806020026020018201604052801561133f5781602001602082028036833780820191505090505b50935060008260ff1690505b8360c0015181116115b0576000600e600088815260200190815260200160002060008381526020019081526020016000206040518060800160405290816000820160009054906101000a900473ffffffffffffffffffffffffffffffffffffffff1673ffffffffffffffffffffffffffffffffffffffff1673ffffffffffffffffffffffffffffffffffffffff168152602001600182015481526020016002820160009054906101000a900460ff166003811115611432577f4e487b7100000000000000000000000000000000000000000000000000000000600052602160045260246000fd5b600381111561146a577f4e487b7100000000000000000000000000000000000000000000000000000000600052602160045260246000fd5b81526020016002820160019054906101000a900460ff1615151515815250509050600060038111156114c5577f4e487b7100000000000000000000000000000000000000000000000000000000600052602160045260246000fd5b81604001516003811115611502577f4e487b7100000000000000000000000000000000000000000000000000000000600052602160045260246000fd5b148015611510575080606001515b1561159c578060000151868481518110611553577f4e487b7100000000000000000000000000000000000000000000000000000000600052603260045260246000fd5b602002602001019073ffffffffffffffffffffffffffffffffffffffff16908173ffffffffffffffffffffffffffffffffffffffff16815250508280611598906151fe565b9350505b5080806115a8906151fe565b91505061134b565b50505050919050565b60095481565b60008054906101000a900473ffffffffffffffffffffffffffffffffffffffff1673ffffffffffffffffffffffffffffffffffffffff163373ffffffffffffffffffffffffffffffffffffffff161461164d576040517f08c379a000000000000000000000000000000000000000000000000000000000815260040161164490614bd1565b60405180910390fd5b3373ffffffffffffffffffffffffffffffffffffffff16ff5b60011515600160149054906101000a900460ff16151514156116bd576040517f08c379a00000000000000000000000000000000000000000000000000000000081526004016116b490614d71565b60405180910390fd5b80600073ffffffffffffffffffffffffffffffffffffffff163373ffffffffffffffffffffffffffffffffffffffff16141561172e576040517f08c379a000000000000000000000000000000000000000000000000000000000815260040161172590614d91565b60405180910390fd5b60088181548110611768577f4e487b7100000000000000000000000000000000000000000000000000000000600052603260045260246000fd5b90600052602060002090600b02016002016001015434146117be576040517f08c379a00000000000000000000000000000000000000000000000000000000081526004016117b590614d51565b60405180910390fd5b600160028111156117f8577f4e487b7100000000000000000000000000000000000000000000000000000000600052602160045260246000fd5b60088281548110611832577f4e487b7100000000000000000000000000000000000000000000000000000000600052603260045260246000fd5b90600052602060002090600b020160010160009054906101000a900460ff166002811115611889577f4e487b7100000000000000000000000000000000000000000000000000000000600052602160045260246000fd5b146118c9576040517f08c379a00000000000000000000000000000000000000000000000000000000081526004016118c090614b91565b60405180910390fd5b600460010154341015611911576040517f08c379a000000000000000000000000000000000000000000000000000000000815260040161190890614c71565b60405180910390fd5b6000600d600083815260200190815260200160002060003373ffffffffffffffffffffffffffffffffffffffff1673ffffffffffffffffffffffffffffffffffffffff168152602001908152602001600020541480156119f35750600e60008281526020019081526020016000206000600d600084815260200190815260200160002060003373ffffffffffffffffffffffffffffffffffffffff1673ffffffffffffffffffffffffffffffffffffffff16815260200190815260200160002054815260200190815260200160002060020160019054906101000a900460ff16155b611a32576040517f08c379a0000000000000000000000000000000000000000000000000000000008152600401611a2990614bb1565b60405180910390fd5b60088181548110611a6c577f4e487b7100000000000000000000000000000000000000000000000000000000600052603260045260246000fd5b90600052602060002090600b020160020160000160009054906101000a900460ff1660ff1660088281548110611acb577f4e487b7100000000000000000000000000000000000000000000000000000000600052603260045260246000fd5b90600052602060002090600b0201600a015410611b1d576040517f08c379a0000000000000000000000000000000000000000000000000000000008152600401611b1490614d11565b60405180910390fd5b600060088381548110611b59577f4e487b7100000000000000000000000000000000000000000000000000000000600052603260045260246000fd5b90600052602060002090600b02019050806009016000815480929190611b7e906151fe565b919050555080600a016000815480929190611b98906151fe565b91905055508060090154600d600085815260200190815260200160002060003373ffffffffffffffffffffffffffffffffffffffff1673ffffffffffffffffffffffffffffffffffffffff1681526020019081526020016000208190555060405180608001604052803373ffffffffffffffffffffffffffffffffffffffff16815260200134815260200160006003811115611c5d577f4e487b7100000000000000000000000000000000000000000000000000000000600052602160045260246000fd5b815260200160011515815250600e600085815260200190815260200160002060008360090154815260200190815260200160002060008201518160000160006101000a81548173ffffffffffffffffffffffffffffffffffffffff021916908373ffffffffffffffffffffffffffffffffffffffff1602179055506020820151816001015560408201518160020160006101000a81548160ff02191690836003811115611d33577f4e487b7100000000000000000000000000000000000000000000000000000000600052602160045260246000fd5b021790555060608201518160020160016101000a81548160ff02191690831515021790555090505034816008016000828254611d6f9190615029565b92505081905550423373ffffffffffffffffffffffffffffffffffffffff16847faf826dfc28710e789b457fdaf15b1d85f98319d34d1af1a3760eb0ef295912cd60405160405180910390a4611dc4836142bc565b15611ec55760028160010160006101000a81548160ff02191690836002811115611e17577f4e487b7100000000000000000000000000000000000000000000000000000000600052602160045260246000fd5b0217905550600c6000815480929190611e2f906151fe565b9190505550600b6000815480929190611e47906151d4565b9190505550428160010160009054906101000a900460ff166002811115611e97577f4e487b7100000000000000000000000000000000000000000000000000000000600052602160045260246000fd5b847f240b850a10f1b58d9f3376d536170b73eea08130f87b89e1d3c7d2b84666585e60405160405180910390a45b505050565b60011515600160149054906101000a900460ff1615151415611f21576040517f08c379a0000000000000000000000000000000000000000000000000000000008152600401611f1890614d71565b60405180910390fd5b818134600073ffffffffffffffffffffffffffffffffffffffff163373ffffffffffffffffffffffffffffffffffffffff161415611f94576040517f08c379a0000000000000000000000000000000000000000000000000000000008152600401611f8b90614d91565b60405180910390fd5b600460010154341015611fdc576040517f08c379a0000000000000000000000000000000000000000000000000000000008152600401611fd390614c71565b60405180910390fd5b600460020160009054906101000a900460ff1660ff168360ff161015612037576040517f08c379a000000000000000000000000000000000000000000000000000000000815260040161202e90614bf1565b60405180910390fd5b8180156120565750600460030154818460ff1661205491906150b0565b115b8061205f575081155b61209e576040517f08c379a000000000000000000000000000000000000000000000000000000000815260040161209590614cf1565b60405180910390fd5b60006040518061010001604052806009548152602001600160028111156120ee577f4e487b7100000000000000000000000000000000000000000000000000000000600052602160045260246000fd5b815260200160405180608001604052808960ff16815260200134815260200142815260200188151581525081526020016000815260200160008152602001348152602001600181526020016001815250905060088190806001815401808255809150506001900390600052602060002090600b02016000909190919091506000820151816000015560208201518160010160006101000a81548160ff021916908360028111156121c7577f4e487b7100000000000000000000000000000000000000000000000000000000600052602160045260246000fd5b021790555060408201518160020160008201518160000160006101000a81548160ff021916908360ff160217905550602082015181600101556040820151816002015560608201518160030160006101000a81548160ff0219169083151502179055505050606082015181600601556080820151816007015560a0820151816008015560c0820151816009015560e082015181600a015550508060c00151600d60008360000151815260200190815260200160002060003373ffffffffffffffffffffffffffffffffffffffff1673ffffffffffffffffffffffffffffffffffffffff1681526020019081526020016000208190555060405180608001604052803373ffffffffffffffffffffffffffffffffffffffff16815260200134815260200160006003811115612324577f4e487b7100000000000000000000000000000000000000000000000000000000600052602160045260246000fd5b815260200160011515815250600e60008360000151815260200190815260200160002060008360c00151815260200190815260200160002060008201518160000160006101000a81548173ffffffffffffffffffffffffffffffffffffffff021916908373ffffffffffffffffffffffffffffffffffffffff1602179055506020820151816001015560408201518160020160006101000a81548160ff021916908360038111156123fe577f4e487b7100000000000000000000000000000000000000000000000000000000600052602160045260246000fd5b021790555060608201518160020160016101000a81548160ff02191690831515021790555090505060096000815480929190612439906151fe565b9190505550600b6000815480929190612451906151fe565b9190505550423373ffffffffffffffffffffffffffffffffffffffff1682600001517f055c5881ecddd2b670014114d0806730877835ac63b0299a9270f81b00bff67260405160405180910390a4505050505050565b60008054906101000a900473ffffffffffffffffffffffffffffffffffffffff1673ffffffffffffffffffffffffffffffffffffffff163373ffffffffffffffffffffffffffffffffffffffff1614612535576040517f08c379a000000000000000000000000000000000000000000000000000000000815260040161252c90614bd1565b60405180910390fd5b6000600160146101000a81548160ff021916908315150217905550565b60008054906101000a900473ffffffffffffffffffffffffffffffffffffffff1673ffffffffffffffffffffffffffffffffffffffff163373ffffffffffffffffffffffffffffffffffffffff16146125e0576040517f08c379a00000000000000000000000000000000000000000000000000000000081526004016125d790614bd1565b60405180910390fd5b8160028081111561261a577f4e487b7100000000000000000000000000000000000000000000000000000000600052602160045260246000fd5b60088281548110612654577f4e487b7100000000000000000000000000000000000000000000000000000000600052603260045260246000fd5b90600052602060002090600b020160010160009054906101000a900460ff1660028111156126ab577f4e487b7100000000000000000000000000000000000000000000000000000000600052602160045260246000fd5b146126eb576040517f08c379a00000000000000000000000000000000000000000000000000000000081526004016126e290614c31565b60405180910390fd5b8260088181548110612726577f4e487b7100000000000000000000000000000000000000000000000000000000600052603260045260246000fd5b90600052602060002090600b020160020160030160009054906101000a900460ff1615612788576040517f08c379a000000000000000000000000000000000000000000000000000000000815260040161277f90614d31565b60405180910390fd5b8383600073ffffffffffffffffffffffffffffffffffffffff163373ffffffffffffffffffffffffffffffffffffffff1614156127fa576040517f08c379a00000000000000000000000000000000000000000000000000000000081526004016127f190614d91565b60405180910390fd5b6000600d600084815260200190815260200160002060008373ffffffffffffffffffffffffffffffffffffffff1673ffffffffffffffffffffffffffffffffffffffff16815260200190815260200160002054141580156128dc5750600e60008381526020019081526020016000206000600d600085815260200190815260200160002060008473ffffffffffffffffffffffffffffffffffffffff1673ffffffffffffffffffffffffffffffffffffffff16815260200190815260200160002054815260200190815260200160002060020160019054906101000a900460ff165b61291b576040517f08c379a000000000000000000000000000000000000000000000000000000000815260040161291290614c11565b60405180910390fd5b600060088781548110612957577f4e487b7100000000000000000000000000000000000000000000000000000000600052603260045260246000fd5b90600052602060002090600b020190506000600190505b81600901548111612c84576000600e60008a815260200190815260200160002060008381526020019081526020016000209050600060038111156129db577f4e487b7100000000000000000000000000000000000000000000000000000000600052602160045260246000fd5b8160020160009054906101000a900460ff166003811115612a25577f4e487b7100000000000000000000000000000000000000000000000000000000600052602160045260246000fd5b148015612a4057508060020160019054906101000a900460ff165b15612c70578773ffffffffffffffffffffffffffffffffffffffff168160000160009054906101000a900473ffffffffffffffffffffffffffffffffffffffff1673ffffffffffffffffffffffffffffffffffffffff161415612c1b5760028160020160006101000a81548160ff02191690836003811115612aeb577f4e487b7100000000000000000000000000000000000000000000000000000000600052602160045260246000fd5b021790555060006064600460000160009054906101000a900460ff1660ff168560080154612b1991906150b0565b612b23919061507f565b9050600160009054906101000a900473ffffffffffffffffffffffffffffffffffffffff1673ffffffffffffffffffffffffffffffffffffffff166108fc829081150290604051600060405180830381858888f19350505050158015612b8d573d6000803e3d6000fd5b50808460080154612b9e919061510a565b84600701819055508160000160009054906101000a900473ffffffffffffffffffffffffffffffffffffffff1673ffffffffffffffffffffffffffffffffffffffff166108fc85600701549081150290604051600060405180830381858888f19350505050158015612c14573d6000803e3d6000fd5b5050612c6f565b60038160020160006101000a81548160ff02191690836003811115612c69577f4e487b7100000000000000000000000000000000000000000000000000000000600052602160045260246000fd5b02179055505b5b508080612c7c906151fe565b91505061296e565b5060008160010160006101000a81548160ff02191690836002811115612cd3577f4e487b7100000000000000000000000000000000000000000000000000000000600052602160045260246000fd5b0217905550600a6000815480929190612ceb906151fe565b9190505550600c6000815480929190612d03906151d4565b9190505550428673ffffffffffffffffffffffffffffffffffffffff16887f67fc67140014bfc59b02b27efc3c6505ac26d8ddfaee33449d5163b657ec4e738460070154600360009054906101000a900473ffffffffffffffffffffffffffffffffffffffff1673ffffffffffffffffffffffffffffffffffffffff16639ac53dbb6040518163ffffffff1660e01b815260040160206040518083038186803b158015612daf57600080fd5b505afa158015612dc3573d6000803e3d6000fd5b505050506040513d601f19601f82011682018060405250810190612de791906143d6565b6000604051612df893929190614dcc565b60405180910390a450505050505050565b60608060608060608060608060606000806002811115612e52577f4e487b7100000000000000000000000000000000000000000000000000000000600052602160045260246000fd5b8b6002811115612e8b577f4e487b7100000000000000000000000000000000000000000000000000000000600052602160045260246000fd5b1415612e9b57600a549050612f9e565b60016002811115612ed5577f4e487b7100000000000000000000000000000000000000000000000000000000600052602160045260246000fd5b8b6002811115612f0e577f4e487b7100000000000000000000000000000000000000000000000000000000600052602160045260246000fd5b1415612f1e57600b549050612f9d565b600280811115612f57577f4e487b7100000000000000000000000000000000000000000000000000000000600052602160045260246000fd5b8b6002811115612f90577f4e487b7100000000000000000000000000000000000000000000000000000000600052602160045260246000fd5b1415612f9c57600c5490505b5b5b8067ffffffffffffffff811115612fde577f4e487b7100000000000000000000000000000000000000000000000000000000600052604160045260246000fd5b60405190808252806020026020018201604052801561300c5781602001602082028036833780820191505090505b5099508067ffffffffffffffff81111561304f577f4e487b7100000000000000000000000000000000000000000000000000000000600052604160045260246000fd5b60405190808252806020026020018201604052801561307d5781602001602082028036833780820191505090505b5098508067ffffffffffffffff8111156130c0577f4e487b7100000000000000000000000000000000000000000000000000000000600052604160045260246000fd5b6040519080825280602002602001820160405280156130ee5781602001602082028036833780820191505090505b5097508067ffffffffffffffff811115613131577f4e487b7100000000000000000000000000000000000000000000000000000000600052604160045260246000fd5b60405190808252806020026020018201604052801561315f5781602001602082028036833780820191505090505b5096508067ffffffffffffffff8111156131a2577f4e487b7100000000000000000000000000000000000000000000000000000000600052604160045260246000fd5b6040519080825280602002602001820160405280156131d05781602001602082028036833780820191505090505b5095508067ffffffffffffffff811115613213577f4e487b7100000000000000000000000000000000000000000000000000000000600052604160045260246000fd5b6040519080825280602002602001820160405280156132415781602001602082028036833780820191505090505b5094508067ffffffffffffffff811115613284577f4e487b7100000000000000000000000000000000000000000000000000000000600052604160045260246000fd5b6040519080825280602002602001820160405280156132b25781602001602082028036833780820191505090505b5093508067ffffffffffffffff8111156132f5577f4e487b7100000000000000000000000000000000000000000000000000000000600052604160045260246000fd5b6040519080825280602002602001820160405280156133235781602001602082028036833780820191505090505b5092508067ffffffffffffffff811115613366577f4e487b7100000000000000000000000000000000000000000000000000000000600052604160045260246000fd5b6040519080825280602002602001820160405280156133945781602001602082028036833780820191505090505b5091506000805b600880549050811015613920576000600882815481106133e4577f4e487b7100000000000000000000000000000000000000000000000000000000600052603260045260246000fd5b90600052602060002090600b020160405180610100016040529081600082015481526020016001820160009054906101000a900460ff166002811115613453577f4e487b7100000000000000000000000000000000000000000000000000000000600052602160045260246000fd5b600281111561348b577f4e487b7100000000000000000000000000000000000000000000000000000000600052602160045260246000fd5b8152602001600282016040518060800160405290816000820160009054906101000a900460ff1660ff1660ff16815260200160018201548152602001600282015481526020016003820160009054906101000a900460ff161515151581525050815260200160068201548152602001600782015481526020016008820154815260200160098201548152602001600a820154815250509050600061352e83610b90565b90508e6002811115613569577f4e487b7100000000000000000000000000000000000000000000000000000000600052602160045260246000fd5b826020015160028111156135a6577f4e487b7100000000000000000000000000000000000000000000000000000000600052602160045260246000fd5b141561390b5781600001518e85815181106135ea577f4e487b7100000000000000000000000000000000000000000000000000000000600052603260045260246000fd5b60200260200101818152505081602001518d8581518110613634577f4e487b7100000000000000000000000000000000000000000000000000000000600052603260045260246000fd5b60200260200101906002811115613674577f4e487b7100000000000000000000000000000000000000000000000000000000600052602160045260246000fd5b908160028111156136ae577f4e487b7100000000000000000000000000000000000000000000000000000000600052602160045260246000fd5b815250508160a001518c85815181106136f0577f4e487b7100000000000000000000000000000000000000000000000000000000600052603260045260246000fd5b6020026020010181815250508160e001518b858151811061373a577f4e487b7100000000000000000000000000000000000000000000000000000000600052603260045260246000fd5b60200260200101818152505081608001518a8581518110613784577f4e487b7100000000000000000000000000000000000000000000000000000000600052603260045260246000fd5b602002602001018181525050808985815181106137ca577f4e487b7100000000000000000000000000000000000000000000000000000000600052603260045260246000fd5b602002602001019073ffffffffffffffffffffffffffffffffffffffff16908173ffffffffffffffffffffffffffffffffffffffff1681525050816040015160000151888581518110613846577f4e487b7100000000000000000000000000000000000000000000000000000000600052603260045260246000fd5b602002602001019060ff16908160ff168152505081604001516020015187858151811061389c577f4e487b7100000000000000000000000000000000000000000000000000000000600052603260045260246000fd5b6020026020010181815250508160400151606001518685815181106138ea577f4e487b7100000000000000000000000000000000000000000000000000000000600052603260045260246000fd5b6020026020010190151590811515815250508380613907906151fe565b9450505b50508080613918906151fe565b91505061339b565b5050509193959799909294969850565b600160149054906101000a900460ff1681565b60008054906101000a900473ffffffffffffffffffffffffffffffffffffffff1673ffffffffffffffffffffffffffffffffffffffff163373ffffffffffffffffffffffffffffffffffffffff16146139d1576040517f08c379a00000000000000000000000000000000000000000000000000000000081526004016139c890614bd1565b60405180910390fd5b82600280811115613a0b577f4e487b7100000000000000000000000000000000000000000000000000000000600052602160045260246000fd5b60088281548110613a45577f4e487b7100000000000000000000000000000000000000000000000000000000600052603260045260246000fd5b90600052602060002090600b020160010160009054906101000a900460ff166002811115613a9c577f4e487b7100000000000000000000000000000000000000000000000000000000600052602160045260246000fd5b14613adc576040517f08c379a0000000000000000000000000000000000000000000000000000000008152600401613ad390614c31565b60405180910390fd5b8360088181548110613b17577f4e487b7100000000000000000000000000000000000000000000000000000000600052603260045260246000fd5b90600052602060002090600b020160020160030160009054906101000a900460ff16613b78576040517f08c379a0000000000000000000000000000000000000000000000000000000008152600401613b6f90614c51565b60405180910390fd5b8484600073ffffffffffffffffffffffffffffffffffffffff163373ffffffffffffffffffffffffffffffffffffffff161415613bea576040517f08c379a0000000000000000000000000000000000000000000000000000000008152600401613be190614d91565b60405180910390fd5b6000600d600084815260200190815260200160002060008373ffffffffffffffffffffffffffffffffffffffff1673ffffffffffffffffffffffffffffffffffffffff1681526020019081526020016000205414158015613ccc5750600e60008381526020019081526020016000206000600d600085815260200190815260200160002060008473ffffffffffffffffffffffffffffffffffffffff1673ffffffffffffffffffffffffffffffffffffffff16815260200190815260200160002054815260200190815260200160002060020160019054906101000a900460ff165b613d0b576040517f08c379a0000000000000000000000000000000000000000000000000000000008152600401613d0290614c11565b60405180910390fd5b600060088881548110613d47577f4e487b7100000000000000000000000000000000000000000000000000000000600052603260045260246000fd5b90600052602060002090600b020190506000600190505b81600901548111614074576000600e60008b81526020019081526020016000206000838152602001908152602001600020905060006003811115613dcb577f4e487b7100000000000000000000000000000000000000000000000000000000600052602160045260246000fd5b8160020160009054906101000a900460ff166003811115613e15577f4e487b7100000000000000000000000000000000000000000000000000000000600052602160045260246000fd5b148015613e3057508060020160019054906101000a900460ff165b15614060578873ffffffffffffffffffffffffffffffffffffffff168160000160009054906101000a900473ffffffffffffffffffffffffffffffffffffffff1673ffffffffffffffffffffffffffffffffffffffff16141561400b5760028160020160006101000a81548160ff02191690836003811115613edb577f4e487b7100000000000000000000000000000000000000000000000000000000600052602160045260246000fd5b021790555060006064600460000160009054906101000a900460ff1660ff168560080154613f0991906150b0565b613f13919061507f565b9050600160009054906101000a900473ffffffffffffffffffffffffffffffffffffffff1673ffffffffffffffffffffffffffffffffffffffff166108fc829081150290604051600060405180830381858888f19350505050158015613f7d573d6000803e3d6000fd5b50808460080154613f8e919061510a565b84600701819055508160000160009054906101000a900473ffffffffffffffffffffffffffffffffffffffff1673ffffffffffffffffffffffffffffffffffffffff166108fc85600701549081150290604051600060405180830381858888f19350505050158015614004573d6000803e3d6000fd5b505061405f565b60038160020160006101000a81548160ff02191690836003811115614059577f4e487b7100000000000000000000000000000000000000000000000000000000600052602160045260246000fd5b02179055505b5b50808061406c906151fe565b915050613d5e565b5085816006018190555060008160010160006101000a81548160ff021916908360028111156140cc577f4e487b7100000000000000000000000000000000000000000000000000000000600052602160045260246000fd5b0217905550600a60008154809291906140e4906151fe565b9190505550600c60008154809291906140fc906151d4565b9190505550428773ffffffffffffffffffffffffffffffffffffffff16897f67fc67140014bfc59b02b27efc3c6505ac26d8ddfaee33449d5163b657ec4e738460070154600360009054906101000a900473ffffffffffffffffffffffffffffffffffffffff1673ffffffffffffffffffffffffffffffffffffffff16639ac53dbb6040518163ffffffff1660e01b815260040160206040518083038186803b1580156141a857600080fd5b505afa1580156141bc573d6000803e3d6000fd5b505050506040513d601f19601f820116820180604052508101906141e091906143d6565b86600601546040516141f493929190614e03565b60405180910390a45050505050505050565b600b5481565b600c5481565b60008054906101000a900473ffffffffffffffffffffffffffffffffffffffff1673ffffffffffffffffffffffffffffffffffffffff163373ffffffffffffffffffffffffffffffffffffffff16146142a0576040517f08c379a000000000000000000000000000000000000000000000000000000000815260040161429790614bd1565b60405180910390fd5b60018060146101000a81548160ff021916908315150217905550565b600080600883815481106142f9577f4e487b7100000000000000000000000000000000000000000000000000000000600052603260045260246000fd5b90600052602060002090600b020190508060020160000160009054906101000a900460ff1660ff1681600a015414915050919050565b60008135905061433e816157db565b92915050565b600081359050614353816157f2565b92915050565b60008151905061436881615809565b92915050565b60008135905061437d81615820565b92915050565b60008135905061439281615830565b92915050565b6000813590506143a781615847565b92915050565b6000602082840312156143bf57600080fd5b60006143cd8482850161432f565b91505092915050565b6000602082840312156143e857600080fd5b60006143f684828501614359565b91505092915050565b60006020828403121561441157600080fd5b600061441f8482850161436e565b91505092915050565b60006020828403121561443a57600080fd5b600061444884828501614383565b91505092915050565b6000806040838503121561446457600080fd5b600061447285828601614383565b92505060206144838582860161432f565b9150509250929050565b6000806000606084860312156144a257600080fd5b60006144b086828701614383565b93505060206144c18682870161432f565b92505060406144d286828701614383565b9150509250925092565b600080604083850312156144ef57600080fd5b60006144fd85828601614398565b925050602061450e85828601614344565b9150509250929050565b60006145248383614590565b60208301905092915050565b600061453c8383614784565b60208301905092915050565b600061455483836147b1565b60208301905092915050565b600061456c8383614a31565b60208301905092915050565b60006145848383614a4f565b60208301905092915050565b6145998161513e565b82525050565b6145a88161513e565b82525050565b60006145b982614f5c565b6145c38185614fd4565b93506145ce83614f0c565b8060005b838110156145ff5781516145e68882614518565b97506145f183614f93565b9250506001810190506145d2565b5085935050505092915050565b600061461782614f67565b6146218185614fe5565b935061462c83614f1c565b8060005b8381101561465d5781516146448882614530565b975061464f83614fa0565b925050600181019050614630565b5085935050505092915050565b600061467582614f72565b61467f8185615007565b935061468a83614f2c565b8060005b838110156146bb5781516146a28882614548565b97506146ad83614fad565b92505060018101905061468e565b5085935050505092915050565b60006146d382614f7d565b6146dd8185614ff6565b93506146e883614f3c565b8060005b838110156147195781516147008882614560565b975061470b83614fba565b9250506001810190506146ec565b5085935050505092915050565b600061473182614f88565b61473b8185615007565b935061474683614f4c565b8060005b8381101561477757815161475e8882614578565b975061476983614fc7565b92505060018101905061474a565b5085935050505092915050565b61478d81615150565b82525050565b61479c81615150565b82525050565b6147ab8161515c565b82525050565b6147ba816151b0565b82525050565b6147c9816151b0565b82525050565b6147d8816151c2565b82525050565b60006147eb602f83615018565b91506147f6826152d4565b604082019050919050565b600061480e604983615018565b915061481982615323565b606082019050919050565b6000614831602283615018565b915061483c82615398565b604082019050919050565b6000614854603483615018565b915061485f826153e7565b604082019050919050565b6000614877602183615018565b915061488282615436565b604082019050919050565b600061489a602d83615018565b91506148a582615485565b604082019050919050565b60006148bd603883615018565b91506148c8826154d4565b604082019050919050565b60006148e0602783615018565b91506148eb82615523565b604082019050919050565b6000614903602e83615018565b915061490e82615572565b604082019050919050565b6000614926603983615018565b9150614931826155c1565b604082019050919050565b6000614949601283615018565b915061495482615610565b602082019050919050565b600061496c600a83615018565b915061497782615639565b602082019050919050565b600061498f601a83615018565b915061499a82615662565b602082019050919050565b60006149b2603983615018565b91506149bd8261568b565b604082019050919050565b60006149d5603283615018565b91506149e0826156da565b604082019050919050565b60006149f8602583615018565b9150614a0382615729565b604082019050919050565b6000614a1b602483615018565b9150614a2682615778565b604082019050919050565b614a3a81615199565b82525050565b614a4981615199565b82525050565b614a58816151a3565b82525050565b614a67816151a3565b82525050565b6000602082019050614a82600083018461459f565b92915050565b60006020820190508181036000830152614aa281846145ae565b905092915050565b6000610120820190508181036000830152614ac5818c6146c8565b90508181036020830152614ad9818b61466a565b90508181036040830152614aed818a6146c8565b90508181036060830152614b0181896146c8565b90508181036080830152614b1581886146c8565b905081810360a0830152614b2981876145ae565b905081810360c0830152614b3d8186614726565b905081810360e0830152614b5181856146c8565b9050818103610100830152614b66818461460c565b90509a9950505050505050505050565b6000602082019050614b8b6000830184614793565b92915050565b60006020820190508181036000830152614baa816147de565b9050919050565b60006020820190508181036000830152614bca81614801565b9050919050565b60006020820190508181036000830152614bea81614824565b9050919050565b60006020820190508181036000830152614c0a81614847565b9050919050565b60006020820190508181036000830152614c2a8161486a565b9050919050565b60006020820190508181036000830152614c4a8161488d565b9050919050565b60006020820190508181036000830152614c6a816148b0565b9050919050565b60006020820190508181036000830152614c8a816148d3565b9050919050565b60006020820190508181036000830152614caa816148f6565b9050919050565b60006020820190508181036000830152614cca81614919565b9050919050565b60006020820190508181036000830152614cea8161493c565b9050919050565b60006020820190508181036000830152614d0a8161495f565b9050919050565b60006020820190508181036000830152614d2a81614982565b9050919050565b60006020820190508181036000830152614d4a816149a5565b9050919050565b60006020820190508181036000830152614d6a816149c8565b9050919050565b60006020820190508181036000830152614d8a816149eb565b9050919050565b60006020820190508181036000830152614daa81614a0e565b9050919050565b6000602082019050614dc66000830184614a40565b92915050565b6000606082019050614de16000830186614a40565b614dee60208301856147a2565b614dfb60408301846147cf565b949350505050565b6000606082019050614e186000830186614a40565b614e2560208301856147a2565b614e326040830184614a40565b949350505050565b600061012082019050614e50600083018c614a40565b614e5d602083018b6147c0565b614e6a604083018a614a40565b614e776060830189614a40565b614e846080830188614a40565b614e9160a083018761459f565b614e9e60c0830186614a5e565b614eab60e0830185614a40565b614eb9610100830184614793565b9a9950505050505050505050565b6000608082019050614edc6000830187614a5e565b614ee96020830186614a40565b614ef66040830185614a5e565b614f036060830184614a40565b95945050505050565b6000819050602082019050919050565b6000819050602082019050919050565b6000819050602082019050919050565b6000819050602082019050919050565b6000819050602082019050919050565b600081519050919050565b600081519050919050565b600081519050919050565b600081519050919050565b600081519050919050565b6000602082019050919050565b6000602082019050919050565b6000602082019050919050565b6000602082019050919050565b6000602082019050919050565b600082825260208201905092915050565b600082825260208201905092915050565b600082825260208201905092915050565b600082825260208201905092915050565b600082825260208201905092915050565b600061503482615199565b915061503f83615199565b9250827fffffffffffffffffffffffffffffffffffffffffffffffffffffffffffffffff0382111561507457615073615247565b5b828201905092915050565b600061508a82615199565b915061509583615199565b9250826150a5576150a4615276565b5b828204905092915050565b60006150bb82615199565b91506150c683615199565b9250817fffffffffffffffffffffffffffffffffffffffffffffffffffffffffffffffff04831182151516156150ff576150fe615247565b5b828202905092915050565b600061511582615199565b915061512083615199565b92508282101561513357615132615247565b5b828203905092915050565b600061514982615179565b9050919050565b60008115159050919050565b6000819050919050565b6000819050615174826157c7565b919050565b600073ffffffffffffffffffffffffffffffffffffffff82169050919050565b6000819050919050565b600060ff82169050919050565b60006151bb82615166565b9050919050565b60006151cd82615199565b9050919050565b60006151df82615199565b915060008214156151f3576151f2615247565b5b600182039050919050565b600061520982615199565b91507fffffffffffffffffffffffffffffffffffffffffffffffffffffffffffffffff82141561523c5761523b615247565b5b600182019050919050565b7f4e487b7100000000000000000000000000000000000000000000000000000000600052601160045260246000fd5b7f4e487b7100000000000000000000000000000000000000000000000000000000600052601260045260246000fd5b7f4e487b7100000000000000000000000000000000000000000000000000000000600052602160045260246000fd5b7f47616d65206973206e6f7420696e20746865206177616974696e67206372697460008201527f6965726961206d65742073746174650000000000000000000000000000000000602082015250565b7f506c61796572206973206f72207761732070617274696369706174696e67206960008201527f6e207468652063757272656e742067616d652e204e6f7420656c696769626c6560208201527f20746f206a6f696e2e0000000000000000000000000000000000000000000000604082015250565b7f4f6e6c79206f776e65722063616e2063616c6c20746869732066756e6374696f60008201527f6e2e000000000000000000000000000000000000000000000000000000000000602082015250565b7f47616d6520706c61796572732073686f756c642062652061626f76652074686560008201527f20686f7573652072756c65732073657474696e67000000000000000000000000602082015250565b7f506c61796572206973206e6f7420696e207468652063757272656e742067616d60008201527f6500000000000000000000000000000000000000000000000000000000000000602082015250565b7f47616d65206973206e6f7420696e20746865206177616974696e6720666f722060008201527f6c6f747465727920737461746500000000000000000000000000000000000000602082015250565b7f47616d652063726561746f722073657474696e67732067616d6520686173207260008201527f616e646f6d2e6f72672061756469747320656e61626c65640000000000000000602082015250565b7f56616c7565206973206e6f742061626f766520746865206d696e696d756d206260008201527f65742073697a6500000000000000000000000000000000000000000000000000602082015250565b7f506c61796572206973206e6f7420666f756e642070617274696369706174696e60008201527f6720696e20746869732067616d65000000000000000000000000000000000000602082015250565b7f47616d65206973206e6f206c6f6e67657220696e20746865206177616974696e60008201527f672067616d65206372697465726961206d657420706861736500000000000000602082015250565b7f4e6f2067616d657320746f2072657475726e0000000000000000000000000000600082015250565b7f41756469742067616d6500000000000000000000000000000000000000000000600082015250565b7f47616d65206973206174206d6178696d756d20706c6179657273000000000000600082015250565b7f47616d652063726561746f722073657474696e67732067616d6520686173207260008201527f616e646f6d2e6f7267206175646974732064697361626c656400000000000000602082015250565b7f4265742073697a6520646f6573206e6f74206d61746368207468652067616d6560008201527f2063726561746f7273206265742073697a650000000000000000000000000000602082015250565b7f47616d652069732063757272656e746c7920696e20746865207061757365642060008201527f7374617465000000000000000000000000000000000000000000000000000000602082015250565b7f43616c6c6572206973206e6f7420612076616c69642077616c6c65742061646460008201527f7265737300000000000000000000000000000000000000000000000000000000602082015250565b600381106157d8576157d76152a5565b5b50565b6157e48161513e565b81146157ef57600080fd5b50565b6157fb81615150565b811461580657600080fd5b50565b6158128161515c565b811461581d57600080fd5b50565b6003811061582d57600080fd5b50565b61583981615199565b811461584457600080fd5b50565b615850816151a3565b811461585b57600080fd5b5056fea2646970667358221220372d6b2fef37958fa99cc4459a621c379eb3cc5993c01f196ead3720370db82d64736f6c63430008030033",
  "immutableReferences": {},
  "source": "// SPDX-License-Identifier: MIT\npragma solidity >=0.4.22 <0.9.0;\n\nabstract contract Extension {\n    function blake2b256(bytes memory data)\n        public\n        view\n        virtual\n        returns (bytes32);\n\n    function blockID(uint256 num) public view virtual returns (bytes32);\n\n    function blockTotalScore(uint256 num) public view virtual returns (uint64);\n\n    function blockTime(uint256 num) public view virtual returns (uint256);\n\n    function blockSigner(uint256 num) public view virtual returns (address);\n\n    function totalSupply() public view virtual returns (uint256);\n\n    function txProvedWork() public view virtual returns (uint256);\n\n    function txID() public view virtual returns (bytes32);\n\n    function txBlockRef() public view virtual returns (bytes8);\n\n    function txExpiration() public view virtual returns (uint256);\n}\n\ncontract RollItVetMultiPlayerGame {\n    address owner;\n    address treasury;\n\n    bool public gamePaused;\n\n    address extension_native = 0x0000000000000000000000457874656E73696F6e;\n    Extension ext = Extension(extension_native);\n\n    enum GameStatus {\n        COMPLETE,\n        AWAITING_GAME_CRITERIA_MET,\n        CRITERIA_MET_AWAITING_LOTTERY\n    }\n    enum PlayerGameStatus {\n        PENDING_GAME_COMPLETION,\n        WITHDREW_FROM_GAME,\n        WIN,\n        LOSE\n    }\n\n    GameHouseRules public gameHouseRules;\n    Game[] games;\n    uint256 public gamesTotalCount;\n\n    uint256 public completeGamesOnlyTotalCount;\n    uint256 public awaitingGameCriteriaMetOnlyTotalCount;\n    uint256 public criteriaMetAwaitingLotteryOnlyTotalCount;\n\n    event GameCreatedEvent(\n        uint256 indexed gameId,\n        address indexed player,\n        uint256 indexed dateTime\n    );\n\n    event PlayerJoinedGameEvent(\n        uint256 indexed gameId,\n        address indexed player,\n        uint256 indexed dateTime\n    );\n\n    event PlayerLeftGameEvent(\n        uint256 indexed gameId,\n        address indexed player,\n        uint256 indexed dateTime\n    );\n\n    event GameAwaitingLotteryEvent(\n        uint256 indexed gameId,\n        GameStatus indexed status,\n        uint256 indexed dateTime\n    );\n\n    //can this be status changed\n    event GameCompletedEvent(\n        uint256 indexed gameId,\n        address indexed player,\n        uint256 indexed dateTime,\n        uint256 winningPayout,\n        bytes32 transactionId,\n        uint256 auditRecordDrawId\n    );\n\n    struct GameHouseRules {\n        uint8 houseCommissionPercent;\n        uint256 minBetSize;\n        uint8 minGamePlayers;\n        uint256 minimumAuditGameVetAmount;\n    }\n    struct GameCreatorSettings {\n        uint8 minGamePlayers;\n        uint256 gameBetSize;\n        uint256 createdDateTime;\n        bool isAuditEnabled;\n    }\n    struct Game {\n        uint256 id;\n        GameStatus status;\n        GameCreatorSettings settings;\n        uint256 auditRecordDrawId;\n        uint256 winningPayout;\n        uint256 totalGameWagers;\n        uint256 playerArrayCount;\n        uint256 eligiblePlayerCount;\n    }\n    //gameid => player address to array int\n    mapping(uint256 => mapping(address => uint256)) _players;\n    mapping(uint256 => mapping(uint256 => PlayerGameEntry)) players;\n\n    struct PlayerGameEntry {\n        address payable playerAddress;\n        uint256 betsize;\n        PlayerGameStatus playerGameStatus;\n        bool inCurrentGame;\n    }\n\n    modifier onlyOwner {\n        require(msg.sender == owner, \"Only owner can call this function.\");\n        _;\n    }\n    modifier onlyTreasury {\n        require(\n            msg.sender == treasury,\n            \"Only treasury can call this function.\"\n        );\n        _;\n    }\n    modifier gameIsActive {\n        require(gamePaused != true, \"Game is currently in the paused state\");\n        _;\n    }\n\n    modifier gameIsValid(\n        uint8 _minGamePlayers,\n        bool _isAuditEnabled,\n        uint256 _gameBetSize\n    ) {\n        require(\n            msg.sender != 0x0000000000000000000000000000000000000000,\n            \"Caller is not a valid wallet address\"\n        );\n        require(\n            msg.value >= gameHouseRules.minBetSize,\n            \"Value is not above the minimum bet size\"\n        );\n        require(\n            _minGamePlayers >= gameHouseRules.minGamePlayers,\n            \"Game players should be above the house rules setting\"\n        );\n        require(\n            (_isAuditEnabled &&\n                _minGamePlayers * _gameBetSize >\n                gameHouseRules.minimumAuditGameVetAmount) || (!_isAuditEnabled),\n            \"Audit game\"\n        );\n        _;\n    }\n    modifier canLeaveGame(uint256 _gameId) {\n        require(\n            players[_gameId][_players[_gameId][msg.sender]].inCurrentGame,\n            \"Player is not found participating in this game\"\n        );\n        require(\n            games[_gameId].status == GameStatus.AWAITING_GAME_CRITERIA_MET,\n            \"Game is no longer in the awaiting game criteria met phase\"\n        );\n        _;\n    }\n    modifier canJoinExistingGame(uint256 _gameId) {\n        require(\n            msg.sender != 0x0000000000000000000000000000000000000000,\n            \"Caller is not a valid wallet address\"\n        );\n        require(\n            msg.value == games[_gameId].settings.gameBetSize,\n            \"Bet size does not match the game creators bet size\"\n        );\n        require(\n            games[_gameId].status == GameStatus.AWAITING_GAME_CRITERIA_MET,\n            \"Game is not in the awaiting critieria met state\"\n        );\n        require(\n            msg.value >= gameHouseRules.minBetSize,\n            \"Value is not above the minimum bet size\"\n        );\n        require(\n            _players[_gameId][msg.sender] == 0 &&\n                !players[_gameId][_players[_gameId][msg.sender]].inCurrentGame,\n            \"Player is or was participating in the current game. Not eligible to join.\"\n        );\n        require(\n            games[_gameId].eligiblePlayerCount <\n                games[_gameId].settings.minGamePlayers,\n            \"Game is at maximum players\"\n        );\n        _;\n    }\n    modifier isGameInLotteryState(uint256 _gameId) {\n        require(\n            games[_gameId].status == GameStatus.CRITERIA_MET_AWAITING_LOTTERY,\n            \"Game is not in the awaiting for lottery state\"\n        );\n        _;\n    }\n    modifier isNoAuditGame(uint256 _gameId) {\n        require(\n            !games[_gameId].settings.isAuditEnabled,\n            \"Game creator settings game has random.org audits disabled\"\n        );\n        _;\n    }\n\n    modifier isAuditGame(uint256 _gameId) {\n        require(\n            games[_gameId].settings.isAuditEnabled,\n            \"Game creator settings game has random.org audits enabled\"\n        );\n        _;\n    }\n    modifier playerIsInGame(uint256 _gameId, address _playerAddress) {\n        require(\n            msg.sender != 0x0000000000000000000000000000000000000000,\n            \"Caller is not a valid wallet address\"\n        );\n        require(\n            _players[_gameId][_playerAddress] != 0 &&\n                players[_gameId][_players[_gameId][_playerAddress]]\n                    .inCurrentGame,\n            \"Player is not in the current game\"\n        );\n        _;\n    }\n\n    // Create a new contract\n    constructor() payable {\n        owner = msg.sender;\n        treasury = msg.sender;\n\n        gamesTotalCount = 0;\n\n        completeGamesOnlyTotalCount = 0;\n        awaitingGameCriteriaMetOnlyTotalCount = 0;\n        criteriaMetAwaitingLotteryOnlyTotalCount = 0;\n\n        gameHouseRules = GameHouseRules({\n            houseCommissionPercent: 3,\n            minBetSize: 1000000000000000000, // equivalent of 1 VET\n            minGamePlayers: 2,\n            minimumAuditGameVetAmount: 30000000000000000000 // equivalent of 30 VET\n        });\n    }\n\n    function createGame(uint8 _minGamePlayers, bool _isAuditEnabled)\n        public\n        payable\n        gameIsActive()\n        gameIsValid(_minGamePlayers, _isAuditEnabled, msg.value)\n    {\n        Game memory newGame =\n            Game({\n                id: gamesTotalCount,\n                status: GameStatus.AWAITING_GAME_CRITERIA_MET,\n                settings: GameCreatorSettings({\n                    gameBetSize: msg.value,\n                    createdDateTime: block.timestamp,\n                    minGamePlayers: _minGamePlayers,\n                    isAuditEnabled: _isAuditEnabled\n                }),\n                winningPayout: 0,\n                totalGameWagers: msg.value,\n                eligiblePlayerCount: 1,\n                playerArrayCount: 1,\n                auditRecordDrawId: 0\n            });\n\n        games.push(newGame);\n\n        // map player to position 1, using position 0 for default not present\n        _players[newGame.id][msg.sender] = newGame.playerArrayCount;\n        players[newGame.id][newGame.playerArrayCount] = PlayerGameEntry({\n            playerAddress: payable(msg.sender),\n            betsize: msg.value,\n            playerGameStatus: PlayerGameStatus.PENDING_GAME_COMPLETION,\n            inCurrentGame: true\n        });\n\n        gamesTotalCount++;\n        awaitingGameCriteriaMetOnlyTotalCount++;\n        emit GameCreatedEvent(newGame.id, msg.sender, block.timestamp);\n    }\n\n    function joinExistingGame(uint256 _gameId)\n        public\n        payable\n        gameIsActive()\n        canJoinExistingGame(_gameId)\n    {\n        Game storage existingGame = games[_gameId];\n\n        existingGame.playerArrayCount++;\n        existingGame.eligiblePlayerCount++;\n\n        //second player should be mapped to position 2\n        _players[_gameId][msg.sender] = existingGame.playerArrayCount;\n        players[_gameId][existingGame.playerArrayCount] = PlayerGameEntry({\n            playerAddress: payable(msg.sender),\n            betsize: msg.value,\n            playerGameStatus: PlayerGameStatus.PENDING_GAME_COMPLETION,\n            inCurrentGame: true\n        });\n\n        existingGame.totalGameWagers += msg.value;\n\n        emit PlayerJoinedGameEvent(_gameId, msg.sender, block.timestamp);\n\n        if (gameMeetsCriteriaToStart(_gameId)) {\n            existingGame.status = GameStatus.CRITERIA_MET_AWAITING_LOTTERY;\n\n            criteriaMetAwaitingLotteryOnlyTotalCount++;\n\n            awaitingGameCriteriaMetOnlyTotalCount--;\n\n            emit GameAwaitingLotteryEvent(\n                _gameId,\n                existingGame.status,\n                block.timestamp\n            );\n        }\n    }\n\n    function gameMeetsCriteriaToStart(uint256 _gameId)\n        internal\n        view\n        returns (bool)\n    {\n        Game storage existingGame = games[_gameId];\n        return\n            existingGame.eligiblePlayerCount ==\n            existingGame.settings.minGamePlayers;\n    }\n\n    function leaveGame(uint256 _gameId)\n        public\n        gameIsActive()\n        canLeaveGame(_gameId)\n    {\n        Game storage existingGame = games[_gameId];\n        existingGame.status = GameStatus.AWAITING_GAME_CRITERIA_MET;\n\n        PlayerGameEntry storage entry =\n            players[_gameId][_players[_gameId][msg.sender]];\n\n        existingGame.totalGameWagers =\n            existingGame.totalGameWagers -\n            entry.betsize;\n\n        existingGame.eligiblePlayerCount--;\n\n        entry.playerGameStatus = PlayerGameStatus.WITHDREW_FROM_GAME;\n        entry.playerAddress.transfer(entry.betsize);\n\n        emit PlayerLeftGameEvent(_gameId, msg.sender, block.timestamp);\n    }\n\n    function setMinimumAuditGameVet(uint256 _amount) public onlyOwner {}\n\n    function setTreasuryAddress(address _treasury) public onlyOwner {\n        treasury = _treasury;\n    }\n\n    function getPausedMode() public view returns (bool) {\n        return gamePaused;\n    }\n\n    function setPauseModeEnabled() public onlyOwner {\n        gamePaused = true;\n    }\n\n    function setPauseModeDisabled() public onlyOwner {\n        gamePaused = false;\n    }\n\n    function destroy() public onlyOwner {\n        selfdestruct(payable(msg.sender));\n    }\n\n    function setGameWinnerAudit(\n        uint256 gameId,\n        address playerWinner,\n        uint256 auditRecordDrawId\n    )\n        public\n        onlyOwner()\n        isGameInLotteryState(gameId)\n        isAuditGame(gameId)\n        playerIsInGame(gameId, playerWinner)\n    {\n        Game storage existingGame = games[gameId];\n\n        for (uint256 i = 1; i <= existingGame.playerArrayCount; i++) {\n            PlayerGameEntry storage entry = players[gameId][i];\n            if (\n                entry.playerGameStatus ==\n                PlayerGameStatus.PENDING_GAME_COMPLETION &&\n                entry.inCurrentGame\n            ) {\n                if (entry.playerAddress == playerWinner) {\n                    entry.playerGameStatus = PlayerGameStatus.WIN;\n\n                    uint256 houseCommissionWitholdings =\n                        (existingGame.totalGameWagers *\n                            gameHouseRules.houseCommissionPercent) / 100;\n\n                    payable(treasury).transfer(houseCommissionWitholdings);\n\n                    existingGame.winningPayout =\n                        existingGame.totalGameWagers -\n                        houseCommissionWitholdings;\n\n                    entry.playerAddress.transfer(existingGame.winningPayout);\n                } else {\n                    entry.playerGameStatus = PlayerGameStatus.LOSE;\n                }\n            }\n        }\n\n        existingGame.auditRecordDrawId = auditRecordDrawId;\n        existingGame.status = GameStatus.COMPLETE;\n\n        completeGamesOnlyTotalCount++;\n\n        criteriaMetAwaitingLotteryOnlyTotalCount--;\n\n        emit GameCompletedEvent(\n            gameId,\n            playerWinner,\n            block.timestamp,\n            existingGame.winningPayout,\n            ext.txID(),\n            existingGame.auditRecordDrawId\n        );\n    }\n\n    function setGameWinnerNoAudit(uint256 gameId, address playerWinner)\n        public\n        onlyOwner()\n        isGameInLotteryState(gameId)\n        isNoAuditGame(gameId)\n        playerIsInGame(gameId, playerWinner)\n    {\n        Game storage existingGame = games[gameId];\n\n        for (uint256 i = 1; i <= existingGame.playerArrayCount; i++) {\n            PlayerGameEntry storage entry = players[gameId][i];\n            if (\n                entry.playerGameStatus ==\n                PlayerGameStatus.PENDING_GAME_COMPLETION &&\n                entry.inCurrentGame\n            ) {\n                if (entry.playerAddress == playerWinner) {\n                    entry.playerGameStatus = PlayerGameStatus.WIN;\n\n                    uint256 houseCommissionWitholdings =\n                        (existingGame.totalGameWagers *\n                            gameHouseRules.houseCommissionPercent) / 100;\n\n                    payable(treasury).transfer(houseCommissionWitholdings);\n\n                    existingGame.winningPayout =\n                        existingGame.totalGameWagers -\n                        houseCommissionWitholdings;\n\n                    entry.playerAddress.transfer(existingGame.winningPayout);\n                } else {\n                    entry.playerGameStatus = PlayerGameStatus.LOSE;\n                }\n            }\n        }\n\n        existingGame.status = GameStatus.COMPLETE;\n\n        completeGamesOnlyTotalCount++;\n\n        criteriaMetAwaitingLotteryOnlyTotalCount--;\n\n        emit GameCompletedEvent(\n            gameId,\n            playerWinner,\n            block.timestamp,\n            existingGame.winningPayout,\n            ext.txID(),\n            0\n        );\n    }\n\n    function getEligiblePlayersForLotteryByActiveGameId(uint256 id)\n        public\n        view\n        returns (address[] memory playerWallets)\n    {\n        require(gamesTotalCount > 0, \"No games to return\");\n        Game memory thisGame = games[id];\n        //offset for not using first index\n        uint8 offset = 1;\n        uint256 insertIndex = 0;\n        playerWallets = new address[](thisGame.eligiblePlayerCount);\n\n        for (uint256 i = offset; i <= thisGame.playerArrayCount; i++) {\n            PlayerGameEntry memory entry = players[id][i];\n            if (\n                entry.playerGameStatus ==\n                PlayerGameStatus.PENDING_GAME_COMPLETION &&\n                entry.inCurrentGame\n            ) {\n                playerWallets[insertIndex] = entry.playerAddress;\n                insertIndex++;\n            }\n        }\n    }\n\n    function getGameById(uint256 id)\n        public\n        view\n        returns (\n            uint256 gameId,\n            GameStatus gameStatus,\n            uint256 gameTotalWagers,\n            uint256 gameTotalEligiblePlayers,\n            uint256 gameWinningPayout,\n            address gameWinnerAddress,\n            uint8 gcsMinGamePlayers,\n            uint256 gcsGameBetSize,\n            bool gcsIsAuditEnabled\n        )\n    {\n        require(gamesTotalCount > 0, \"No games to return\");\n        Game memory thisGame = games[id];\n\n        gameId = thisGame.id;\n        gameStatus = thisGame.status;\n        gameTotalWagers = thisGame.totalGameWagers;\n        gameTotalEligiblePlayers = thisGame.eligiblePlayerCount;\n        gameWinningPayout = thisGame.winningPayout;\n        gameWinnerAddress = getGameWinnerAddress(id);\n\n        // GameCreatorSettings\n        gcsMinGamePlayers = thisGame.settings.minGamePlayers;\n        gcsGameBetSize = thisGame.settings.gameBetSize;\n        gcsIsAuditEnabled = thisGame.settings.isAuditEnabled;\n    }\n\n    function getGameWinnerAddress(uint256 gameId)\n        public\n        view\n        returns (address gameWinningAddress)\n    {\n        Game memory thisGame = games[gameId];\n\n        if (thisGame.status == GameStatus.COMPLETE) {\n            for (uint256 pi = 1; pi <= thisGame.playerArrayCount; pi++) {\n                PlayerGameEntry memory entry = players[gameId][pi];\n                if (\n                    entry.playerGameStatus == PlayerGameStatus.WIN &&\n                    entry.inCurrentGame\n                ) {\n                    gameWinningAddress = entry.playerAddress;\n                    break;\n                }\n            }\n        }\n    }\n\n    function getGamesByStatus(GameStatus _status)\n        public\n        view\n        returns (\n            uint256[] memory gameIds,\n            GameStatus[] memory gameStatus,\n            uint256[] memory gameTotalWagers,\n            uint256[] memory gameTotalEligiblePlayers,\n            uint256[] memory gameWinningPayout,\n            address[] memory gameWinnerAddress,\n            uint8[] memory gcsMinGamePlayers,\n            uint256[] memory gcsGameBetSize,\n            bool[] memory gcsIsAuditEnabled\n        )\n    {\n        uint256 gamesWithRequestedStatusSize = 0;\n\n        if (_status == GameStatus.COMPLETE) {\n            gamesWithRequestedStatusSize = completeGamesOnlyTotalCount;\n        } else if (_status == GameStatus.AWAITING_GAME_CRITERIA_MET) {\n            gamesWithRequestedStatusSize = awaitingGameCriteriaMetOnlyTotalCount;\n        } else if (_status == GameStatus.CRITERIA_MET_AWAITING_LOTTERY) {\n            gamesWithRequestedStatusSize = criteriaMetAwaitingLotteryOnlyTotalCount;\n        }\n\n        gameIds = new uint256[](gamesWithRequestedStatusSize);\n        gameStatus = new GameStatus[](gamesWithRequestedStatusSize);\n        gameTotalWagers = new uint256[](gamesWithRequestedStatusSize);\n        gameTotalEligiblePlayers = new uint256[](gamesWithRequestedStatusSize);\n        gameWinningPayout = new uint256[](gamesWithRequestedStatusSize);\n        gameWinnerAddress = new address[](gamesWithRequestedStatusSize);\n\n        // GameCreatorSettings\n        gcsMinGamePlayers = new uint8[](gamesWithRequestedStatusSize);\n        gcsGameBetSize = new uint256[](gamesWithRequestedStatusSize);\n        gcsIsAuditEnabled = new bool[](gamesWithRequestedStatusSize);\n\n        uint256 returnIndexPosition = 0;\n        for (uint256 i = 0; i < games.length; i++) {\n            Game memory thisGame = games[i];\n\n            address gameWinningAddress = getGameWinnerAddress(i);\n\n            if (thisGame.status == _status) {\n                gameIds[returnIndexPosition] = thisGame.id;\n                gameStatus[returnIndexPosition] = thisGame.status;\n                gameTotalWagers[returnIndexPosition] = thisGame.totalGameWagers;\n                gameTotalEligiblePlayers[returnIndexPosition] = thisGame\n                    .eligiblePlayerCount;\n                gameWinningPayout[returnIndexPosition] = thisGame.winningPayout;\n                gameWinnerAddress[returnIndexPosition] = gameWinningAddress;\n\n                // GameCreatorSettings\n\n                gcsMinGamePlayers[returnIndexPosition] = thisGame\n                    .settings\n                    .minGamePlayers;\n                gcsGameBetSize[returnIndexPosition] = thisGame\n                    .settings\n                    .gameBetSize;\n                gcsIsAuditEnabled[returnIndexPosition] = thisGame\n                    .settings\n                    .isAuditEnabled;\n                returnIndexPosition++;\n            }\n        }\n    }\n}\n",
  "sourcePath": "/Users/csmith/development/repos/aws/adexr/application/vechain-contracts/contracts/RollItVetMultiPlayerGame.sol",
  "compiler": {
    "name": "solc",
    "version": "0.8.3+commit.8d00100c.Emscripten.clang"
  },
  "schemaVersion": "3.3.4",
  "updatedAt": "2021-05-06T22:18:41.233Z",
  "networkType": "ethereum",
  "devdoc": {
    "kind": "dev",
    "methods": {},
    "version": 1
  },
  "userdoc": {
    "kind": "user",
    "methods": {},
    "version": 1
  }
}