{
  "abi": [
    {
      "inputs": [],
      "stateMutability": "payable",
      "type": "constructor"
    },
    {
      "anonymous": false,
      "inputs": [
        {
          "indexed": true,
          "internalType": "uint256",
          "name": "gameId",
          "type": "uint256"
        },
        {
          "indexed": true,
          "internalType": "enum RollItVetMultiPlayerGame.GameStatus",
          "name": "status",
          "type": "uint8"
        },
        {
          "indexed": true,
          "internalType": "uint256",
          "name": "dateTime",
          "type": "uint256"
        }
      ],
      "name": "GameAwaitingLotteryEvent",
      "type": "event"
    },
    {
      "anonymous": false,
      "inputs": [
        {
          "indexed": true,
          "internalType": "uint256",
          "name": "gameId",
          "type": "uint256"
        },
        {
          "indexed": true,
          "internalType": "address",
          "name": "player",
          "type": "address"
        },
        {
          "indexed": true,
          "internalType": "uint256",
          "name": "dateTime",
          "type": "uint256"
        },
        {
          "indexed": false,
          "internalType": "uint256",
          "name": "winningPayout",
          "type": "uint256"
        },
        {
          "indexed": false,
          "internalType": "bytes32",
          "name": "transactionId",
          "type": "bytes32"
        },
        {
          "indexed": false,
          "internalType": "uint256",
          "name": "auditRecordDrawId",
          "type": "uint256"
        }
      ],
      "name": "GameCompletedEvent",
      "type": "event"
    },
    {
      "anonymous": false,
      "inputs": [
        {
          "indexed": true,
          "internalType": "uint256",
          "name": "gameId",
          "type": "uint256"
        },
        {
          "indexed": true,
          "internalType": "address",
          "name": "player",
          "type": "address"
        },
        {
          "indexed": true,
          "internalType": "uint256",
          "name": "dateTime",
          "type": "uint256"
        }
      ],
      "name": "GameCreatedEvent",
      "type": "event"
    },
    {
      "anonymous": false,
      "inputs": [
        {
          "indexed": true,
          "internalType": "uint256",
          "name": "gameId",
          "type": "uint256"
        },
        {
          "indexed": true,
          "internalType": "address",
          "name": "player",
          "type": "address"
        },
        {
          "indexed": true,
          "internalType": "uint256",
          "name": "dateTime",
          "type": "uint256"
        }
      ],
      "name": "PlayerJoinedGameEvent",
      "type": "event"
    },
    {
      "anonymous": false,
      "inputs": [
        {
          "indexed": true,
          "internalType": "uint256",
          "name": "gameId",
          "type": "uint256"
        },
        {
          "indexed": true,
          "internalType": "address",
          "name": "player",
          "type": "address"
        },
        {
          "indexed": true,
          "internalType": "uint256",
          "name": "dateTime",
          "type": "uint256"
        }
      ],
      "name": "PlayerLeftGameEvent",
      "type": "event"
    },
    {
      "inputs": [],
      "name": "awaitingGameCriteriaMetOnlyTotalCount",
      "outputs": [
        {
          "internalType": "uint256",
          "name": "",
          "type": "uint256"
        }
      ],
      "stateMutability": "view",
      "type": "function"
    },
    {
      "inputs": [],
      "name": "completeGamesOnlyTotalCount",
      "outputs": [
        {
          "internalType": "uint256",
          "name": "",
          "type": "uint256"
        }
      ],
      "stateMutability": "view",
      "type": "function"
    },
    {
      "inputs": [
        {
          "internalType": "uint8",
          "name": "_minGamePlayers",
          "type": "uint8"
        },
        {
          "internalType": "bool",
          "name": "_isAuditEnabled",
          "type": "bool"
        }
      ],
      "name": "createGame",
      "outputs": [],
      "stateMutability": "payable",
      "type": "function"
    },
    {
      "inputs": [],
      "name": "criteriaMetAwaitingLotteryOnlyTotalCount",
      "outputs": [
        {
          "internalType": "uint256",
          "name": "",
          "type": "uint256"
        }
      ],
      "stateMutability": "view",
      "type": "function"
    },
    {
      "inputs": [],
      "name": "destroy",
      "outputs": [],
      "stateMutability": "nonpayable",
      "type": "function"
    },
    {
      "inputs": [],
      "name": "gameHouseRules",
      "outputs": [
        {
          "internalType": "uint8",
          "name": "houseCommissionPercent",
          "type": "uint8"
        },
        {
          "internalType": "uint256",
          "name": "minBetSize",
          "type": "uint256"
        },
        {
          "internalType": "uint8",
          "name": "minGamePlayers",
          "type": "uint8"
        },
        {
          "internalType": "uint256",
          "name": "minimumAuditGameVetAmount",
          "type": "uint256"
        }
      ],
      "stateMutability": "view",
      "type": "function"
    },
    {
      "inputs": [],
      "name": "gamePaused",
      "outputs": [
        {
          "internalType": "bool",
          "name": "",
          "type": "bool"
        }
      ],
      "stateMutability": "view",
      "type": "function"
    },
    {
      "inputs": [],
      "name": "gamesTotalCount",
      "outputs": [
        {
          "internalType": "uint256",
          "name": "",
          "type": "uint256"
        }
      ],
      "stateMutability": "view",
      "type": "function"
    },
    {
      "inputs": [
        {
          "internalType": "uint256",
          "name": "id",
          "type": "uint256"
        }
      ],
      "name": "getEligiblePlayersForLotteryByActiveGameId",
      "outputs": [
        {
          "internalType": "address[]",
          "name": "playerWallets",
          "type": "address[]"
        }
      ],
      "stateMutability": "view",
      "type": "function"
    },
    {
      "inputs": [
        {
          "internalType": "uint256",
          "name": "id",
          "type": "uint256"
        }
      ],
      "name": "getGameById",
      "outputs": [
        {
          "internalType": "uint256",
          "name": "gameId",
          "type": "uint256"
        },
        {
          "internalType": "enum RollItVetMultiPlayerGame.GameStatus",
          "name": "gameStatus",
          "type": "uint8"
        },
        {
          "internalType": "uint256",
          "name": "gameTotalWagers",
          "type": "uint256"
        },
        {
          "internalType": "uint256",
          "name": "gameTotalEligiblePlayers",
          "type": "uint256"
        },
        {
          "internalType": "uint256",
          "name": "gameWinningPayout",
          "type": "uint256"
        },
        {
          "internalType": "address",
          "name": "gameWinnerAddress",
          "type": "address"
        },
        {
          "internalType": "uint8",
          "name": "gcsMinGamePlayers",
          "type": "uint8"
        },
        {
          "internalType": "uint256",
          "name": "gcsGameBetSize",
          "type": "uint256"
        },
        {
          "internalType": "bool",
          "name": "gcsIsAuditEnabled",
          "type": "bool"
        }
      ],
      "stateMutability": "view",
      "type": "function"
    },
    {
      "inputs": [
        {
          "internalType": "uint256",
          "name": "gameId",
          "type": "uint256"
        }
      ],
      "name": "getGameWinnerAddress",
      "outputs": [
        {
          "internalType": "address",
          "name": "gameWinningAddress",
          "type": "address"
        }
      ],
      "stateMutability": "view",
      "type": "function"
    },
    {
      "inputs": [
        {
          "internalType": "enum RollItVetMultiPlayerGame.GameStatus",
          "name": "_status",
          "type": "uint8"
        }
      ],
      "name": "getGamesByStatus",
      "outputs": [
        {
          "internalType": "uint256[]",
          "name": "gameIds",
          "type": "uint256[]"
        },
        {
          "internalType": "enum RollItVetMultiPlayerGame.GameStatus[]",
          "name": "gameStatus",
          "type": "uint8[]"
        },
        {
          "internalType": "uint256[]",
          "name": "gameTotalWagers",
          "type": "uint256[]"
        },
        {
          "internalType": "uint256[]",
          "name": "gameTotalEligiblePlayers",
          "type": "uint256[]"
        },
        {
          "internalType": "uint256[]",
          "name": "gameWinningPayout",
          "type": "uint256[]"
        },
        {
          "internalType": "address[]",
          "name": "gameWinnerAddress",
          "type": "address[]"
        },
        {
          "internalType": "uint8[]",
          "name": "gcsMinGamePlayers",
          "type": "uint8[]"
        },
        {
          "internalType": "uint256[]",
          "name": "gcsGameBetSize",
          "type": "uint256[]"
        },
        {
          "internalType": "bool[]",
          "name": "gcsIsAuditEnabled",
          "type": "bool[]"
        }
      ],
      "stateMutability": "view",
      "type": "function"
    },
    {
      "inputs": [],
      "name": "getPausedMode",
      "outputs": [
        {
          "internalType": "bool",
          "name": "",
          "type": "bool"
        }
      ],
      "stateMutability": "view",
      "type": "function"
    },
    {
      "inputs": [
        {
          "internalType": "uint256",
          "name": "_gameId",
          "type": "uint256"
        }
      ],
      "name": "joinExistingGame",
      "outputs": [],
      "stateMutability": "payable",
      "type": "function"
    },
    {
      "inputs": [
        {
          "internalType": "uint256",
          "name": "_gameId",
          "type": "uint256"
        }
      ],
      "name": "leaveGame",
      "outputs": [],
      "stateMutability": "nonpayable",
      "type": "function"
    },
    {
      "inputs": [
        {
          "internalType": "uint256",
          "name": "gameId",
          "type": "uint256"
        },
        {
          "internalType": "address",
          "name": "playerWinner",
          "type": "address"
        },
        {
          "internalType": "uint256",
          "name": "auditRecordDrawId",
          "type": "uint256"
        }
      ],
      "name": "setGameWinnerAudit",
      "outputs": [],
      "stateMutability": "nonpayable",
      "type": "function"
    },
    {
      "inputs": [
        {
          "internalType": "uint256",
          "name": "gameId",
          "type": "uint256"
        },
        {
          "internalType": "address",
          "name": "playerWinner",
          "type": "address"
        }
      ],
      "name": "setGameWinnerNoAudit",
      "outputs": [],
      "stateMutability": "nonpayable",
      "type": "function"
    },
    {
      "inputs": [
        {
          "internalType": "uint256",
          "name": "_amount",
          "type": "uint256"
        }
      ],
      "name": "setMinimumAuditGameVet",
      "outputs": [],
      "stateMutability": "nonpayable",
      "type": "function"
    },
    {
      "inputs": [],
      "name": "setPauseModeDisabled",
      "outputs": [],
      "stateMutability": "nonpayable",
      "type": "function"
    },
    {
      "inputs": [],
      "name": "setPauseModeEnabled",
      "outputs": [],
      "stateMutability": "nonpayable",
      "type": "function"
    },
    {
      "inputs": [
        {
          "internalType": "address",
          "name": "_treasury",
          "type": "address"
        }
      ],
      "name": "setTreasuryAddress",
      "outputs": [],
      "stateMutability": "nonpayable",
      "type": "function"
    }
  ],
  "bytecode": "600280546001600160a01b031990811668457874656e73696f6e9081178355600380548316909117815560008054831633908117825560018054909416179092556009829055600a829055600b829055600c919091556101006040526080819052670de0b6b3a764000060a081905260c08390526801a055690d9db8000060e08190526004805460ff199081169094179055600591909155600680549092169092179055600755612c36806100b56000396000f3fe60806040526004361061012a5760003560e01c806383197ef0116100ab578063bbc6f1341161006f578063bbc6f13414610361578063c3de1ab914610396578063c552c595146103b7578063da6c56d5146103d7578063dbcf9786146103ed578063f1bc6ef11461040357600080fd5b806383197ef0146102f15780638484775e146103065780638c6b0a9514610319578063a6e3b74e1461032c578063af7fe12c1461034157600080fd5b806350b14ca7116100f257806350b14ca71461023f578063557174681461026a5780636605bfda1461028e5780637f68ca7e146102ae5780638276f91b146102db57600080fd5b8063096605131461012f5780631393bf651461016d5780633feef58a146101c5578063459d838c146101e75780634d8c451b1461021f575b600080fd5b34801561013b57600080fd5b5061014f61014a3660046125d4565b610418565b60405161016499989796959493929190612625565b60405180910390f35b34801561017957600080fd5b506004546005546006546007546101969360ff9081169392169084565b604051610164949392919060ff9485168152602081019390935292166040820152606081019190915260800190565b3480156101d157600080fd5b506101e56101e03660046125d4565b6105d0565b005b3480156101f357600080fd5b506102076102023660046125d4565b610857565b6040516001600160a01b039091168152602001610164565b34801561022b57600080fd5b506101e561023a3660046125d4565b610a42565b34801561024b57600080fd5b50600154600160a01b900460ff165b6040519015158152602001610164565b34801561027657600080fd5b50610280600a5481565b604051908152602001610164565b34801561029a57600080fd5b506101e56102a936600461269b565b610a6f565b3480156102ba57600080fd5b506102ce6102c93660046125d4565b610abb565b6040516101649190612701565b3480156102e757600080fd5b5061028060095481565b3480156102fd57600080fd5b506101e5610d5a565b6101e56103143660046125d4565b610d87565b6101e5610327366004612714565b61129f565b34801561033857600080fd5b506101e5611680565b34801561034d57600080fd5b506101e561035c366004612758565b6116b9565b34801561036d57600080fd5b5061038161037c366004612784565b611b1c565b6040516101649998979695949392919061283a565b3480156103a257600080fd5b5060015461025a90600160a01b900460ff1681565b3480156103c357600080fd5b506101e56103d236600461292e565b6120ea565b3480156103e357600080fd5b50610280600b5481565b3480156103f957600080fd5b50610280600c5481565b34801561040f57600080fd5b506101e5612557565b600080600080600080600080600080600954116104715760405162461bcd60e51b815260206004820152601260248201527127379033b0b6b2b9903a37903932ba3ab93760711b60448201526064015b60405180910390fd5b600060088b8154811061048657610486612963565b90600052602060002090600b020160405180610100016040529081600082015481526020016001820160009054906101000a900460ff1660028111156104ce576104ce6125ed565b60028111156104df576104df6125ed565b8152602001600282016040518060800160405290816000820160009054906101000a900460ff1660ff1660ff16815260200160018201548152602001600282015481526020016003820160009054906101000a900460ff161515151581525050815260200160068201548152602001600782015481526020016008820154815260200160098201548152602001600a82015481525050905080600001519950806020015198508060a0015197508060e001519650806080015195506105a38b610857565b604090910151805160208201516060909201519b9d9a9c50989a9799969891979196909550909350915050565b60018054600160a01b900460ff16151514156105fe5760405162461bcd60e51b815260040161046890612979565b6000818152600e60209081526040808320600d835281842033855283528184205484529091529020600201548190610100900460ff166106975760405162461bcd60e51b815260206004820152602e60248201527f506c61796572206973206e6f7420666f756e642070617274696369706174696e60448201526d6720696e20746869732067616d6560901b6064820152608401610468565b6001600882815481106106ac576106ac612963565b600091825260209091206001600b90920201015460ff1660028111156106d4576106d46125ed565b146107475760405162461bcd60e51b815260206004820152603960248201527f47616d65206973206e6f206c6f6e67657220696e20746865206177616974696e60448201527f672067616d65206372697465726961206d6574207068617365000000000000006064820152608401610468565b60006008838154811061075c5761075c612963565b600091825260208083206001600b9390930201828101805460ff191684179055868452600e82526040808520600d84528186203387528452818620548652909252922090810154600883015492935090916107b791906129d4565b6008830155600a820180549060006107ce836129eb565b909155505060028101805460ff191660019081179091558154908201546040516001600160a01b03909216916108fc82150291906000818181858888f19350505050158015610821573d6000803e3d6000fd5b506040514290339086907f4125f5aa3824dbb516a4c4581f08927e3df29fe2ccf01c7ad86bdf64d9fd9c7490600090a450505050565b6000806008838154811061086d5761086d612963565b90600052602060002090600b020160405180610100016040529081600082015481526020016001820160009054906101000a900460ff1660028111156108b5576108b56125ed565b60028111156108c6576108c66125ed565b81526040805160808082018352600285015460ff908116835260038601546020848101919091526004870154848601526005870154909116151560608085019190915290850192909252600685015492840192909252600784015490830152600883015490820152600982015460a0820152600a9091015460c090910152905060008160200151600281111561095e5761095e6125ed565b1415610a3c5760015b8160c001518111610a3a576000848152600e602090815260408083208484528252808320815160808101835281546001600160a01b031681526001820154938101939093526002810154909183019060ff1660038111156109ca576109ca6125ed565b60038111156109db576109db6125ed565b8152600291820154610100900460ff16151560209091015290915081604001516003811115610a0c57610a0c6125ed565b148015610a1a575080606001515b15610a2757519250610a3a565b5080610a3281612a02565b915050610967565b505b50919050565b6000546001600160a01b03163314610a6c5760405162461bcd60e51b815260040161046890612a1d565b50565b6000546001600160a01b03163314610a995760405162461bcd60e51b815260040161046890612a1d565b600180546001600160a01b0319166001600160a01b0392909216919091179055565b6060600060095411610b045760405162461bcd60e51b815260206004820152601260248201527127379033b0b6b2b9903a37903932ba3ab93760711b6044820152606401610468565b600060088381548110610b1957610b19612963565b90600052602060002090600b020160405180610100016040529081600082015481526020016001820160009054906101000a900460ff166002811115610b6157610b616125ed565b6002811115610b7257610b726125ed565b81526040805160808082018352600285015460ff908116835260038601546020848101919091526004870154848601526005870154909116151560608085019190915290850192909252600685015492840192909252600784015490830152600883015490820152600982015460a0820152600a9091015460c09091015260e081015190915060019060009067ffffffffffffffff811115610c1657610c16612a5f565b604051908082528060200260200182016040528015610c3f578160200160208202803683370190505b50935060ff82165b8360c001518111610d51576000868152600e602090815260408083208484528252808320815160808101835281546001600160a01b031681526001820154938101939093526002810154909183019060ff166003811115610caa57610caa6125ed565b6003811115610cbb57610cbb6125ed565b815260029190910154610100900460ff1615156020909101529050600081604001516003811115610cee57610cee6125ed565b148015610cfc575080606001515b15610d3e578060000151868481518110610d1857610d18612963565b6001600160a01b039092166020928302919091019091015282610d3a81612a02565b9350505b5080610d4981612a02565b915050610c47565b50505050919050565b6000546001600160a01b03163314610d845760405162461bcd60e51b815260040161046890612a1d565b33ff5b60018054600160a01b900460ff1615151415610db55760405162461bcd60e51b815260040161046890612979565b8033610dd35760405162461bcd60e51b815260040161046890612a75565b60088181548110610de657610de6612963565b90600052602060002090600b0201600201600101543414610e645760405162461bcd60e51b815260206004820152603260248201527f4265742073697a6520646f6573206e6f74206d61746368207468652067616d656044820152712063726561746f7273206265742073697a6560701b6064820152608401610468565b600160088281548110610e7957610e79612963565b600091825260209091206001600b90920201015460ff166002811115610ea157610ea16125ed565b14610f065760405162461bcd60e51b815260206004820152602f60248201527f47616d65206973206e6f7420696e20746865206177616974696e67206372697460448201526e6965726961206d657420737461746560881b6064820152608401610468565b600554341015610f285760405162461bcd60e51b815260040161046890612ab9565b6000818152600d60209081526040808320338452909152902054158015610f8057506000818152600e60209081526040808320600d83528184203385528352818420548452909152902060020154610100900460ff16155b6110045760405162461bcd60e51b815260206004820152604960248201527f506c61796572206973206f72207761732070617274696369706174696e67206960448201527f6e207468652063757272656e742067616d652e204e6f7420656c696769626c65606482015268103a37903537b4b71760b91b608482015260a401610468565b6008818154811061101757611017612963565b600091825260209091206002600b9092020101546008805460ff909216918390811061104557611045612963565b90600052602060002090600b0201600a0154106110a45760405162461bcd60e51b815260206004820152601a60248201527f47616d65206973206174206d6178696d756d20706c61796572730000000000006044820152606401610468565b6000600883815481106110b9576110b9612963565b90600052602060002090600b020190508060090160008154809291906110de90612a02565b9091555050600a810180549060006110f583612a02565b909155505060098101546000848152600d60209081526040808320338085529083528184208590558151608081018352908152348184019081528183018581526001606084018190528a8752600e86528487209787529690945291909320835181546001600160a01b0319166001600160a01b039091161781559051818501559051600282018054939492939192909160ff19169083600381111561119c5761119c6125ed565b021790555060608201518160020160016101000a81548160ff021916908315150217905550905050348160080160008282546111d89190612b00565b90915550506040514290339085907faf826dfc28710e789b457fdaf15b1d85f98319d34d1af1a3760eb0ef295912cd90600090a461121583612596565b1561129a5760018101805460ff19166002179055600c805490600061123983612a02565b9091555050600b805490600061124e836129eb565b90915550506001810154429060ff16600281111561126e5761126e6125ed565b60405185907f240b850a10f1b58d9f3376d536170b73eea08130f87b89e1d3c7d2b84666585e90600090a45b505050565b60018054600160a01b900460ff16151514156112cd5760405162461bcd60e51b815260040161046890612979565b818134336112ed5760405162461bcd60e51b815260040161046890612a75565b60055434101561130f5760405162461bcd60e51b815260040161046890612ab9565b60065460ff90811690841610156113855760405162461bcd60e51b815260206004820152603460248201527f47616d6520706c61796572732073686f756c642062652061626f76652074686560448201527320686f7573652072756c65732073657474696e6760601b6064820152608401610468565b81801561139f575060075461139d8260ff8616612b18565b115b806113a8575081155b6113e15760405162461bcd60e51b815260206004820152600a60248201526941756469742067616d6560b01b6044820152606401610468565b604080516101008101825260095481526001602080830182815284516080808201875260ff8c1682523493820184905242828801528a1515606080840191909152968601919091526000958501869052840185905260a084019190915260c0830182905260e0830182905260088054808401825594528251600b9094027ff3f7a9fe364faab93b216da50a3214154f22a0a2b415b23a84c8169e8b636ee3810194855590517ff3f7a9fe364faab93b216da50a3214154f22a0a2b415b23a84c8169e8b636ee4909101805493948594909360ff19909116908360028111156114cb576114cb6125ed565b0217905550604082810151805160028401805460ff90921660ff1992831617905560208083015160038601558284015160048601556060928301516005860180549115159190931617909155908401516006840155608080850151600785015560a0850151600885015560c080860151600986015560e090950151600a909401939093559284015184516000908152600d8552828120338083529086528382209290925582519384018352908352349383019390935290919082019081526001602091820181905283516000908152600e8352604080822060c08701518352845290819020845181546001600160a01b0319166001600160a01b0390911617815592840151838301558301516002830180549192909160ff1916908360038111156115f8576115f86125ed565b021790555060609190910151600290910180549115156101000261ff00199092169190911790556009805490600061162f83612a02565b9091555050600b805490600061164483612a02565b90915550508051604051429133917f055c5881ecddd2b670014114d0806730877835ac63b0299a9270f81b00bff67290600090a4505050505050565b6000546001600160a01b031633146116aa5760405162461bcd60e51b815260040161046890612a1d565b6001805460ff60a01b19169055565b6000546001600160a01b031633146116e35760405162461bcd60e51b815260040161046890612a1d565b816002600882815481106116f9576116f9612963565b600091825260209091206001600b90920201015460ff166002811115611721576117216125ed565b1461173e5760405162461bcd60e51b815260040161046890612b37565b826008818154811061175257611752612963565b600091825260209091206005600b90920201015460ff16156117dc5760405162461bcd60e51b815260206004820152603960248201527f47616d652063726561746f722073657474696e67732067616d6520686173207260448201527f616e646f6d2e6f7267206175646974732064697361626c6564000000000000006064820152608401610468565b8383336117fb5760405162461bcd60e51b815260040161046890612a75565b6000828152600d602090815260408083206001600160a01b03851684529091529020541580159061186557506000828152600e60209081526040808320600d83528184206001600160a01b03861685528352818420548452909152902060020154610100900460ff165b6118815760405162461bcd60e51b815260040161046890612b84565b60006008878154811061189657611896612963565b90600052602060002090600b020190506000600190505b81600901548111611a04576000888152600e60209081526040808320848452909152812090600282015460ff1660038111156118eb576118eb6125ed565b14801561190157506002810154610100900460ff165b156119f15780546001600160a01b03898116911614156119e1576002818101805460ff1916909117905560045460088401546000916064916119469160ff1690612b18565b6119509190612bc5565b6001546040519192506001600160a01b03169082156108fc029083906000818181858888f1935050505015801561198b573d6000803e3d6000fd5b5080846008015461199c91906129d4565b6007850181905582546040516001600160a01b039091169180156108fc02916000818181858888f193505050501580156119da573d6000803e3d6000fd5b50506119f1565b60028101805460ff191660031790555b50806119fc81612a02565b9150506118ad565b5060018101805460ff19169055600a8054906000611a2183612a02565b9091555050600c8054906000611a36836129eb565b919050555042866001600160a01b0316887f67fc67140014bfc59b02b27efc3c6505ac26d8ddfaee33449d5163b657ec4e738460070154600360009054906101000a90046001600160a01b03166001600160a01b0316639ac53dbb6040518163ffffffff1660e01b815260040160206040518083038186803b158015611abb57600080fd5b505afa158015611acf573d6000803e3d6000fd5b505050506040513d601f19601f82011682018060405250810190611af39190612be7565b60408051928352602083019190915260009082015260600160405180910390a450505050505050565b606080808080808080806000808b6002811115611b3b57611b3b6125ed565b1415611b4a5750600a54611b8c565b60018b6002811115611b5e57611b5e6125ed565b1415611b6d5750600b54611b8c565b60028b6002811115611b8157611b816125ed565b1415611b8c5750600c545b8067ffffffffffffffff811115611ba557611ba5612a5f565b604051908082528060200260200182016040528015611bce578160200160208202803683370190505b5099508067ffffffffffffffff811115611bea57611bea612a5f565b604051908082528060200260200182016040528015611c13578160200160208202803683370190505b5098508067ffffffffffffffff811115611c2f57611c2f612a5f565b604051908082528060200260200182016040528015611c58578160200160208202803683370190505b5097508067ffffffffffffffff811115611c7457611c74612a5f565b604051908082528060200260200182016040528015611c9d578160200160208202803683370190505b5096508067ffffffffffffffff811115611cb957611cb9612a5f565b604051908082528060200260200182016040528015611ce2578160200160208202803683370190505b5095508067ffffffffffffffff811115611cfe57611cfe612a5f565b604051908082528060200260200182016040528015611d27578160200160208202803683370190505b5094508067ffffffffffffffff811115611d4357611d43612a5f565b604051908082528060200260200182016040528015611d6c578160200160208202803683370190505b5093508067ffffffffffffffff811115611d8857611d88612a5f565b604051908082528060200260200182016040528015611db1578160200160208202803683370190505b5092508067ffffffffffffffff811115611dcd57611dcd612a5f565b604051908082528060200260200182016040528015611df6578160200160208202803683370190505b5091506000805b6008548110156120da57600060088281548110611e1c57611e1c612963565b90600052602060002090600b020160405180610100016040529081600082015481526020016001820160009054906101000a900460ff166002811115611e6457611e646125ed565b6002811115611e7557611e756125ed565b81526040805160808082018352600285015460ff908116835260038601546020848101919091526004870154848601526005870154909116151560608085019190915290850192909252600685015492840192909252600784015490830152600883015490820152600982015460a0820152600a9091015460c09091015290506000611f0083610857565b90508e6002811115611f1457611f146125ed565b82602001516002811115611f2a57611f2a6125ed565b14156120c55781600001518e8581518110611f4757611f47612963565b60200260200101818152505081602001518d8581518110611f6a57611f6a612963565b60200260200101906002811115611f8357611f836125ed565b90816002811115611f9657611f966125ed565b815250508160a001518c8581518110611fb157611fb1612963565b6020026020010181815250508160e001518b8581518110611fd457611fd4612963565b60200260200101818152505081608001518a8581518110611ff757611ff7612963565b6020026020010181815250508089858151811061201657612016612963565b60200260200101906001600160a01b031690816001600160a01b03168152505081604001516000015188858151811061205157612051612963565b602002602001019060ff16908160ff168152505081604001516020015187858151811061208057612080612963565b6020026020010181815250508160400151606001518685815181106120a7576120a7612963565b91151560209283029190910190910152836120c181612a02565b9450505b505080806120d290612a02565b915050611dfd565b5050509193959799909294969850565b6000546001600160a01b031633146121145760405162461bcd60e51b815260040161046890612a1d565b8260026008828154811061212a5761212a612963565b600091825260209091206001600b90920201015460ff166002811115612152576121526125ed565b1461216f5760405162461bcd60e51b815260040161046890612b37565b836008818154811061218357612183612963565b600091825260209091206005600b90920201015460ff1661220c5760405162461bcd60e51b815260206004820152603860248201527f47616d652063726561746f722073657474696e67732067616d6520686173207260448201527f616e646f6d2e6f72672061756469747320656e61626c656400000000000000006064820152608401610468565b84843361222b5760405162461bcd60e51b815260040161046890612a75565b6000828152600d602090815260408083206001600160a01b03851684529091529020541580159061229557506000828152600e60209081526040808320600d83528184206001600160a01b03861685528352818420548452909152902060020154610100900460ff165b6122b15760405162461bcd60e51b815260040161046890612b84565b6000600888815481106122c6576122c6612963565b90600052602060002090600b020190506000600190505b81600901548111612434576000898152600e60209081526040808320848452909152812090600282015460ff16600381111561231b5761231b6125ed565b14801561233157506002810154610100900460ff165b156124215780546001600160a01b038a811691161415612411576002818101805460ff1916909117905560045460088401546000916064916123769160ff1690612b18565b6123809190612bc5565b6001546040519192506001600160a01b03169082156108fc029083906000818181858888f193505050501580156123bb573d6000803e3d6000fd5b508084600801546123cc91906129d4565b6007850181905582546040516001600160a01b039091169180156108fc02916000818181858888f1935050505015801561240a573d6000803e3d6000fd5b5050612421565b60028101805460ff191660031790555b508061242c81612a02565b9150506122dd565b506006810186905560018101805460ff19169055600a805490600061245883612a02565b9091555050600c805490600061246d836129eb565b919050555042876001600160a01b0316897f67fc67140014bfc59b02b27efc3c6505ac26d8ddfaee33449d5163b657ec4e738460070154600360009054906101000a90046001600160a01b03166001600160a01b0316639ac53dbb6040518163ffffffff1660e01b815260040160206040518083038186803b1580156124f257600080fd5b505afa158015612506573d6000803e3d6000fd5b505050506040513d601f19601f8201168201806040525081019061252a9190612be7565b60068701546040805193845260208401929092529082015260600160405180910390a45050505050505050565b6000546001600160a01b031633146125815760405162461bcd60e51b815260040161046890612a1d565b6001805460ff60a01b1916600160a01b179055565b600080600883815481106125ac576125ac612963565b60009182526020909120600b909102016002810154600a9091015460ff909116149392505050565b6000602082840312156125e657600080fd5b5035919050565b634e487b7160e01b600052602160045260246000fd5b6003811061262157634e487b7160e01b600052602160045260246000fd5b9052565b898152610120810161263a602083018b612603565b6040820198909852606081019690965260808601949094526001600160a01b039290921660a085015260ff1660c084015260e083015215156101009091015292915050565b80356001600160a01b038116811461269657600080fd5b919050565b6000602082840312156126ad57600080fd5b6126b68261267f565b9392505050565b600081518084526020808501945080840160005b838110156126f65781516001600160a01b0316875295820195908201906001016126d1565b509495945050505050565b6020815260006126b660208301846126bd565b6000806040838503121561272757600080fd5b823560ff8116811461273857600080fd5b91506020830135801515811461274d57600080fd5b809150509250929050565b6000806040838503121561276b57600080fd5b8235915061277b6020840161267f565b90509250929050565b60006020828403121561279657600080fd5b8135600381106126b657600080fd5b600081518084526020808501945080840160005b838110156126f6578151875295820195908201906001016127b9565b600081518084526020808501945080840160005b838110156126f657815160ff16875295820195908201906001016127e9565b600081518084526020808501945080840160005b838110156126f657815115158752958201959082019060010161281c565b600061012080835261284e8184018d6127a5565b9050602083820381850152818c518084528284019150828e01935060005b8181101561288f5761287f838651612603565b938301939183019160010161286c565b505084810360408601526128a3818d6127a5565b9250505082810360608401526128b9818a6127a5565b905082810360808401526128cd81896127a5565b905082810360a08401526128e181886126bd565b905082810360c08401526128f581876127d5565b905082810360e084015261290981866127a5565b905082810361010084015261291e8185612808565b9c9b505050505050505050505050565b60008060006060848603121561294357600080fd5b833592506129536020850161267f565b9150604084013590509250925092565b634e487b7160e01b600052603260045260246000fd5b60208082526025908201527f47616d652069732063757272656e746c7920696e207468652070617573656420604082015264737461746560d81b606082015260800190565b634e487b7160e01b600052601160045260246000fd5b6000828210156129e6576129e66129be565b500390565b6000816129fa576129fa6129be565b506000190190565b6000600019821415612a1657612a166129be565b5060010190565b60208082526022908201527f4f6e6c79206f776e65722063616e2063616c6c20746869732066756e6374696f604082015261371760f11b606082015260800190565b634e487b7160e01b600052604160045260246000fd5b60208082526024908201527f43616c6c6572206973206e6f7420612076616c69642077616c6c6574206164646040820152637265737360e01b606082015260800190565b60208082526027908201527f56616c7565206973206e6f742061626f766520746865206d696e696d756d206260408201526665742073697a6560c81b606082015260800190565b60008219821115612b1357612b136129be565b500190565b6000816000190483118215151615612b3257612b326129be565b500290565b6020808252602d908201527f47616d65206973206e6f7420696e20746865206177616974696e6720666f722060408201526c6c6f747465727920737461746560981b606082015260800190565b60208082526021908201527f506c61796572206973206e6f7420696e207468652063757272656e742067616d6040820152606560f81b606082015260800190565b600082612be257634e487b7160e01b600052601260045260246000fd5b500490565b600060208284031215612bf957600080fd5b505191905056fea26469706673582212203b8c83ab0a0a18b42be362c9889685e2d17c5026ef3e64de12301c84a473b83564736f6c63430008090033",
  "bytecodeSha1": "3f7ed70837b6f2ff837c7fa278dd96335fbeb1ba",
  "compiler": {
    "evm_version": "istanbul",
    "optimizer": {
      "enabled": true,
      "runs": 200
    },
    "version": "0.8.9+commit.e5eed63a"
  },
  "contractName": "RollItVetMultiPlayerGame",
  "language": "Solidity",
  "natspec": {
    "kind": "dev",
    "methods": {},
    "version": 1
  },
  "opcodes": "PUSH1 0x80 PUSH1 0x40 MSTORE PUSH1 0x4 CALLDATASIZE LT PUSH2 0x12A JUMPI PUSH1 0x0 CALLDATALOAD PUSH1 0xE0 SHR DUP1 PUSH4 0x83197EF0 GT PUSH2 0xAB JUMPI DUP1 PUSH4 0xBBC6F134 GT PUSH2 0x6F JUMPI DUP1 PUSH4 0xBBC6F134 EQ PUSH2 0x361 JUMPI DUP1 PUSH4 0xC3DE1AB9 EQ PUSH2 0x396 JUMPI DUP1 PUSH4 0xC552C595 EQ PUSH2 0x3B7 JUMPI DUP1 PUSH4 0xDA6C56D5 EQ PUSH2 0x3D7 JUMPI DUP1 PUSH4 0xDBCF9786 EQ PUSH2 0x3ED JUMPI DUP1 PUSH4 0xF1BC6EF1 EQ PUSH2 0x403 JUMPI PUSH1 0x0 DUP1 REVERT JUMPDEST DUP1 PUSH4 0x83197EF0 EQ PUSH2 0x2F1 JUMPI DUP1 PUSH4 0x8484775E EQ PUSH2 0x306 JUMPI DUP1 PUSH4 0x8C6B0A95 EQ PUSH2 0x319 JUMPI DUP1 PUSH4 0xA6E3B74E EQ PUSH2 0x32C JUMPI DUP1 PUSH4 0xAF7FE12C EQ PUSH2 0x341 JUMPI PUSH1 0x0 DUP1 REVERT JUMPDEST DUP1 PUSH4 0x50B14CA7 GT PUSH2 0xF2 JUMPI DUP1 PUSH4 0x50B14CA7 EQ PUSH2 0x23F JUMPI DUP1 PUSH4 0x55717468 EQ PUSH2 0x26A JUMPI DUP1 PUSH4 0x6605BFDA EQ PUSH2 0x28E JUMPI DUP1 PUSH4 0x7F68CA7E EQ PUSH2 0x2AE JUMPI DUP1 PUSH4 0x8276F91B EQ PUSH2 0x2DB JUMPI PUSH1 0x0 DUP1 REVERT JUMPDEST DUP1 PUSH4 0x9660513 EQ PUSH2 0x12F JUMPI DUP1 PUSH4 0x1393BF65 EQ PUSH2 0x16D JUMPI DUP1 PUSH4 0x3FEEF58A EQ PUSH2 0x1C5 JUMPI DUP1 PUSH4 0x459D838C EQ PUSH2 0x1E7 JUMPI DUP1 PUSH4 0x4D8C451B EQ PUSH2 0x21F JUMPI JUMPDEST PUSH1 0x0 DUP1 REVERT JUMPDEST CALLVALUE DUP1 ISZERO PUSH2 0x13B JUMPI PUSH1 0x0 DUP1 REVERT JUMPDEST POP PUSH2 0x14F PUSH2 0x14A CALLDATASIZE PUSH1 0x4 PUSH2 0x25D4 JUMP JUMPDEST PUSH2 0x418 JUMP JUMPDEST PUSH1 0x40 MLOAD PUSH2 0x164 SWAP10 SWAP9 SWAP8 SWAP7 SWAP6 SWAP5 SWAP4 SWAP3 SWAP2 SWAP1 PUSH2 0x2625 JUMP JUMPDEST PUSH1 0x40 MLOAD DUP1 SWAP2 SUB SWAP1 RETURN JUMPDEST CALLVALUE DUP1 ISZERO PUSH2 0x179 JUMPI PUSH1 0x0 DUP1 REVERT JUMPDEST POP PUSH1 0x4 SLOAD PUSH1 0x5 SLOAD PUSH1 0x6 SLOAD PUSH1 0x7 SLOAD PUSH2 0x196 SWAP4 PUSH1 0xFF SWAP1 DUP2 AND SWAP4 SWAP3 AND SWAP1 DUP5 JUMP JUMPDEST PUSH1 0x40 MLOAD PUSH2 0x164 SWAP5 SWAP4 SWAP3 SWAP2 SWAP1 PUSH1 0xFF SWAP5 DUP6 AND DUP2 MSTORE PUSH1 0x20 DUP2 ADD SWAP4 SWAP1 SWAP4 MSTORE SWAP3 AND PUSH1 0x40 DUP3 ADD MSTORE PUSH1 0x60 DUP2 ADD SWAP2 SWAP1 SWAP2 MSTORE PUSH1 0x80 ADD SWAP1 JUMP JUMPDEST CALLVALUE DUP1 ISZERO PUSH2 0x1D1 JUMPI PUSH1 0x0 DUP1 REVERT JUMPDEST POP PUSH2 0x1E5 PUSH2 0x1E0 CALLDATASIZE PUSH1 0x4 PUSH2 0x25D4 JUMP JUMPDEST PUSH2 0x5D0 JUMP JUMPDEST STOP JUMPDEST CALLVALUE DUP1 ISZERO PUSH2 0x1F3 JUMPI PUSH1 0x0 DUP1 REVERT JUMPDEST POP PUSH2 0x207 PUSH2 0x202 CALLDATASIZE PUSH1 0x4 PUSH2 0x25D4 JUMP JUMPDEST PUSH2 0x857 JUMP JUMPDEST PUSH1 0x40 MLOAD PUSH1 0x1 PUSH1 0x1 PUSH1 0xA0 SHL SUB SWAP1 SWAP2 AND DUP2 MSTORE PUSH1 0x20 ADD PUSH2 0x164 JUMP JUMPDEST CALLVALUE DUP1 ISZERO PUSH2 0x22B JUMPI PUSH1 0x0 DUP1 REVERT JUMPDEST POP PUSH2 0x1E5 PUSH2 0x23A CALLDATASIZE PUSH1 0x4 PUSH2 0x25D4 JUMP JUMPDEST PUSH2 0xA42 JUMP JUMPDEST CALLVALUE DUP1 ISZERO PUSH2 0x24B JUMPI PUSH1 0x0 DUP1 REVERT JUMPDEST POP PUSH1 0x1 SLOAD PUSH1 0x1 PUSH1 0xA0 SHL SWAP1 DIV PUSH1 0xFF AND JUMPDEST PUSH1 0x40 MLOAD SWAP1 ISZERO ISZERO DUP2 MSTORE PUSH1 0x20 ADD PUSH2 0x164 JUMP JUMPDEST CALLVALUE DUP1 ISZERO PUSH2 0x276 JUMPI PUSH1 0x0 DUP1 REVERT JUMPDEST POP PUSH2 0x280 PUSH1 0xA SLOAD DUP2 JUMP JUMPDEST PUSH1 0x40 MLOAD SWAP1 DUP2 MSTORE PUSH1 0x20 ADD PUSH2 0x164 JUMP JUMPDEST CALLVALUE DUP1 ISZERO PUSH2 0x29A JUMPI PUSH1 0x0 DUP1 REVERT JUMPDEST POP PUSH2 0x1E5 PUSH2 0x2A9 CALLDATASIZE PUSH1 0x4 PUSH2 0x269B JUMP JUMPDEST PUSH2 0xA6F JUMP JUMPDEST CALLVALUE DUP1 ISZERO PUSH2 0x2BA JUMPI PUSH1 0x0 DUP1 REVERT JUMPDEST POP PUSH2 0x2CE PUSH2 0x2C9 CALLDATASIZE PUSH1 0x4 PUSH2 0x25D4 JUMP JUMPDEST PUSH2 0xABB JUMP JUMPDEST PUSH1 0x40 MLOAD PUSH2 0x164 SWAP2 SWAP1 PUSH2 0x2701 JUMP JUMPDEST CALLVALUE DUP1 ISZERO PUSH2 0x2E7 JUMPI PUSH1 0x0 DUP1 REVERT JUMPDEST POP PUSH2 0x280 PUSH1 0x9 SLOAD DUP2 JUMP JUMPDEST CALLVALUE DUP1 ISZERO PUSH2 0x2FD JUMPI PUSH1 0x0 DUP1 REVERT JUMPDEST POP PUSH2 0x1E5 PUSH2 0xD5A JUMP JUMPDEST PUSH2 0x1E5 PUSH2 0x314 CALLDATASIZE PUSH1 0x4 PUSH2 0x25D4 JUMP JUMPDEST PUSH2 0xD87 JUMP JUMPDEST PUSH2 0x1E5 PUSH2 0x327 CALLDATASIZE PUSH1 0x4 PUSH2 0x2714 JUMP JUMPDEST PUSH2 0x129F JUMP JUMPDEST CALLVALUE DUP1 ISZERO PUSH2 0x338 JUMPI PUSH1 0x0 DUP1 REVERT JUMPDEST POP PUSH2 0x1E5 PUSH2 0x1680 JUMP JUMPDEST CALLVALUE DUP1 ISZERO PUSH2 0x34D JUMPI PUSH1 0x0 DUP1 REVERT JUMPDEST POP PUSH2 0x1E5 PUSH2 0x35C CALLDATASIZE PUSH1 0x4 PUSH2 0x2758 JUMP JUMPDEST PUSH2 0x16B9 JUMP JUMPDEST CALLVALUE DUP1 ISZERO PUSH2 0x36D JUMPI PUSH1 0x0 DUP1 REVERT JUMPDEST POP PUSH2 0x381 PUSH2 0x37C CALLDATASIZE PUSH1 0x4 PUSH2 0x2784 JUMP JUMPDEST PUSH2 0x1B1C JUMP JUMPDEST PUSH1 0x40 MLOAD PUSH2 0x164 SWAP10 SWAP9 SWAP8 SWAP7 SWAP6 SWAP5 SWAP4 SWAP3 SWAP2 SWAP1 PUSH2 0x283A JUMP JUMPDEST CALLVALUE DUP1 ISZERO PUSH2 0x3A2 JUMPI PUSH1 0x0 DUP1 REVERT JUMPDEST POP PUSH1 0x1 SLOAD PUSH2 0x25A SWAP1 PUSH1 0x1 PUSH1 0xA0 SHL SWAP1 DIV PUSH1 0xFF AND DUP2 JUMP JUMPDEST CALLVALUE DUP1 ISZERO PUSH2 0x3C3 JUMPI PUSH1 0x0 DUP1 REVERT JUMPDEST POP PUSH2 0x1E5 PUSH2 0x3D2 CALLDATASIZE PUSH1 0x4 PUSH2 0x292E JUMP JUMPDEST PUSH2 0x20EA JUMP JUMPDEST CALLVALUE DUP1 ISZERO PUSH2 0x3E3 JUMPI PUSH1 0x0 DUP1 REVERT JUMPDEST POP PUSH2 0x280 PUSH1 0xB SLOAD DUP2 JUMP JUMPDEST CALLVALUE DUP1 ISZERO PUSH2 0x3F9 JUMPI PUSH1 0x0 DUP1 REVERT JUMPDEST POP PUSH2 0x280 PUSH1 0xC SLOAD DUP2 JUMP JUMPDEST CALLVALUE DUP1 ISZERO PUSH2 0x40F JUMPI PUSH1 0x0 DUP1 REVERT JUMPDEST POP PUSH2 0x1E5 PUSH2 0x2557 JUMP JUMPDEST PUSH1 0x0 DUP1 PUSH1 0x0 DUP1 PUSH1 0x0 DUP1 PUSH1 0x0 DUP1 PUSH1 0x0 DUP1 PUSH1 0x9 SLOAD GT PUSH2 0x471 JUMPI PUSH1 0x40 MLOAD PUSH3 0x461BCD PUSH1 0xE5 SHL DUP2 MSTORE PUSH1 0x20 PUSH1 0x4 DUP3 ADD MSTORE PUSH1 0x12 PUSH1 0x24 DUP3 ADD MSTORE PUSH18 0x27379033B0B6B2B9903A37903932BA3AB937 PUSH1 0x71 SHL PUSH1 0x44 DUP3 ADD MSTORE PUSH1 0x64 ADD JUMPDEST PUSH1 0x40 MLOAD DUP1 SWAP2 SUB SWAP1 REVERT JUMPDEST PUSH1 0x0 PUSH1 0x8 DUP12 DUP2 SLOAD DUP2 LT PUSH2 0x486 JUMPI PUSH2 0x486 PUSH2 0x2963 JUMP JUMPDEST SWAP1 PUSH1 0x0 MSTORE PUSH1 0x20 PUSH1 0x0 KECCAK256 SWAP1 PUSH1 0xB MUL ADD PUSH1 0x40 MLOAD DUP1 PUSH2 0x100 ADD PUSH1 0x40 MSTORE SWAP1 DUP2 PUSH1 0x0 DUP3 ADD SLOAD DUP2 MSTORE PUSH1 0x20 ADD PUSH1 0x1 DUP3 ADD PUSH1 0x0 SWAP1 SLOAD SWAP1 PUSH2 0x100 EXP SWAP1 DIV PUSH1 0xFF AND PUSH1 0x2 DUP2 GT ISZERO PUSH2 0x4CE JUMPI PUSH2 0x4CE PUSH2 0x25ED JUMP JUMPDEST PUSH1 0x2 DUP2 GT ISZERO PUSH2 0x4DF JUMPI PUSH2 0x4DF PUSH2 0x25ED JUMP JUMPDEST DUP2 MSTORE PUSH1 0x20 ADD PUSH1 0x2 DUP3 ADD PUSH1 0x40 MLOAD DUP1 PUSH1 0x80 ADD PUSH1 0x40 MSTORE SWAP1 DUP2 PUSH1 0x0 DUP3 ADD PUSH1 0x0 SWAP1 SLOAD SWAP1 PUSH2 0x100 EXP SWAP1 DIV PUSH1 0xFF AND PUSH1 0xFF AND PUSH1 0xFF AND DUP2 MSTORE PUSH1 0x20 ADD PUSH1 0x1 DUP3 ADD SLOAD DUP2 MSTORE PUSH1 0x20 ADD PUSH1 0x2 DUP3 ADD SLOAD DUP2 MSTORE PUSH1 0x20 ADD PUSH1 0x3 DUP3 ADD PUSH1 0x0 SWAP1 SLOAD SWAP1 PUSH2 0x100 EXP SWAP1 DIV PUSH1 0xFF AND ISZERO ISZERO ISZERO ISZERO DUP2 MSTORE POP POP DUP2 MSTORE PUSH1 0x20 ADD PUSH1 0x6 DUP3 ADD SLOAD DUP2 MSTORE PUSH1 0x20 ADD PUSH1 0x7 DUP3 ADD SLOAD DUP2 MSTORE PUSH1 0x20 ADD PUSH1 0x8 DUP3 ADD SLOAD DUP2 MSTORE PUSH1 0x20 ADD PUSH1 0x9 DUP3 ADD SLOAD DUP2 MSTORE PUSH1 0x20 ADD PUSH1 0xA DUP3 ADD SLOAD DUP2 MSTORE POP POP SWAP1 POP DUP1 PUSH1 0x0 ADD MLOAD SWAP10 POP DUP1 PUSH1 0x20 ADD MLOAD SWAP9 POP DUP1 PUSH1 0xA0 ADD MLOAD SWAP8 POP DUP1 PUSH1 0xE0 ADD MLOAD SWAP7 POP DUP1 PUSH1 0x80 ADD MLOAD SWAP6 POP PUSH2 0x5A3 DUP12 PUSH2 0x857 JUMP JUMPDEST PUSH1 0x40 SWAP1 SWAP2 ADD MLOAD DUP1 MLOAD PUSH1 0x20 DUP3 ADD MLOAD PUSH1 0x60 SWAP1 SWAP3 ADD MLOAD SWAP12 SWAP14 SWAP11 SWAP13 POP SWAP9 SWAP11 SWAP8 SWAP10 SWAP7 SWAP9 SWAP2 SWAP8 SWAP2 SWAP7 SWAP1 SWAP6 POP SWAP1 SWAP4 POP SWAP2 POP POP JUMP JUMPDEST PUSH1 0x1 DUP1 SLOAD PUSH1 0x1 PUSH1 0xA0 SHL SWAP1 DIV PUSH1 0xFF AND ISZERO ISZERO EQ ISZERO PUSH2 0x5FE JUMPI PUSH1 0x40 MLOAD PUSH3 0x461BCD PUSH1 0xE5 SHL DUP2 MSTORE PUSH1 0x4 ADD PUSH2 0x468 SWAP1 PUSH2 0x2979 JUMP JUMPDEST PUSH1 0x0 DUP2 DUP2 MSTORE PUSH1 0xE PUSH1 0x20 SWAP1 DUP2 MSTORE PUSH1 0x40 DUP1 DUP4 KECCAK256 PUSH1 0xD DUP4 MSTORE DUP2 DUP5 KECCAK256 CALLER DUP6 MSTORE DUP4 MSTORE DUP2 DUP5 KECCAK256 SLOAD DUP5 MSTORE SWAP1 SWAP2 MSTORE SWAP1 KECCAK256 PUSH1 0x2 ADD SLOAD DUP2 SWAP1 PUSH2 0x100 SWAP1 DIV PUSH1 0xFF AND PUSH2 0x697 JUMPI PUSH1 0x40 MLOAD PUSH3 0x461BCD PUSH1 0xE5 SHL DUP2 MSTORE PUSH1 0x20 PUSH1 0x4 DUP3 ADD MSTORE PUSH1 0x2E PUSH1 0x24 DUP3 ADD MSTORE PUSH32 0x506C61796572206973206E6F7420666F756E642070617274696369706174696E PUSH1 0x44 DUP3 ADD MSTORE PUSH14 0x6720696E20746869732067616D65 PUSH1 0x90 SHL PUSH1 0x64 DUP3 ADD MSTORE PUSH1 0x84 ADD PUSH2 0x468 JUMP JUMPDEST PUSH1 0x1 PUSH1 0x8 DUP3 DUP2 SLOAD DUP2 LT PUSH2 0x6AC JUMPI PUSH2 0x6AC PUSH2 0x2963 JUMP JUMPDEST PUSH1 0x0 SWAP2 DUP3 MSTORE PUSH1 0x20 SWAP1 SWAP2 KECCAK256 PUSH1 0x1 PUSH1 0xB SWAP1 SWAP3 MUL ADD ADD SLOAD PUSH1 0xFF AND PUSH1 0x2 DUP2 GT ISZERO PUSH2 0x6D4 JUMPI PUSH2 0x6D4 PUSH2 0x25ED JUMP JUMPDEST EQ PUSH2 0x747 JUMPI PUSH1 0x40 MLOAD PUSH3 0x461BCD PUSH1 0xE5 SHL DUP2 MSTORE PUSH1 0x20 PUSH1 0x4 DUP3 ADD MSTORE PUSH1 0x39 PUSH1 0x24 DUP3 ADD MSTORE PUSH32 0x47616D65206973206E6F206C6F6E67657220696E20746865206177616974696E PUSH1 0x44 DUP3 ADD MSTORE PUSH32 0x672067616D65206372697465726961206D657420706861736500000000000000 PUSH1 0x64 DUP3 ADD MSTORE PUSH1 0x84 ADD PUSH2 0x468 JUMP JUMPDEST PUSH1 0x0 PUSH1 0x8 DUP4 DUP2 SLOAD DUP2 LT PUSH2 0x75C JUMPI PUSH2 0x75C PUSH2 0x2963 JUMP JUMPDEST PUSH1 0x0 SWAP2 DUP3 MSTORE PUSH1 0x20 DUP1 DUP4 KECCAK256 PUSH1 0x1 PUSH1 0xB SWAP4 SWAP1 SWAP4 MUL ADD DUP3 DUP2 ADD DUP1 SLOAD PUSH1 0xFF NOT AND DUP5 OR SWAP1 SSTORE DUP7 DUP5 MSTORE PUSH1 0xE DUP3 MSTORE PUSH1 0x40 DUP1 DUP6 KECCAK256 PUSH1 0xD DUP5 MSTORE DUP2 DUP7 KECCAK256 CALLER DUP8 MSTORE DUP5 MSTORE DUP2 DUP7 KECCAK256 SLOAD DUP7 MSTORE SWAP1 SWAP3 MSTORE SWAP3 KECCAK256 SWAP1 DUP2 ADD SLOAD PUSH1 0x8 DUP4 ADD SLOAD SWAP3 SWAP4 POP SWAP1 SWAP2 PUSH2 0x7B7 SWAP2 SWAP1 PUSH2 0x29D4 JUMP JUMPDEST PUSH1 0x8 DUP4 ADD SSTORE PUSH1 0xA DUP3 ADD DUP1 SLOAD SWAP1 PUSH1 0x0 PUSH2 0x7CE DUP4 PUSH2 0x29EB JUMP JUMPDEST SWAP1 SWAP2 SSTORE POP POP PUSH1 0x2 DUP2 ADD DUP1 SLOAD PUSH1 0xFF NOT AND PUSH1 0x1 SWAP1 DUP2 OR SWAP1 SWAP2 SSTORE DUP2 SLOAD SWAP1 DUP3 ADD SLOAD PUSH1 0x40 MLOAD PUSH1 0x1 PUSH1 0x1 PUSH1 0xA0 SHL SUB SWAP1 SWAP3 AND SWAP2 PUSH2 0x8FC DUP3 ISZERO MUL SWAP2 SWAP1 PUSH1 0x0 DUP2 DUP2 DUP2 DUP6 DUP9 DUP9 CALL SWAP4 POP POP POP POP ISZERO DUP1 ISZERO PUSH2 0x821 JUMPI RETURNDATASIZE PUSH1 0x0 DUP1 RETURNDATACOPY RETURNDATASIZE PUSH1 0x0 REVERT JUMPDEST POP PUSH1 0x40 MLOAD TIMESTAMP SWAP1 CALLER SWAP1 DUP7 SWAP1 PUSH32 0x4125F5AA3824DBB516A4C4581F08927E3DF29FE2CCF01C7AD86BDF64D9FD9C74 SWAP1 PUSH1 0x0 SWAP1 LOG4 POP POP POP POP JUMP JUMPDEST PUSH1 0x0 DUP1 PUSH1 0x8 DUP4 DUP2 SLOAD DUP2 LT PUSH2 0x86D JUMPI PUSH2 0x86D PUSH2 0x2963 JUMP JUMPDEST SWAP1 PUSH1 0x0 MSTORE PUSH1 0x20 PUSH1 0x0 KECCAK256 SWAP1 PUSH1 0xB MUL ADD PUSH1 0x40 MLOAD DUP1 PUSH2 0x100 ADD PUSH1 0x40 MSTORE SWAP1 DUP2 PUSH1 0x0 DUP3 ADD SLOAD DUP2 MSTORE PUSH1 0x20 ADD PUSH1 0x1 DUP3 ADD PUSH1 0x0 SWAP1 SLOAD SWAP1 PUSH2 0x100 EXP SWAP1 DIV PUSH1 0xFF AND PUSH1 0x2 DUP2 GT ISZERO PUSH2 0x8B5 JUMPI PUSH2 0x8B5 PUSH2 0x25ED JUMP JUMPDEST PUSH1 0x2 DUP2 GT ISZERO PUSH2 0x8C6 JUMPI PUSH2 0x8C6 PUSH2 0x25ED JUMP JUMPDEST DUP2 MSTORE PUSH1 0x40 DUP1 MLOAD PUSH1 0x80 DUP1 DUP3 ADD DUP4 MSTORE PUSH1 0x2 DUP6 ADD SLOAD PUSH1 0xFF SWAP1 DUP2 AND DUP4 MSTORE PUSH1 0x3 DUP7 ADD SLOAD PUSH1 0x20 DUP5 DUP2 ADD SWAP2 SWAP1 SWAP2 MSTORE PUSH1 0x4 DUP8 ADD SLOAD DUP5 DUP7 ADD MSTORE PUSH1 0x5 DUP8 ADD SLOAD SWAP1 SWAP2 AND ISZERO ISZERO PUSH1 0x60 DUP1 DUP6 ADD SWAP2 SWAP1 SWAP2 MSTORE SWAP1 DUP6 ADD SWAP3 SWAP1 SWAP3 MSTORE PUSH1 0x6 DUP6 ADD SLOAD SWAP3 DUP5 ADD SWAP3 SWAP1 SWAP3 MSTORE PUSH1 0x7 DUP5 ADD SLOAD SWAP1 DUP4 ADD MSTORE PUSH1 0x8 DUP4 ADD SLOAD SWAP1 DUP3 ADD MSTORE PUSH1 0x9 DUP3 ADD SLOAD PUSH1 0xA0 DUP3 ADD MSTORE PUSH1 0xA SWAP1 SWAP2 ADD SLOAD PUSH1 0xC0 SWAP1 SWAP2 ADD MSTORE SWAP1 POP PUSH1 0x0 DUP2 PUSH1 0x20 ADD MLOAD PUSH1 0x2 DUP2 GT ISZERO PUSH2 0x95E JUMPI PUSH2 0x95E PUSH2 0x25ED JUMP JUMPDEST EQ ISZERO PUSH2 0xA3C JUMPI PUSH1 0x1 JUMPDEST DUP2 PUSH1 0xC0 ADD MLOAD DUP2 GT PUSH2 0xA3A JUMPI PUSH1 0x0 DUP5 DUP2 MSTORE PUSH1 0xE PUSH1 0x20 SWAP1 DUP2 MSTORE PUSH1 0x40 DUP1 DUP4 KECCAK256 DUP5 DUP5 MSTORE DUP3 MSTORE DUP1 DUP4 KECCAK256 DUP2 MLOAD PUSH1 0x80 DUP2 ADD DUP4 MSTORE DUP2 SLOAD PUSH1 0x1 PUSH1 0x1 PUSH1 0xA0 SHL SUB AND DUP2 MSTORE PUSH1 0x1 DUP3 ADD SLOAD SWAP4 DUP2 ADD SWAP4 SWAP1 SWAP4 MSTORE PUSH1 0x2 DUP2 ADD SLOAD SWAP1 SWAP2 DUP4 ADD SWAP1 PUSH1 0xFF AND PUSH1 0x3 DUP2 GT ISZERO PUSH2 0x9CA JUMPI PUSH2 0x9CA PUSH2 0x25ED JUMP JUMPDEST PUSH1 0x3 DUP2 GT ISZERO PUSH2 0x9DB JUMPI PUSH2 0x9DB PUSH2 0x25ED JUMP JUMPDEST DUP2 MSTORE PUSH1 0x2 SWAP2 DUP3 ADD SLOAD PUSH2 0x100 SWAP1 DIV PUSH1 0xFF AND ISZERO ISZERO PUSH1 0x20 SWAP1 SWAP2 ADD MSTORE SWAP1 SWAP2 POP DUP2 PUSH1 0x40 ADD MLOAD PUSH1 0x3 DUP2 GT ISZERO PUSH2 0xA0C JUMPI PUSH2 0xA0C PUSH2 0x25ED JUMP JUMPDEST EQ DUP1 ISZERO PUSH2 0xA1A JUMPI POP DUP1 PUSH1 0x60 ADD MLOAD JUMPDEST ISZERO PUSH2 0xA27 JUMPI MLOAD SWAP3 POP PUSH2 0xA3A JUMP JUMPDEST POP DUP1 PUSH2 0xA32 DUP2 PUSH2 0x2A02 JUMP JUMPDEST SWAP2 POP POP PUSH2 0x967 JUMP JUMPDEST POP JUMPDEST POP SWAP2 SWAP1 POP JUMP JUMPDEST PUSH1 0x0 SLOAD PUSH1 0x1 PUSH1 0x1 PUSH1 0xA0 SHL SUB AND CALLER EQ PUSH2 0xA6C JUMPI PUSH1 0x40 MLOAD PUSH3 0x461BCD PUSH1 0xE5 SHL DUP2 MSTORE PUSH1 0x4 ADD PUSH2 0x468 SWAP1 PUSH2 0x2A1D JUMP JUMPDEST POP JUMP JUMPDEST PUSH1 0x0 SLOAD PUSH1 0x1 PUSH1 0x1 PUSH1 0xA0 SHL SUB AND CALLER EQ PUSH2 0xA99 JUMPI PUSH1 0x40 MLOAD PUSH3 0x461BCD PUSH1 0xE5 SHL DUP2 MSTORE PUSH1 0x4 ADD PUSH2 0x468 SWAP1 PUSH2 0x2A1D JUMP JUMPDEST PUSH1 0x1 DUP1 SLOAD PUSH1 0x1 PUSH1 0x1 PUSH1 0xA0 SHL SUB NOT AND PUSH1 0x1 PUSH1 0x1 PUSH1 0xA0 SHL SUB SWAP3 SWAP1 SWAP3 AND SWAP2 SWAP1 SWAP2 OR SWAP1 SSTORE JUMP JUMPDEST PUSH1 0x60 PUSH1 0x0 PUSH1 0x9 SLOAD GT PUSH2 0xB04 JUMPI PUSH1 0x40 MLOAD PUSH3 0x461BCD PUSH1 0xE5 SHL DUP2 MSTORE PUSH1 0x20 PUSH1 0x4 DUP3 ADD MSTORE PUSH1 0x12 PUSH1 0x24 DUP3 ADD MSTORE PUSH18 0x27379033B0B6B2B9903A37903932BA3AB937 PUSH1 0x71 SHL PUSH1 0x44 DUP3 ADD MSTORE PUSH1 0x64 ADD PUSH2 0x468 JUMP JUMPDEST PUSH1 0x0 PUSH1 0x8 DUP4 DUP2 SLOAD DUP2 LT PUSH2 0xB19 JUMPI PUSH2 0xB19 PUSH2 0x2963 JUMP JUMPDEST SWAP1 PUSH1 0x0 MSTORE PUSH1 0x20 PUSH1 0x0 KECCAK256 SWAP1 PUSH1 0xB MUL ADD PUSH1 0x40 MLOAD DUP1 PUSH2 0x100 ADD PUSH1 0x40 MSTORE SWAP1 DUP2 PUSH1 0x0 DUP3 ADD SLOAD DUP2 MSTORE PUSH1 0x20 ADD PUSH1 0x1 DUP3 ADD PUSH1 0x0 SWAP1 SLOAD SWAP1 PUSH2 0x100 EXP SWAP1 DIV PUSH1 0xFF AND PUSH1 0x2 DUP2 GT ISZERO PUSH2 0xB61 JUMPI PUSH2 0xB61 PUSH2 0x25ED JUMP JUMPDEST PUSH1 0x2 DUP2 GT ISZERO PUSH2 0xB72 JUMPI PUSH2 0xB72 PUSH2 0x25ED JUMP JUMPDEST DUP2 MSTORE PUSH1 0x40 DUP1 MLOAD PUSH1 0x80 DUP1 DUP3 ADD DUP4 MSTORE PUSH1 0x2 DUP6 ADD SLOAD PUSH1 0xFF SWAP1 DUP2 AND DUP4 MSTORE PUSH1 0x3 DUP7 ADD SLOAD PUSH1 0x20 DUP5 DUP2 ADD SWAP2 SWAP1 SWAP2 MSTORE PUSH1 0x4 DUP8 ADD SLOAD DUP5 DUP7 ADD MSTORE PUSH1 0x5 DUP8 ADD SLOAD SWAP1 SWAP2 AND ISZERO ISZERO PUSH1 0x60 DUP1 DUP6 ADD SWAP2 SWAP1 SWAP2 MSTORE SWAP1 DUP6 ADD SWAP3 SWAP1 SWAP3 MSTORE PUSH1 0x6 DUP6 ADD SLOAD SWAP3 DUP5 ADD SWAP3 SWAP1 SWAP3 MSTORE PUSH1 0x7 DUP5 ADD SLOAD SWAP1 DUP4 ADD MSTORE PUSH1 0x8 DUP4 ADD SLOAD SWAP1 DUP3 ADD MSTORE PUSH1 0x9 DUP3 ADD SLOAD PUSH1 0xA0 DUP3 ADD MSTORE PUSH1 0xA SWAP1 SWAP2 ADD SLOAD PUSH1 0xC0 SWAP1 SWAP2 ADD MSTORE PUSH1 0xE0 DUP2 ADD MLOAD SWAP1 SWAP2 POP PUSH1 0x1 SWAP1 PUSH1 0x0 SWAP1 PUSH8 0xFFFFFFFFFFFFFFFF DUP2 GT ISZERO PUSH2 0xC16 JUMPI PUSH2 0xC16 PUSH2 0x2A5F JUMP JUMPDEST PUSH1 0x40 MLOAD SWAP1 DUP1 DUP3 MSTORE DUP1 PUSH1 0x20 MUL PUSH1 0x20 ADD DUP3 ADD PUSH1 0x40 MSTORE DUP1 ISZERO PUSH2 0xC3F JUMPI DUP2 PUSH1 0x20 ADD PUSH1 0x20 DUP3 MUL DUP1 CALLDATASIZE DUP4 CALLDATACOPY ADD SWAP1 POP JUMPDEST POP SWAP4 POP PUSH1 0xFF DUP3 AND JUMPDEST DUP4 PUSH1 0xC0 ADD MLOAD DUP2 GT PUSH2 0xD51 JUMPI PUSH1 0x0 DUP7 DUP2 MSTORE PUSH1 0xE PUSH1 0x20 SWAP1 DUP2 MSTORE PUSH1 0x40 DUP1 DUP4 KECCAK256 DUP5 DUP5 MSTORE DUP3 MSTORE DUP1 DUP4 KECCAK256 DUP2 MLOAD PUSH1 0x80 DUP2 ADD DUP4 MSTORE DUP2 SLOAD PUSH1 0x1 PUSH1 0x1 PUSH1 0xA0 SHL SUB AND DUP2 MSTORE PUSH1 0x1 DUP3 ADD SLOAD SWAP4 DUP2 ADD SWAP4 SWAP1 SWAP4 MSTORE PUSH1 0x2 DUP2 ADD SLOAD SWAP1 SWAP2 DUP4 ADD SWAP1 PUSH1 0xFF AND PUSH1 0x3 DUP2 GT ISZERO PUSH2 0xCAA JUMPI PUSH2 0xCAA PUSH2 0x25ED JUMP JUMPDEST PUSH1 0x3 DUP2 GT ISZERO PUSH2 0xCBB JUMPI PUSH2 0xCBB PUSH2 0x25ED JUMP JUMPDEST DUP2 MSTORE PUSH1 0x2 SWAP2 SWAP1 SWAP2 ADD SLOAD PUSH2 0x100 SWAP1 DIV PUSH1 0xFF AND ISZERO ISZERO PUSH1 0x20 SWAP1 SWAP2 ADD MSTORE SWAP1 POP PUSH1 0x0 DUP2 PUSH1 0x40 ADD MLOAD PUSH1 0x3 DUP2 GT ISZERO PUSH2 0xCEE JUMPI PUSH2 0xCEE PUSH2 0x25ED JUMP JUMPDEST EQ DUP1 ISZERO PUSH2 0xCFC JUMPI POP DUP1 PUSH1 0x60 ADD MLOAD JUMPDEST ISZERO PUSH2 0xD3E JUMPI DUP1 PUSH1 0x0 ADD MLOAD DUP7 DUP5 DUP2 MLOAD DUP2 LT PUSH2 0xD18 JUMPI PUSH2 0xD18 PUSH2 0x2963 JUMP JUMPDEST PUSH1 0x1 PUSH1 0x1 PUSH1 0xA0 SHL SUB SWAP1 SWAP3 AND PUSH1 0x20 SWAP3 DUP4 MUL SWAP2 SWAP1 SWAP2 ADD SWAP1 SWAP2 ADD MSTORE DUP3 PUSH2 0xD3A DUP2 PUSH2 0x2A02 JUMP JUMPDEST SWAP4 POP POP JUMPDEST POP DUP1 PUSH2 0xD49 DUP2 PUSH2 0x2A02 JUMP JUMPDEST SWAP2 POP POP PUSH2 0xC47 JUMP JUMPDEST POP POP POP POP SWAP2 SWAP1 POP JUMP JUMPDEST PUSH1 0x0 SLOAD PUSH1 0x1 PUSH1 0x1 PUSH1 0xA0 SHL SUB AND CALLER EQ PUSH2 0xD84 JUMPI PUSH1 0x40 MLOAD PUSH3 0x461BCD PUSH1 0xE5 SHL DUP2 MSTORE PUSH1 0x4 ADD PUSH2 0x468 SWAP1 PUSH2 0x2A1D JUMP JUMPDEST CALLER SELFDESTRUCT JUMPDEST PUSH1 0x1 DUP1 SLOAD PUSH1 0x1 PUSH1 0xA0 SHL SWAP1 DIV PUSH1 0xFF AND ISZERO ISZERO EQ ISZERO PUSH2 0xDB5 JUMPI PUSH1 0x40 MLOAD PUSH3 0x461BCD PUSH1 0xE5 SHL DUP2 MSTORE PUSH1 0x4 ADD PUSH2 0x468 SWAP1 PUSH2 0x2979 JUMP JUMPDEST DUP1 CALLER PUSH2 0xDD3 JUMPI PUSH1 0x40 MLOAD PUSH3 0x461BCD PUSH1 0xE5 SHL DUP2 MSTORE PUSH1 0x4 ADD PUSH2 0x468 SWAP1 PUSH2 0x2A75 JUMP JUMPDEST PUSH1 0x8 DUP2 DUP2 SLOAD DUP2 LT PUSH2 0xDE6 JUMPI PUSH2 0xDE6 PUSH2 0x2963 JUMP JUMPDEST SWAP1 PUSH1 0x0 MSTORE PUSH1 0x20 PUSH1 0x0 KECCAK256 SWAP1 PUSH1 0xB MUL ADD PUSH1 0x2 ADD PUSH1 0x1 ADD SLOAD CALLVALUE EQ PUSH2 0xE64 JUMPI PUSH1 0x40 MLOAD PUSH3 0x461BCD PUSH1 0xE5 SHL DUP2 MSTORE PUSH1 0x20 PUSH1 0x4 DUP3 ADD MSTORE PUSH1 0x32 PUSH1 0x24 DUP3 ADD MSTORE PUSH32 0x4265742073697A6520646F6573206E6F74206D61746368207468652067616D65 PUSH1 0x44 DUP3 ADD MSTORE PUSH18 0x2063726561746F7273206265742073697A65 PUSH1 0x70 SHL PUSH1 0x64 DUP3 ADD MSTORE PUSH1 0x84 ADD PUSH2 0x468 JUMP JUMPDEST PUSH1 0x1 PUSH1 0x8 DUP3 DUP2 SLOAD DUP2 LT PUSH2 0xE79 JUMPI PUSH2 0xE79 PUSH2 0x2963 JUMP JUMPDEST PUSH1 0x0 SWAP2 DUP3 MSTORE PUSH1 0x20 SWAP1 SWAP2 KECCAK256 PUSH1 0x1 PUSH1 0xB SWAP1 SWAP3 MUL ADD ADD SLOAD PUSH1 0xFF AND PUSH1 0x2 DUP2 GT ISZERO PUSH2 0xEA1 JUMPI PUSH2 0xEA1 PUSH2 0x25ED JUMP JUMPDEST EQ PUSH2 0xF06 JUMPI PUSH1 0x40 MLOAD PUSH3 0x461BCD PUSH1 0xE5 SHL DUP2 MSTORE PUSH1 0x20 PUSH1 0x4 DUP3 ADD MSTORE PUSH1 0x2F PUSH1 0x24 DUP3 ADD MSTORE PUSH32 0x47616D65206973206E6F7420696E20746865206177616974696E672063726974 PUSH1 0x44 DUP3 ADD MSTORE PUSH15 0x6965726961206D6574207374617465 PUSH1 0x88 SHL PUSH1 0x64 DUP3 ADD MSTORE PUSH1 0x84 ADD PUSH2 0x468 JUMP JUMPDEST PUSH1 0x5 SLOAD CALLVALUE LT ISZERO PUSH2 0xF28 JUMPI PUSH1 0x40 MLOAD PUSH3 0x461BCD PUSH1 0xE5 SHL DUP2 MSTORE PUSH1 0x4 ADD PUSH2 0x468 SWAP1 PUSH2 0x2AB9 JUMP JUMPDEST PUSH1 0x0 DUP2 DUP2 MSTORE PUSH1 0xD PUSH1 0x20 SWAP1 DUP2 MSTORE PUSH1 0x40 DUP1 DUP4 KECCAK256 CALLER DUP5 MSTORE SWAP1 SWAP2 MSTORE SWAP1 KECCAK256 SLOAD ISZERO DUP1 ISZERO PUSH2 0xF80 JUMPI POP PUSH1 0x0 DUP2 DUP2 MSTORE PUSH1 0xE PUSH1 0x20 SWAP1 DUP2 MSTORE PUSH1 0x40 DUP1 DUP4 KECCAK256 PUSH1 0xD DUP4 MSTORE DUP2 DUP5 KECCAK256 CALLER DUP6 MSTORE DUP4 MSTORE DUP2 DUP5 KECCAK256 SLOAD DUP5 MSTORE SWAP1 SWAP2 MSTORE SWAP1 KECCAK256 PUSH1 0x2 ADD SLOAD PUSH2 0x100 SWAP1 DIV PUSH1 0xFF AND ISZERO JUMPDEST PUSH2 0x1004 JUMPI PUSH1 0x40 MLOAD PUSH3 0x461BCD PUSH1 0xE5 SHL DUP2 MSTORE PUSH1 0x20 PUSH1 0x4 DUP3 ADD MSTORE PUSH1 0x49 PUSH1 0x24 DUP3 ADD MSTORE PUSH32 0x506C61796572206973206F72207761732070617274696369706174696E672069 PUSH1 0x44 DUP3 ADD MSTORE PUSH32 0x6E207468652063757272656E742067616D652E204E6F7420656C696769626C65 PUSH1 0x64 DUP3 ADD MSTORE PUSH9 0x103A37903537B4B717 PUSH1 0xB9 SHL PUSH1 0x84 DUP3 ADD MSTORE PUSH1 0xA4 ADD PUSH2 0x468 JUMP JUMPDEST PUSH1 0x8 DUP2 DUP2 SLOAD DUP2 LT PUSH2 0x1017 JUMPI PUSH2 0x1017 PUSH2 0x2963 JUMP JUMPDEST PUSH1 0x0 SWAP2 DUP3 MSTORE PUSH1 0x20 SWAP1 SWAP2 KECCAK256 PUSH1 0x2 PUSH1 0xB SWAP1 SWAP3 MUL ADD ADD SLOAD PUSH1 0x8 DUP1 SLOAD PUSH1 0xFF SWAP1 SWAP3 AND SWAP2 DUP4 SWAP1 DUP2 LT PUSH2 0x1045 JUMPI PUSH2 0x1045 PUSH2 0x2963 JUMP JUMPDEST SWAP1 PUSH1 0x0 MSTORE PUSH1 0x20 PUSH1 0x0 KECCAK256 SWAP1 PUSH1 0xB MUL ADD PUSH1 0xA ADD SLOAD LT PUSH2 0x10A4 JUMPI PUSH1 0x40 MLOAD PUSH3 0x461BCD PUSH1 0xE5 SHL DUP2 MSTORE PUSH1 0x20 PUSH1 0x4 DUP3 ADD MSTORE PUSH1 0x1A PUSH1 0x24 DUP3 ADD MSTORE PUSH32 0x47616D65206973206174206D6178696D756D20706C6179657273000000000000 PUSH1 0x44 DUP3 ADD MSTORE PUSH1 0x64 ADD PUSH2 0x468 JUMP JUMPDEST PUSH1 0x0 PUSH1 0x8 DUP4 DUP2 SLOAD DUP2 LT PUSH2 0x10B9 JUMPI PUSH2 0x10B9 PUSH2 0x2963 JUMP JUMPDEST SWAP1 PUSH1 0x0 MSTORE PUSH1 0x20 PUSH1 0x0 KECCAK256 SWAP1 PUSH1 0xB MUL ADD SWAP1 POP DUP1 PUSH1 0x9 ADD PUSH1 0x0 DUP2 SLOAD DUP1 SWAP3 SWAP2 SWAP1 PUSH2 0x10DE SWAP1 PUSH2 0x2A02 JUMP JUMPDEST SWAP1 SWAP2 SSTORE POP POP PUSH1 0xA DUP2 ADD DUP1 SLOAD SWAP1 PUSH1 0x0 PUSH2 0x10F5 DUP4 PUSH2 0x2A02 JUMP JUMPDEST SWAP1 SWAP2 SSTORE POP POP PUSH1 0x9 DUP2 ADD SLOAD PUSH1 0x0 DUP5 DUP2 MSTORE PUSH1 0xD PUSH1 0x20 SWAP1 DUP2 MSTORE PUSH1 0x40 DUP1 DUP4 KECCAK256 CALLER DUP1 DUP6 MSTORE SWAP1 DUP4 MSTORE DUP2 DUP5 KECCAK256 DUP6 SWAP1 SSTORE DUP2 MLOAD PUSH1 0x80 DUP2 ADD DUP4 MSTORE SWAP1 DUP2 MSTORE CALLVALUE DUP2 DUP5 ADD SWAP1 DUP2 MSTORE DUP2 DUP4 ADD DUP6 DUP2 MSTORE PUSH1 0x1 PUSH1 0x60 DUP5 ADD DUP2 SWAP1 MSTORE DUP11 DUP8 MSTORE PUSH1 0xE DUP7 MSTORE DUP5 DUP8 KECCAK256 SWAP8 DUP8 MSTORE SWAP7 SWAP1 SWAP5 MSTORE SWAP2 SWAP1 SWAP4 KECCAK256 DUP4 MLOAD DUP2 SLOAD PUSH1 0x1 PUSH1 0x1 PUSH1 0xA0 SHL SUB NOT AND PUSH1 0x1 PUSH1 0x1 PUSH1 0xA0 SHL SUB SWAP1 SWAP2 AND OR DUP2 SSTORE SWAP1 MLOAD DUP2 DUP6 ADD SSTORE SWAP1 MLOAD PUSH1 0x2 DUP3 ADD DUP1 SLOAD SWAP4 SWAP5 SWAP3 SWAP4 SWAP2 SWAP3 SWAP1 SWAP2 PUSH1 0xFF NOT AND SWAP1 DUP4 PUSH1 0x3 DUP2 GT ISZERO PUSH2 0x119C JUMPI PUSH2 0x119C PUSH2 0x25ED JUMP JUMPDEST MUL OR SWAP1 SSTORE POP PUSH1 0x60 DUP3 ADD MLOAD DUP2 PUSH1 0x2 ADD PUSH1 0x1 PUSH2 0x100 EXP DUP2 SLOAD DUP2 PUSH1 0xFF MUL NOT AND SWAP1 DUP4 ISZERO ISZERO MUL OR SWAP1 SSTORE POP SWAP1 POP POP CALLVALUE DUP2 PUSH1 0x8 ADD PUSH1 0x0 DUP3 DUP3 SLOAD PUSH2 0x11D8 SWAP2 SWAP1 PUSH2 0x2B00 JUMP JUMPDEST SWAP1 SWAP2 SSTORE POP POP PUSH1 0x40 MLOAD TIMESTAMP SWAP1 CALLER SWAP1 DUP6 SWAP1 PUSH32 0xAF826DFC28710E789B457FDAF15B1D85F98319D34D1AF1A3760EB0EF295912CD SWAP1 PUSH1 0x0 SWAP1 LOG4 PUSH2 0x1215 DUP4 PUSH2 0x2596 JUMP JUMPDEST ISZERO PUSH2 0x129A JUMPI PUSH1 0x1 DUP2 ADD DUP1 SLOAD PUSH1 0xFF NOT AND PUSH1 0x2 OR SWAP1 SSTORE PUSH1 0xC DUP1 SLOAD SWAP1 PUSH1 0x0 PUSH2 0x1239 DUP4 PUSH2 0x2A02 JUMP JUMPDEST SWAP1 SWAP2 SSTORE POP POP PUSH1 0xB DUP1 SLOAD SWAP1 PUSH1 0x0 PUSH2 0x124E DUP4 PUSH2 0x29EB JUMP JUMPDEST SWAP1 SWAP2 SSTORE POP POP PUSH1 0x1 DUP2 ADD SLOAD TIMESTAMP SWAP1 PUSH1 0xFF AND PUSH1 0x2 DUP2 GT ISZERO PUSH2 0x126E JUMPI PUSH2 0x126E PUSH2 0x25ED JUMP JUMPDEST PUSH1 0x40 MLOAD DUP6 SWAP1 PUSH32 0x240B850A10F1B58D9F3376D536170B73EEA08130F87B89E1D3C7D2B84666585E SWAP1 PUSH1 0x0 SWAP1 LOG4 JUMPDEST POP POP POP JUMP JUMPDEST PUSH1 0x1 DUP1 SLOAD PUSH1 0x1 PUSH1 0xA0 SHL SWAP1 DIV PUSH1 0xFF AND ISZERO ISZERO EQ ISZERO PUSH2 0x12CD JUMPI PUSH1 0x40 MLOAD PUSH3 0x461BCD PUSH1 0xE5 SHL DUP2 MSTORE PUSH1 0x4 ADD PUSH2 0x468 SWAP1 PUSH2 0x2979 JUMP JUMPDEST DUP2 DUP2 CALLVALUE CALLER PUSH2 0x12ED JUMPI PUSH1 0x40 MLOAD PUSH3 0x461BCD PUSH1 0xE5 SHL DUP2 MSTORE PUSH1 0x4 ADD PUSH2 0x468 SWAP1 PUSH2 0x2A75 JUMP JUMPDEST PUSH1 0x5 SLOAD CALLVALUE LT ISZERO PUSH2 0x130F JUMPI PUSH1 0x40 MLOAD PUSH3 0x461BCD PUSH1 0xE5 SHL DUP2 MSTORE PUSH1 0x4 ADD PUSH2 0x468 SWAP1 PUSH2 0x2AB9 JUMP JUMPDEST PUSH1 0x6 SLOAD PUSH1 0xFF SWAP1 DUP2 AND SWAP1 DUP5 AND LT ISZERO PUSH2 0x1385 JUMPI PUSH1 0x40 MLOAD PUSH3 0x461BCD PUSH1 0xE5 SHL DUP2 MSTORE PUSH1 0x20 PUSH1 0x4 DUP3 ADD MSTORE PUSH1 0x34 PUSH1 0x24 DUP3 ADD MSTORE PUSH32 0x47616D6520706C61796572732073686F756C642062652061626F766520746865 PUSH1 0x44 DUP3 ADD MSTORE PUSH20 0x20686F7573652072756C65732073657474696E67 PUSH1 0x60 SHL PUSH1 0x64 DUP3 ADD MSTORE PUSH1 0x84 ADD PUSH2 0x468 JUMP JUMPDEST DUP2 DUP1 ISZERO PUSH2 0x139F JUMPI POP PUSH1 0x7 SLOAD PUSH2 0x139D DUP3 PUSH1 0xFF DUP7 AND PUSH2 0x2B18 JUMP JUMPDEST GT JUMPDEST DUP1 PUSH2 0x13A8 JUMPI POP DUP2 ISZERO JUMPDEST PUSH2 0x13E1 JUMPI PUSH1 0x40 MLOAD PUSH3 0x461BCD PUSH1 0xE5 SHL DUP2 MSTORE PUSH1 0x20 PUSH1 0x4 DUP3 ADD MSTORE PUSH1 0xA PUSH1 0x24 DUP3 ADD MSTORE PUSH10 0x41756469742067616D65 PUSH1 0xB0 SHL PUSH1 0x44 DUP3 ADD MSTORE PUSH1 0x64 ADD PUSH2 0x468 JUMP JUMPDEST PUSH1 0x40 DUP1 MLOAD PUSH2 0x100 DUP2 ADD DUP3 MSTORE PUSH1 0x9 SLOAD DUP2 MSTORE PUSH1 0x1 PUSH1 0x20 DUP1 DUP4 ADD DUP3 DUP2 MSTORE DUP5 MLOAD PUSH1 0x80 DUP1 DUP3 ADD DUP8 MSTORE PUSH1 0xFF DUP13 AND DUP3 MSTORE CALLVALUE SWAP4 DUP3 ADD DUP5 SWAP1 MSTORE TIMESTAMP DUP3 DUP9 ADD MSTORE DUP11 ISZERO ISZERO PUSH1 0x60 DUP1 DUP5 ADD SWAP2 SWAP1 SWAP2 MSTORE SWAP7 DUP7 ADD SWAP2 SWAP1 SWAP2 MSTORE PUSH1 0x0 SWAP6 DUP6 ADD DUP7 SWAP1 MSTORE DUP5 ADD DUP6 SWAP1 MSTORE PUSH1 0xA0 DUP5 ADD SWAP2 SWAP1 SWAP2 MSTORE PUSH1 0xC0 DUP4 ADD DUP3 SWAP1 MSTORE PUSH1 0xE0 DUP4 ADD DUP3 SWAP1 MSTORE PUSH1 0x8 DUP1 SLOAD DUP1 DUP5 ADD DUP3 SSTORE SWAP5 MSTORE DUP3 MLOAD PUSH1 0xB SWAP1 SWAP5 MUL PUSH32 0xF3F7A9FE364FAAB93B216DA50A3214154F22A0A2B415B23A84C8169E8B636EE3 DUP2 ADD SWAP5 DUP6 SSTORE SWAP1 MLOAD PUSH32 0xF3F7A9FE364FAAB93B216DA50A3214154F22A0A2B415B23A84C8169E8B636EE4 SWAP1 SWAP2 ADD DUP1 SLOAD SWAP4 SWAP5 DUP6 SWAP5 SWAP1 SWAP4 PUSH1 0xFF NOT SWAP1 SWAP2 AND SWAP1 DUP4 PUSH1 0x2 DUP2 GT ISZERO PUSH2 0x14CB JUMPI PUSH2 0x14CB PUSH2 0x25ED JUMP JUMPDEST MUL OR SWAP1 SSTORE POP PUSH1 0x40 DUP3 DUP2 ADD MLOAD DUP1 MLOAD PUSH1 0x2 DUP5 ADD DUP1 SLOAD PUSH1 0xFF SWAP1 SWAP3 AND PUSH1 0xFF NOT SWAP3 DUP4 AND OR SWAP1 SSTORE PUSH1 0x20 DUP1 DUP4 ADD MLOAD PUSH1 0x3 DUP7 ADD SSTORE DUP3 DUP5 ADD MLOAD PUSH1 0x4 DUP7 ADD SSTORE PUSH1 0x60 SWAP3 DUP4 ADD MLOAD PUSH1 0x5 DUP7 ADD DUP1 SLOAD SWAP2 ISZERO ISZERO SWAP2 SWAP1 SWAP4 AND OR SWAP1 SWAP2 SSTORE SWAP1 DUP5 ADD MLOAD PUSH1 0x6 DUP5 ADD SSTORE PUSH1 0x80 DUP1 DUP6 ADD MLOAD PUSH1 0x7 DUP6 ADD SSTORE PUSH1 0xA0 DUP6 ADD MLOAD PUSH1 0x8 DUP6 ADD SSTORE PUSH1 0xC0 DUP1 DUP7 ADD MLOAD PUSH1 0x9 DUP7 ADD SSTORE PUSH1 0xE0 SWAP1 SWAP6 ADD MLOAD PUSH1 0xA SWAP1 SWAP5 ADD SWAP4 SWAP1 SWAP4 SSTORE SWAP3 DUP5 ADD MLOAD DUP5 MLOAD PUSH1 0x0 SWAP1 DUP2 MSTORE PUSH1 0xD DUP6 MSTORE DUP3 DUP2 KECCAK256 CALLER DUP1 DUP4 MSTORE SWAP1 DUP7 MSTORE DUP4 DUP3 KECCAK256 SWAP3 SWAP1 SWAP3 SSTORE DUP3 MLOAD SWAP4 DUP5 ADD DUP4 MSTORE SWAP1 DUP4 MSTORE CALLVALUE SWAP4 DUP4 ADD SWAP4 SWAP1 SWAP4 MSTORE SWAP1 SWAP2 SWAP1 DUP3 ADD SWAP1 DUP2 MSTORE PUSH1 0x1 PUSH1 0x20 SWAP2 DUP3 ADD DUP2 SWAP1 MSTORE DUP4 MLOAD PUSH1 0x0 SWAP1 DUP2 MSTORE PUSH1 0xE DUP4 MSTORE PUSH1 0x40 DUP1 DUP3 KECCAK256 PUSH1 0xC0 DUP8 ADD MLOAD DUP4 MSTORE DUP5 MSTORE SWAP1 DUP2 SWAP1 KECCAK256 DUP5 MLOAD DUP2 SLOAD PUSH1 0x1 PUSH1 0x1 PUSH1 0xA0 SHL SUB NOT AND PUSH1 0x1 PUSH1 0x1 PUSH1 0xA0 SHL SUB SWAP1 SWAP2 AND OR DUP2 SSTORE SWAP3 DUP5 ADD MLOAD DUP4 DUP4 ADD SSTORE DUP4 ADD MLOAD PUSH1 0x2 DUP4 ADD DUP1 SLOAD SWAP2 SWAP3 SWAP1 SWAP2 PUSH1 0xFF NOT AND SWAP1 DUP4 PUSH1 0x3 DUP2 GT ISZERO PUSH2 0x15F8 JUMPI PUSH2 0x15F8 PUSH2 0x25ED JUMP JUMPDEST MUL OR SWAP1 SSTORE POP PUSH1 0x60 SWAP2 SWAP1 SWAP2 ADD MLOAD PUSH1 0x2 SWAP1 SWAP2 ADD DUP1 SLOAD SWAP2 ISZERO ISZERO PUSH2 0x100 MUL PUSH2 0xFF00 NOT SWAP1 SWAP3 AND SWAP2 SWAP1 SWAP2 OR SWAP1 SSTORE PUSH1 0x9 DUP1 SLOAD SWAP1 PUSH1 0x0 PUSH2 0x162F DUP4 PUSH2 0x2A02 JUMP JUMPDEST SWAP1 SWAP2 SSTORE POP POP PUSH1 0xB DUP1 SLOAD SWAP1 PUSH1 0x0 PUSH2 0x1644 DUP4 PUSH2 0x2A02 JUMP JUMPDEST SWAP1 SWAP2 SSTORE POP POP DUP1 MLOAD PUSH1 0x40 MLOAD TIMESTAMP SWAP2 CALLER SWAP2 PUSH32 0x55C5881ECDDD2B670014114D0806730877835AC63B0299A9270F81B00BFF672 SWAP1 PUSH1 0x0 SWAP1 LOG4 POP POP POP POP POP POP JUMP JUMPDEST PUSH1 0x0 SLOAD PUSH1 0x1 PUSH1 0x1 PUSH1 0xA0 SHL SUB AND CALLER EQ PUSH2 0x16AA JUMPI PUSH1 0x40 MLOAD PUSH3 0x461BCD PUSH1 0xE5 SHL DUP2 MSTORE PUSH1 0x4 ADD PUSH2 0x468 SWAP1 PUSH2 0x2A1D JUMP JUMPDEST PUSH1 0x1 DUP1 SLOAD PUSH1 0xFF PUSH1 0xA0 SHL NOT AND SWAP1 SSTORE JUMP JUMPDEST PUSH1 0x0 SLOAD PUSH1 0x1 PUSH1 0x1 PUSH1 0xA0 SHL SUB AND CALLER EQ PUSH2 0x16E3 JUMPI PUSH1 0x40 MLOAD PUSH3 0x461BCD PUSH1 0xE5 SHL DUP2 MSTORE PUSH1 0x4 ADD PUSH2 0x468 SWAP1 PUSH2 0x2A1D JUMP JUMPDEST DUP2 PUSH1 0x2 PUSH1 0x8 DUP3 DUP2 SLOAD DUP2 LT PUSH2 0x16F9 JUMPI PUSH2 0x16F9 PUSH2 0x2963 JUMP JUMPDEST PUSH1 0x0 SWAP2 DUP3 MSTORE PUSH1 0x20 SWAP1 SWAP2 KECCAK256 PUSH1 0x1 PUSH1 0xB SWAP1 SWAP3 MUL ADD ADD SLOAD PUSH1 0xFF AND PUSH1 0x2 DUP2 GT ISZERO PUSH2 0x1721 JUMPI PUSH2 0x1721 PUSH2 0x25ED JUMP JUMPDEST EQ PUSH2 0x173E JUMPI PUSH1 0x40 MLOAD PUSH3 0x461BCD PUSH1 0xE5 SHL DUP2 MSTORE PUSH1 0x4 ADD PUSH2 0x468 SWAP1 PUSH2 0x2B37 JUMP JUMPDEST DUP3 PUSH1 0x8 DUP2 DUP2 SLOAD DUP2 LT PUSH2 0x1752 JUMPI PUSH2 0x1752 PUSH2 0x2963 JUMP JUMPDEST PUSH1 0x0 SWAP2 DUP3 MSTORE PUSH1 0x20 SWAP1 SWAP2 KECCAK256 PUSH1 0x5 PUSH1 0xB SWAP1 SWAP3 MUL ADD ADD SLOAD PUSH1 0xFF AND ISZERO PUSH2 0x17DC JUMPI PUSH1 0x40 MLOAD PUSH3 0x461BCD PUSH1 0xE5 SHL DUP2 MSTORE PUSH1 0x20 PUSH1 0x4 DUP3 ADD MSTORE PUSH1 0x39 PUSH1 0x24 DUP3 ADD MSTORE PUSH32 0x47616D652063726561746F722073657474696E67732067616D65206861732072 PUSH1 0x44 DUP3 ADD MSTORE PUSH32 0x616E646F6D2E6F7267206175646974732064697361626C656400000000000000 PUSH1 0x64 DUP3 ADD MSTORE PUSH1 0x84 ADD PUSH2 0x468 JUMP JUMPDEST DUP4 DUP4 CALLER PUSH2 0x17FB JUMPI PUSH1 0x40 MLOAD PUSH3 0x461BCD PUSH1 0xE5 SHL DUP2 MSTORE PUSH1 0x4 ADD PUSH2 0x468 SWAP1 PUSH2 0x2A75 JUMP JUMPDEST PUSH1 0x0 DUP3 DUP2 MSTORE PUSH1 0xD PUSH1 0x20 SWAP1 DUP2 MSTORE PUSH1 0x40 DUP1 DUP4 KECCAK256 PUSH1 0x1 PUSH1 0x1 PUSH1 0xA0 SHL SUB DUP6 AND DUP5 MSTORE SWAP1 SWAP2 MSTORE SWAP1 KECCAK256 SLOAD ISZERO DUP1 ISZERO SWAP1 PUSH2 0x1865 JUMPI POP PUSH1 0x0 DUP3 DUP2 MSTORE PUSH1 0xE PUSH1 0x20 SWAP1 DUP2 MSTORE PUSH1 0x40 DUP1 DUP4 KECCAK256 PUSH1 0xD DUP4 MSTORE DUP2 DUP5 KECCAK256 PUSH1 0x1 PUSH1 0x1 PUSH1 0xA0 SHL SUB DUP7 AND DUP6 MSTORE DUP4 MSTORE DUP2 DUP5 KECCAK256 SLOAD DUP5 MSTORE SWAP1 SWAP2 MSTORE SWAP1 KECCAK256 PUSH1 0x2 ADD SLOAD PUSH2 0x100 SWAP1 DIV PUSH1 0xFF AND JUMPDEST PUSH2 0x1881 JUMPI PUSH1 0x40 MLOAD PUSH3 0x461BCD PUSH1 0xE5 SHL DUP2 MSTORE PUSH1 0x4 ADD PUSH2 0x468 SWAP1 PUSH2 0x2B84 JUMP JUMPDEST PUSH1 0x0 PUSH1 0x8 DUP8 DUP2 SLOAD DUP2 LT PUSH2 0x1896 JUMPI PUSH2 0x1896 PUSH2 0x2963 JUMP JUMPDEST SWAP1 PUSH1 0x0 MSTORE PUSH1 0x20 PUSH1 0x0 KECCAK256 SWAP1 PUSH1 0xB MUL ADD SWAP1 POP PUSH1 0x0 PUSH1 0x1 SWAP1 POP JUMPDEST DUP2 PUSH1 0x9 ADD SLOAD DUP2 GT PUSH2 0x1A04 JUMPI PUSH1 0x0 DUP9 DUP2 MSTORE PUSH1 0xE PUSH1 0x20 SWAP1 DUP2 MSTORE PUSH1 0x40 DUP1 DUP4 KECCAK256 DUP5 DUP5 MSTORE SWAP1 SWAP2 MSTORE DUP2 KECCAK256 SWAP1 PUSH1 0x2 DUP3 ADD SLOAD PUSH1 0xFF AND PUSH1 0x3 DUP2 GT ISZERO PUSH2 0x18EB JUMPI PUSH2 0x18EB PUSH2 0x25ED JUMP JUMPDEST EQ DUP1 ISZERO PUSH2 0x1901 JUMPI POP PUSH1 0x2 DUP2 ADD SLOAD PUSH2 0x100 SWAP1 DIV PUSH1 0xFF AND JUMPDEST ISZERO PUSH2 0x19F1 JUMPI DUP1 SLOAD PUSH1 0x1 PUSH1 0x1 PUSH1 0xA0 SHL SUB DUP10 DUP2 AND SWAP2 AND EQ ISZERO PUSH2 0x19E1 JUMPI PUSH1 0x2 DUP2 DUP2 ADD DUP1 SLOAD PUSH1 0xFF NOT AND SWAP1 SWAP2 OR SWAP1 SSTORE PUSH1 0x4 SLOAD PUSH1 0x8 DUP5 ADD SLOAD PUSH1 0x0 SWAP2 PUSH1 0x64 SWAP2 PUSH2 0x1946 SWAP2 PUSH1 0xFF AND SWAP1 PUSH2 0x2B18 JUMP JUMPDEST PUSH2 0x1950 SWAP2 SWAP1 PUSH2 0x2BC5 JUMP JUMPDEST PUSH1 0x1 SLOAD PUSH1 0x40 MLOAD SWAP2 SWAP3 POP PUSH1 0x1 PUSH1 0x1 PUSH1 0xA0 SHL SUB AND SWAP1 DUP3 ISZERO PUSH2 0x8FC MUL SWAP1 DUP4 SWAP1 PUSH1 0x0 DUP2 DUP2 DUP2 DUP6 DUP9 DUP9 CALL SWAP4 POP POP POP POP ISZERO DUP1 ISZERO PUSH2 0x198B JUMPI RETURNDATASIZE PUSH1 0x0 DUP1 RETURNDATACOPY RETURNDATASIZE PUSH1 0x0 REVERT JUMPDEST POP DUP1 DUP5 PUSH1 0x8 ADD SLOAD PUSH2 0x199C SWAP2 SWAP1 PUSH2 0x29D4 JUMP JUMPDEST PUSH1 0x7 DUP6 ADD DUP2 SWAP1 SSTORE DUP3 SLOAD PUSH1 0x40 MLOAD PUSH1 0x1 PUSH1 0x1 PUSH1 0xA0 SHL SUB SWAP1 SWAP2 AND SWAP2 DUP1 ISZERO PUSH2 0x8FC MUL SWAP2 PUSH1 0x0 DUP2 DUP2 DUP2 DUP6 DUP9 DUP9 CALL SWAP4 POP POP POP POP ISZERO DUP1 ISZERO PUSH2 0x19DA JUMPI RETURNDATASIZE PUSH1 0x0 DUP1 RETURNDATACOPY RETURNDATASIZE PUSH1 0x0 REVERT JUMPDEST POP POP PUSH2 0x19F1 JUMP JUMPDEST PUSH1 0x2 DUP2 ADD DUP1 SLOAD PUSH1 0xFF NOT AND PUSH1 0x3 OR SWAP1 SSTORE JUMPDEST POP DUP1 PUSH2 0x19FC DUP2 PUSH2 0x2A02 JUMP JUMPDEST SWAP2 POP POP PUSH2 0x18AD JUMP JUMPDEST POP PUSH1 0x1 DUP2 ADD DUP1 SLOAD PUSH1 0xFF NOT AND SWAP1 SSTORE PUSH1 0xA DUP1 SLOAD SWAP1 PUSH1 0x0 PUSH2 0x1A21 DUP4 PUSH2 0x2A02 JUMP JUMPDEST SWAP1 SWAP2 SSTORE POP POP PUSH1 0xC DUP1 SLOAD SWAP1 PUSH1 0x0 PUSH2 0x1A36 DUP4 PUSH2 0x29EB JUMP JUMPDEST SWAP2 SWAP1 POP SSTORE POP TIMESTAMP DUP7 PUSH1 0x1 PUSH1 0x1 PUSH1 0xA0 SHL SUB AND DUP9 PUSH32 0x67FC67140014BFC59B02B27EFC3C6505AC26D8DDFAEE33449D5163B657EC4E73 DUP5 PUSH1 0x7 ADD SLOAD PUSH1 0x3 PUSH1 0x0 SWAP1 SLOAD SWAP1 PUSH2 0x100 EXP SWAP1 DIV PUSH1 0x1 PUSH1 0x1 PUSH1 0xA0 SHL SUB AND PUSH1 0x1 PUSH1 0x1 PUSH1 0xA0 SHL SUB AND PUSH4 0x9AC53DBB PUSH1 0x40 MLOAD DUP2 PUSH4 0xFFFFFFFF AND PUSH1 0xE0 SHL DUP2 MSTORE PUSH1 0x4 ADD PUSH1 0x20 PUSH1 0x40 MLOAD DUP1 DUP4 SUB DUP2 DUP7 DUP1 EXTCODESIZE ISZERO DUP1 ISZERO PUSH2 0x1ABB JUMPI PUSH1 0x0 DUP1 REVERT JUMPDEST POP GAS STATICCALL ISZERO DUP1 ISZERO PUSH2 0x1ACF JUMPI RETURNDATASIZE PUSH1 0x0 DUP1 RETURNDATACOPY RETURNDATASIZE PUSH1 0x0 REVERT JUMPDEST POP POP POP POP PUSH1 0x40 MLOAD RETURNDATASIZE PUSH1 0x1F NOT PUSH1 0x1F DUP3 ADD AND DUP3 ADD DUP1 PUSH1 0x40 MSTORE POP DUP2 ADD SWAP1 PUSH2 0x1AF3 SWAP2 SWAP1 PUSH2 0x2BE7 JUMP JUMPDEST PUSH1 0x40 DUP1 MLOAD SWAP3 DUP4 MSTORE PUSH1 0x20 DUP4 ADD SWAP2 SWAP1 SWAP2 MSTORE PUSH1 0x0 SWAP1 DUP3 ADD MSTORE PUSH1 0x60 ADD PUSH1 0x40 MLOAD DUP1 SWAP2 SUB SWAP1 LOG4 POP POP POP POP POP POP POP JUMP JUMPDEST PUSH1 0x60 DUP1 DUP1 DUP1 DUP1 DUP1 DUP1 DUP1 DUP1 PUSH1 0x0 DUP1 DUP12 PUSH1 0x2 DUP2 GT ISZERO PUSH2 0x1B3B JUMPI PUSH2 0x1B3B PUSH2 0x25ED JUMP JUMPDEST EQ ISZERO PUSH2 0x1B4A JUMPI POP PUSH1 0xA SLOAD PUSH2 0x1B8C JUMP JUMPDEST PUSH1 0x1 DUP12 PUSH1 0x2 DUP2 GT ISZERO PUSH2 0x1B5E JUMPI PUSH2 0x1B5E PUSH2 0x25ED JUMP JUMPDEST EQ ISZERO PUSH2 0x1B6D JUMPI POP PUSH1 0xB SLOAD PUSH2 0x1B8C JUMP JUMPDEST PUSH1 0x2 DUP12 PUSH1 0x2 DUP2 GT ISZERO PUSH2 0x1B81 JUMPI PUSH2 0x1B81 PUSH2 0x25ED JUMP JUMPDEST EQ ISZERO PUSH2 0x1B8C JUMPI POP PUSH1 0xC SLOAD JUMPDEST DUP1 PUSH8 0xFFFFFFFFFFFFFFFF DUP2 GT ISZERO PUSH2 0x1BA5 JUMPI PUSH2 0x1BA5 PUSH2 0x2A5F JUMP JUMPDEST PUSH1 0x40 MLOAD SWAP1 DUP1 DUP3 MSTORE DUP1 PUSH1 0x20 MUL PUSH1 0x20 ADD DUP3 ADD PUSH1 0x40 MSTORE DUP1 ISZERO PUSH2 0x1BCE JUMPI DUP2 PUSH1 0x20 ADD PUSH1 0x20 DUP3 MUL DUP1 CALLDATASIZE DUP4 CALLDATACOPY ADD SWAP1 POP JUMPDEST POP SWAP10 POP DUP1 PUSH8 0xFFFFFFFFFFFFFFFF DUP2 GT ISZERO PUSH2 0x1BEA JUMPI PUSH2 0x1BEA PUSH2 0x2A5F JUMP JUMPDEST PUSH1 0x40 MLOAD SWAP1 DUP1 DUP3 MSTORE DUP1 PUSH1 0x20 MUL PUSH1 0x20 ADD DUP3 ADD PUSH1 0x40 MSTORE DUP1 ISZERO PUSH2 0x1C13 JUMPI DUP2 PUSH1 0x20 ADD PUSH1 0x20 DUP3 MUL DUP1 CALLDATASIZE DUP4 CALLDATACOPY ADD SWAP1 POP JUMPDEST POP SWAP9 POP DUP1 PUSH8 0xFFFFFFFFFFFFFFFF DUP2 GT ISZERO PUSH2 0x1C2F JUMPI PUSH2 0x1C2F PUSH2 0x2A5F JUMP JUMPDEST PUSH1 0x40 MLOAD SWAP1 DUP1 DUP3 MSTORE DUP1 PUSH1 0x20 MUL PUSH1 0x20 ADD DUP3 ADD PUSH1 0x40 MSTORE DUP1 ISZERO PUSH2 0x1C58 JUMPI DUP2 PUSH1 0x20 ADD PUSH1 0x20 DUP3 MUL DUP1 CALLDATASIZE DUP4 CALLDATACOPY ADD SWAP1 POP JUMPDEST POP SWAP8 POP DUP1 PUSH8 0xFFFFFFFFFFFFFFFF DUP2 GT ISZERO PUSH2 0x1C74 JUMPI PUSH2 0x1C74 PUSH2 0x2A5F JUMP JUMPDEST PUSH1 0x40 MLOAD SWAP1 DUP1 DUP3 MSTORE DUP1 PUSH1 0x20 MUL PUSH1 0x20 ADD DUP3 ADD PUSH1 0x40 MSTORE DUP1 ISZERO PUSH2 0x1C9D JUMPI DUP2 PUSH1 0x20 ADD PUSH1 0x20 DUP3 MUL DUP1 CALLDATASIZE DUP4 CALLDATACOPY ADD SWAP1 POP JUMPDEST POP SWAP7 POP DUP1 PUSH8 0xFFFFFFFFFFFFFFFF DUP2 GT ISZERO PUSH2 0x1CB9 JUMPI PUSH2 0x1CB9 PUSH2 0x2A5F JUMP JUMPDEST PUSH1 0x40 MLOAD SWAP1 DUP1 DUP3 MSTORE DUP1 PUSH1 0x20 MUL PUSH1 0x20 ADD DUP3 ADD PUSH1 0x40 MSTORE DUP1 ISZERO PUSH2 0x1CE2 JUMPI DUP2 PUSH1 0x20 ADD PUSH1 0x20 DUP3 MUL DUP1 CALLDATASIZE DUP4 CALLDATACOPY ADD SWAP1 POP JUMPDEST POP SWAP6 POP DUP1 PUSH8 0xFFFFFFFFFFFFFFFF DUP2 GT ISZERO PUSH2 0x1CFE JUMPI PUSH2 0x1CFE PUSH2 0x2A5F JUMP JUMPDEST PUSH1 0x40 MLOAD SWAP1 DUP1 DUP3 MSTORE DUP1 PUSH1 0x20 MUL PUSH1 0x20 ADD DUP3 ADD PUSH1 0x40 MSTORE DUP1 ISZERO PUSH2 0x1D27 JUMPI DUP2 PUSH1 0x20 ADD PUSH1 0x20 DUP3 MUL DUP1 CALLDATASIZE DUP4 CALLDATACOPY ADD SWAP1 POP JUMPDEST POP SWAP5 POP DUP1 PUSH8 0xFFFFFFFFFFFFFFFF DUP2 GT ISZERO PUSH2 0x1D43 JUMPI PUSH2 0x1D43 PUSH2 0x2A5F JUMP JUMPDEST PUSH1 0x40 MLOAD SWAP1 DUP1 DUP3 MSTORE DUP1 PUSH1 0x20 MUL PUSH1 0x20 ADD DUP3 ADD PUSH1 0x40 MSTORE DUP1 ISZERO PUSH2 0x1D6C JUMPI DUP2 PUSH1 0x20 ADD PUSH1 0x20 DUP3 MUL DUP1 CALLDATASIZE DUP4 CALLDATACOPY ADD SWAP1 POP JUMPDEST POP SWAP4 POP DUP1 PUSH8 0xFFFFFFFFFFFFFFFF DUP2 GT ISZERO PUSH2 0x1D88 JUMPI PUSH2 0x1D88 PUSH2 0x2A5F JUMP JUMPDEST PUSH1 0x40 MLOAD SWAP1 DUP1 DUP3 MSTORE DUP1 PUSH1 0x20 MUL PUSH1 0x20 ADD DUP3 ADD PUSH1 0x40 MSTORE DUP1 ISZERO PUSH2 0x1DB1 JUMPI DUP2 PUSH1 0x20 ADD PUSH1 0x20 DUP3 MUL DUP1 CALLDATASIZE DUP4 CALLDATACOPY ADD SWAP1 POP JUMPDEST POP SWAP3 POP DUP1 PUSH8 0xFFFFFFFFFFFFFFFF DUP2 GT ISZERO PUSH2 0x1DCD JUMPI PUSH2 0x1DCD PUSH2 0x2A5F JUMP JUMPDEST PUSH1 0x40 MLOAD SWAP1 DUP1 DUP3 MSTORE DUP1 PUSH1 0x20 MUL PUSH1 0x20 ADD DUP3 ADD PUSH1 0x40 MSTORE DUP1 ISZERO PUSH2 0x1DF6 JUMPI DUP2 PUSH1 0x20 ADD PUSH1 0x20 DUP3 MUL DUP1 CALLDATASIZE DUP4 CALLDATACOPY ADD SWAP1 POP JUMPDEST POP SWAP2 POP PUSH1 0x0 DUP1 JUMPDEST PUSH1 0x8 SLOAD DUP2 LT ISZERO PUSH2 0x20DA JUMPI PUSH1 0x0 PUSH1 0x8 DUP3 DUP2 SLOAD DUP2 LT PUSH2 0x1E1C JUMPI PUSH2 0x1E1C PUSH2 0x2963 JUMP JUMPDEST SWAP1 PUSH1 0x0 MSTORE PUSH1 0x20 PUSH1 0x0 KECCAK256 SWAP1 PUSH1 0xB MUL ADD PUSH1 0x40 MLOAD DUP1 PUSH2 0x100 ADD PUSH1 0x40 MSTORE SWAP1 DUP2 PUSH1 0x0 DUP3 ADD SLOAD DUP2 MSTORE PUSH1 0x20 ADD PUSH1 0x1 DUP3 ADD PUSH1 0x0 SWAP1 SLOAD SWAP1 PUSH2 0x100 EXP SWAP1 DIV PUSH1 0xFF AND PUSH1 0x2 DUP2 GT ISZERO PUSH2 0x1E64 JUMPI PUSH2 0x1E64 PUSH2 0x25ED JUMP JUMPDEST PUSH1 0x2 DUP2 GT ISZERO PUSH2 0x1E75 JUMPI PUSH2 0x1E75 PUSH2 0x25ED JUMP JUMPDEST DUP2 MSTORE PUSH1 0x40 DUP1 MLOAD PUSH1 0x80 DUP1 DUP3 ADD DUP4 MSTORE PUSH1 0x2 DUP6 ADD SLOAD PUSH1 0xFF SWAP1 DUP2 AND DUP4 MSTORE PUSH1 0x3 DUP7 ADD SLOAD PUSH1 0x20 DUP5 DUP2 ADD SWAP2 SWAP1 SWAP2 MSTORE PUSH1 0x4 DUP8 ADD SLOAD DUP5 DUP7 ADD MSTORE PUSH1 0x5 DUP8 ADD SLOAD SWAP1 SWAP2 AND ISZERO ISZERO PUSH1 0x60 DUP1 DUP6 ADD SWAP2 SWAP1 SWAP2 MSTORE SWAP1 DUP6 ADD SWAP3 SWAP1 SWAP3 MSTORE PUSH1 0x6 DUP6 ADD SLOAD SWAP3 DUP5 ADD SWAP3 SWAP1 SWAP3 MSTORE PUSH1 0x7 DUP5 ADD SLOAD SWAP1 DUP4 ADD MSTORE PUSH1 0x8 DUP4 ADD SLOAD SWAP1 DUP3 ADD MSTORE PUSH1 0x9 DUP3 ADD SLOAD PUSH1 0xA0 DUP3 ADD MSTORE PUSH1 0xA SWAP1 SWAP2 ADD SLOAD PUSH1 0xC0 SWAP1 SWAP2 ADD MSTORE SWAP1 POP PUSH1 0x0 PUSH2 0x1F00 DUP4 PUSH2 0x857 JUMP JUMPDEST SWAP1 POP DUP15 PUSH1 0x2 DUP2 GT ISZERO PUSH2 0x1F14 JUMPI PUSH2 0x1F14 PUSH2 0x25ED JUMP JUMPDEST DUP3 PUSH1 0x20 ADD MLOAD PUSH1 0x2 DUP2 GT ISZERO PUSH2 0x1F2A JUMPI PUSH2 0x1F2A PUSH2 0x25ED JUMP JUMPDEST EQ ISZERO PUSH2 0x20C5 JUMPI DUP2 PUSH1 0x0 ADD MLOAD DUP15 DUP6 DUP2 MLOAD DUP2 LT PUSH2 0x1F47 JUMPI PUSH2 0x1F47 PUSH2 0x2963 JUMP JUMPDEST PUSH1 0x20 MUL PUSH1 0x20 ADD ADD DUP2 DUP2 MSTORE POP POP DUP2 PUSH1 0x20 ADD MLOAD DUP14 DUP6 DUP2 MLOAD DUP2 LT PUSH2 0x1F6A JUMPI PUSH2 0x1F6A PUSH2 0x2963 JUMP JUMPDEST PUSH1 0x20 MUL PUSH1 0x20 ADD ADD SWAP1 PUSH1 0x2 DUP2 GT ISZERO PUSH2 0x1F83 JUMPI PUSH2 0x1F83 PUSH2 0x25ED JUMP JUMPDEST SWAP1 DUP2 PUSH1 0x2 DUP2 GT ISZERO PUSH2 0x1F96 JUMPI PUSH2 0x1F96 PUSH2 0x25ED JUMP JUMPDEST DUP2 MSTORE POP POP DUP2 PUSH1 0xA0 ADD MLOAD DUP13 DUP6 DUP2 MLOAD DUP2 LT PUSH2 0x1FB1 JUMPI PUSH2 0x1FB1 PUSH2 0x2963 JUMP JUMPDEST PUSH1 0x20 MUL PUSH1 0x20 ADD ADD DUP2 DUP2 MSTORE POP POP DUP2 PUSH1 0xE0 ADD MLOAD DUP12 DUP6 DUP2 MLOAD DUP2 LT PUSH2 0x1FD4 JUMPI PUSH2 0x1FD4 PUSH2 0x2963 JUMP JUMPDEST PUSH1 0x20 MUL PUSH1 0x20 ADD ADD DUP2 DUP2 MSTORE POP POP DUP2 PUSH1 0x80 ADD MLOAD DUP11 DUP6 DUP2 MLOAD DUP2 LT PUSH2 0x1FF7 JUMPI PUSH2 0x1FF7 PUSH2 0x2963 JUMP JUMPDEST PUSH1 0x20 MUL PUSH1 0x20 ADD ADD DUP2 DUP2 MSTORE POP POP DUP1 DUP10 DUP6 DUP2 MLOAD DUP2 LT PUSH2 0x2016 JUMPI PUSH2 0x2016 PUSH2 0x2963 JUMP JUMPDEST PUSH1 0x20 MUL PUSH1 0x20 ADD ADD SWAP1 PUSH1 0x1 PUSH1 0x1 PUSH1 0xA0 SHL SUB AND SWAP1 DUP2 PUSH1 0x1 PUSH1 0x1 PUSH1 0xA0 SHL SUB AND DUP2 MSTORE POP POP DUP2 PUSH1 0x40 ADD MLOAD PUSH1 0x0 ADD MLOAD DUP9 DUP6 DUP2 MLOAD DUP2 LT PUSH2 0x2051 JUMPI PUSH2 0x2051 PUSH2 0x2963 JUMP JUMPDEST PUSH1 0x20 MUL PUSH1 0x20 ADD ADD SWAP1 PUSH1 0xFF AND SWAP1 DUP2 PUSH1 0xFF AND DUP2 MSTORE POP POP DUP2 PUSH1 0x40 ADD MLOAD PUSH1 0x20 ADD MLOAD DUP8 DUP6 DUP2 MLOAD DUP2 LT PUSH2 0x2080 JUMPI PUSH2 0x2080 PUSH2 0x2963 JUMP JUMPDEST PUSH1 0x20 MUL PUSH1 0x20 ADD ADD DUP2 DUP2 MSTORE POP POP DUP2 PUSH1 0x40 ADD MLOAD PUSH1 0x60 ADD MLOAD DUP7 DUP6 DUP2 MLOAD DUP2 LT PUSH2 0x20A7 JUMPI PUSH2 0x20A7 PUSH2 0x2963 JUMP JUMPDEST SWAP2 ISZERO ISZERO PUSH1 0x20 SWAP3 DUP4 MUL SWAP2 SWAP1 SWAP2 ADD SWAP1 SWAP2 ADD MSTORE DUP4 PUSH2 0x20C1 DUP2 PUSH2 0x2A02 JUMP JUMPDEST SWAP5 POP POP JUMPDEST POP POP DUP1 DUP1 PUSH2 0x20D2 SWAP1 PUSH2 0x2A02 JUMP JUMPDEST SWAP2 POP POP PUSH2 0x1DFD JUMP JUMPDEST POP POP POP SWAP2 SWAP4 SWAP6 SWAP8 SWAP10 SWAP1 SWAP3 SWAP5 SWAP7 SWAP9 POP JUMP JUMPDEST PUSH1 0x0 SLOAD PUSH1 0x1 PUSH1 0x1 PUSH1 0xA0 SHL SUB AND CALLER EQ PUSH2 0x2114 JUMPI PUSH1 0x40 MLOAD PUSH3 0x461BCD PUSH1 0xE5 SHL DUP2 MSTORE PUSH1 0x4 ADD PUSH2 0x468 SWAP1 PUSH2 0x2A1D JUMP JUMPDEST DUP3 PUSH1 0x2 PUSH1 0x8 DUP3 DUP2 SLOAD DUP2 LT PUSH2 0x212A JUMPI PUSH2 0x212A PUSH2 0x2963 JUMP JUMPDEST PUSH1 0x0 SWAP2 DUP3 MSTORE PUSH1 0x20 SWAP1 SWAP2 KECCAK256 PUSH1 0x1 PUSH1 0xB SWAP1 SWAP3 MUL ADD ADD SLOAD PUSH1 0xFF AND PUSH1 0x2 DUP2 GT ISZERO PUSH2 0x2152 JUMPI PUSH2 0x2152 PUSH2 0x25ED JUMP JUMPDEST EQ PUSH2 0x216F JUMPI PUSH1 0x40 MLOAD PUSH3 0x461BCD PUSH1 0xE5 SHL DUP2 MSTORE PUSH1 0x4 ADD PUSH2 0x468 SWAP1 PUSH2 0x2B37 JUMP JUMPDEST DUP4 PUSH1 0x8 DUP2 DUP2 SLOAD DUP2 LT PUSH2 0x2183 JUMPI PUSH2 0x2183 PUSH2 0x2963 JUMP JUMPDEST PUSH1 0x0 SWAP2 DUP3 MSTORE PUSH1 0x20 SWAP1 SWAP2 KECCAK256 PUSH1 0x5 PUSH1 0xB SWAP1 SWAP3 MUL ADD ADD SLOAD PUSH1 0xFF AND PUSH2 0x220C JUMPI PUSH1 0x40 MLOAD PUSH3 0x461BCD PUSH1 0xE5 SHL DUP2 MSTORE PUSH1 0x20 PUSH1 0x4 DUP3 ADD MSTORE PUSH1 0x38 PUSH1 0x24 DUP3 ADD MSTORE PUSH32 0x47616D652063726561746F722073657474696E67732067616D65206861732072 PUSH1 0x44 DUP3 ADD MSTORE PUSH32 0x616E646F6D2E6F72672061756469747320656E61626C65640000000000000000 PUSH1 0x64 DUP3 ADD MSTORE PUSH1 0x84 ADD PUSH2 0x468 JUMP JUMPDEST DUP5 DUP5 CALLER PUSH2 0x222B JUMPI PUSH1 0x40 MLOAD PUSH3 0x461BCD PUSH1 0xE5 SHL DUP2 MSTORE PUSH1 0x4 ADD PUSH2 0x468 SWAP1 PUSH2 0x2A75 JUMP JUMPDEST PUSH1 0x0 DUP3 DUP2 MSTORE PUSH1 0xD PUSH1 0x20 SWAP1 DUP2 MSTORE PUSH1 0x40 DUP1 DUP4 KECCAK256 PUSH1 0x1 PUSH1 0x1 PUSH1 0xA0 SHL SUB DUP6 AND DUP5 MSTORE SWAP1 SWAP2 MSTORE SWAP1 KECCAK256 SLOAD ISZERO DUP1 ISZERO SWAP1 PUSH2 0x2295 JUMPI POP PUSH1 0x0 DUP3 DUP2 MSTORE PUSH1 0xE PUSH1 0x20 SWAP1 DUP2 MSTORE PUSH1 0x40 DUP1 DUP4 KECCAK256 PUSH1 0xD DUP4 MSTORE DUP2 DUP5 KECCAK256 PUSH1 0x1 PUSH1 0x1 PUSH1 0xA0 SHL SUB DUP7 AND DUP6 MSTORE DUP4 MSTORE DUP2 DUP5 KECCAK256 SLOAD DUP5 MSTORE SWAP1 SWAP2 MSTORE SWAP1 KECCAK256 PUSH1 0x2 ADD SLOAD PUSH2 0x100 SWAP1 DIV PUSH1 0xFF AND JUMPDEST PUSH2 0x22B1 JUMPI PUSH1 0x40 MLOAD PUSH3 0x461BCD PUSH1 0xE5 SHL DUP2 MSTORE PUSH1 0x4 ADD PUSH2 0x468 SWAP1 PUSH2 0x2B84 JUMP JUMPDEST PUSH1 0x0 PUSH1 0x8 DUP9 DUP2 SLOAD DUP2 LT PUSH2 0x22C6 JUMPI PUSH2 0x22C6 PUSH2 0x2963 JUMP JUMPDEST SWAP1 PUSH1 0x0 MSTORE PUSH1 0x20 PUSH1 0x0 KECCAK256 SWAP1 PUSH1 0xB MUL ADD SWAP1 POP PUSH1 0x0 PUSH1 0x1 SWAP1 POP JUMPDEST DUP2 PUSH1 0x9 ADD SLOAD DUP2 GT PUSH2 0x2434 JUMPI PUSH1 0x0 DUP10 DUP2 MSTORE PUSH1 0xE PUSH1 0x20 SWAP1 DUP2 MSTORE PUSH1 0x40 DUP1 DUP4 KECCAK256 DUP5 DUP5 MSTORE SWAP1 SWAP2 MSTORE DUP2 KECCAK256 SWAP1 PUSH1 0x2 DUP3 ADD SLOAD PUSH1 0xFF AND PUSH1 0x3 DUP2 GT ISZERO PUSH2 0x231B JUMPI PUSH2 0x231B PUSH2 0x25ED JUMP JUMPDEST EQ DUP1 ISZERO PUSH2 0x2331 JUMPI POP PUSH1 0x2 DUP2 ADD SLOAD PUSH2 0x100 SWAP1 DIV PUSH1 0xFF AND JUMPDEST ISZERO PUSH2 0x2421 JUMPI DUP1 SLOAD PUSH1 0x1 PUSH1 0x1 PUSH1 0xA0 SHL SUB DUP11 DUP2 AND SWAP2 AND EQ ISZERO PUSH2 0x2411 JUMPI PUSH1 0x2 DUP2 DUP2 ADD DUP1 SLOAD PUSH1 0xFF NOT AND SWAP1 SWAP2 OR SWAP1 SSTORE PUSH1 0x4 SLOAD PUSH1 0x8 DUP5 ADD SLOAD PUSH1 0x0 SWAP2 PUSH1 0x64 SWAP2 PUSH2 0x2376 SWAP2 PUSH1 0xFF AND SWAP1 PUSH2 0x2B18 JUMP JUMPDEST PUSH2 0x2380 SWAP2 SWAP1 PUSH2 0x2BC5 JUMP JUMPDEST PUSH1 0x1 SLOAD PUSH1 0x40 MLOAD SWAP2 SWAP3 POP PUSH1 0x1 PUSH1 0x1 PUSH1 0xA0 SHL SUB AND SWAP1 DUP3 ISZERO PUSH2 0x8FC MUL SWAP1 DUP4 SWAP1 PUSH1 0x0 DUP2 DUP2 DUP2 DUP6 DUP9 DUP9 CALL SWAP4 POP POP POP POP ISZERO DUP1 ISZERO PUSH2 0x23BB JUMPI RETURNDATASIZE PUSH1 0x0 DUP1 RETURNDATACOPY RETURNDATASIZE PUSH1 0x0 REVERT JUMPDEST POP DUP1 DUP5 PUSH1 0x8 ADD SLOAD PUSH2 0x23CC SWAP2 SWAP1 PUSH2 0x29D4 JUMP JUMPDEST PUSH1 0x7 DUP6 ADD DUP2 SWAP1 SSTORE DUP3 SLOAD PUSH1 0x40 MLOAD PUSH1 0x1 PUSH1 0x1 PUSH1 0xA0 SHL SUB SWAP1 SWAP2 AND SWAP2 DUP1 ISZERO PUSH2 0x8FC MUL SWAP2 PUSH1 0x0 DUP2 DUP2 DUP2 DUP6 DUP9 DUP9 CALL SWAP4 POP POP POP POP ISZERO DUP1 ISZERO PUSH2 0x240A JUMPI RETURNDATASIZE PUSH1 0x0 DUP1 RETURNDATACOPY RETURNDATASIZE PUSH1 0x0 REVERT JUMPDEST POP POP PUSH2 0x2421 JUMP JUMPDEST PUSH1 0x2 DUP2 ADD DUP1 SLOAD PUSH1 0xFF NOT AND PUSH1 0x3 OR SWAP1 SSTORE JUMPDEST POP DUP1 PUSH2 0x242C DUP2 PUSH2 0x2A02 JUMP JUMPDEST SWAP2 POP POP PUSH2 0x22DD JUMP JUMPDEST POP PUSH1 0x6 DUP2 ADD DUP7 SWAP1 SSTORE PUSH1 0x1 DUP2 ADD DUP1 SLOAD PUSH1 0xFF NOT AND SWAP1 SSTORE PUSH1 0xA DUP1 SLOAD SWAP1 PUSH1 0x0 PUSH2 0x2458 DUP4 PUSH2 0x2A02 JUMP JUMPDEST SWAP1 SWAP2 SSTORE POP POP PUSH1 0xC DUP1 SLOAD SWAP1 PUSH1 0x0 PUSH2 0x246D DUP4 PUSH2 0x29EB JUMP JUMPDEST SWAP2 SWAP1 POP SSTORE POP TIMESTAMP DUP8 PUSH1 0x1 PUSH1 0x1 PUSH1 0xA0 SHL SUB AND DUP10 PUSH32 0x67FC67140014BFC59B02B27EFC3C6505AC26D8DDFAEE33449D5163B657EC4E73 DUP5 PUSH1 0x7 ADD SLOAD PUSH1 0x3 PUSH1 0x0 SWAP1 SLOAD SWAP1 PUSH2 0x100 EXP SWAP1 DIV PUSH1 0x1 PUSH1 0x1 PUSH1 0xA0 SHL SUB AND PUSH1 0x1 PUSH1 0x1 PUSH1 0xA0 SHL SUB AND PUSH4 0x9AC53DBB PUSH1 0x40 MLOAD DUP2 PUSH4 0xFFFFFFFF AND PUSH1 0xE0 SHL DUP2 MSTORE PUSH1 0x4 ADD PUSH1 0x20 PUSH1 0x40 MLOAD DUP1 DUP4 SUB DUP2 DUP7 DUP1 EXTCODESIZE ISZERO DUP1 ISZERO PUSH2 0x24F2 JUMPI PUSH1 0x0 DUP1 REVERT JUMPDEST POP GAS STATICCALL ISZERO DUP1 ISZERO PUSH2 0x2506 JUMPI RETURNDATASIZE PUSH1 0x0 DUP1 RETURNDATACOPY RETURNDATASIZE PUSH1 0x0 REVERT JUMPDEST POP POP POP POP PUSH1 0x40 MLOAD RETURNDATASIZE PUSH1 0x1F NOT PUSH1 0x1F DUP3 ADD AND DUP3 ADD DUP1 PUSH1 0x40 MSTORE POP DUP2 ADD SWAP1 PUSH2 0x252A SWAP2 SWAP1 PUSH2 0x2BE7 JUMP JUMPDEST PUSH1 0x6 DUP8 ADD SLOAD PUSH1 0x40 DUP1 MLOAD SWAP4 DUP5 MSTORE PUSH1 0x20 DUP5 ADD SWAP3 SWAP1 SWAP3 MSTORE SWAP1 DUP3 ADD MSTORE PUSH1 0x60 ADD PUSH1 0x40 MLOAD DUP1 SWAP2 SUB SWAP1 LOG4 POP POP POP POP POP POP POP POP JUMP JUMPDEST PUSH1 0x0 SLOAD PUSH1 0x1 PUSH1 0x1 PUSH1 0xA0 SHL SUB AND CALLER EQ PUSH2 0x2581 JUMPI PUSH1 0x40 MLOAD PUSH3 0x461BCD PUSH1 0xE5 SHL DUP2 MSTORE PUSH1 0x4 ADD PUSH2 0x468 SWAP1 PUSH2 0x2A1D JUMP JUMPDEST PUSH1 0x1 DUP1 SLOAD PUSH1 0xFF PUSH1 0xA0 SHL NOT AND PUSH1 0x1 PUSH1 0xA0 SHL OR SWAP1 SSTORE JUMP JUMPDEST PUSH1 0x0 DUP1 PUSH1 0x8 DUP4 DUP2 SLOAD DUP2 LT PUSH2 0x25AC JUMPI PUSH2 0x25AC PUSH2 0x2963 JUMP JUMPDEST PUSH1 0x0 SWAP2 DUP3 MSTORE PUSH1 0x20 SWAP1 SWAP2 KECCAK256 PUSH1 0xB SWAP1 SWAP2 MUL ADD PUSH1 0x2 DUP2 ADD SLOAD PUSH1 0xA SWAP1 SWAP2 ADD SLOAD PUSH1 0xFF SWAP1 SWAP2 AND EQ SWAP4 SWAP3 POP POP POP JUMP JUMPDEST PUSH1 0x0 PUSH1 0x20 DUP3 DUP5 SUB SLT ISZERO PUSH2 0x25E6 JUMPI PUSH1 0x0 DUP1 REVERT JUMPDEST POP CALLDATALOAD SWAP2 SWAP1 POP JUMP JUMPDEST PUSH4 0x4E487B71 PUSH1 0xE0 SHL PUSH1 0x0 MSTORE PUSH1 0x21 PUSH1 0x4 MSTORE PUSH1 0x24 PUSH1 0x0 REVERT JUMPDEST PUSH1 0x3 DUP2 LT PUSH2 0x2621 JUMPI PUSH4 0x4E487B71 PUSH1 0xE0 SHL PUSH1 0x0 MSTORE PUSH1 0x21 PUSH1 0x4 MSTORE PUSH1 0x24 PUSH1 0x0 REVERT JUMPDEST SWAP1 MSTORE JUMP JUMPDEST DUP10 DUP2 MSTORE PUSH2 0x120 DUP2 ADD PUSH2 0x263A PUSH1 0x20 DUP4 ADD DUP12 PUSH2 0x2603 JUMP JUMPDEST PUSH1 0x40 DUP3 ADD SWAP9 SWAP1 SWAP9 MSTORE PUSH1 0x60 DUP2 ADD SWAP7 SWAP1 SWAP7 MSTORE PUSH1 0x80 DUP7 ADD SWAP5 SWAP1 SWAP5 MSTORE PUSH1 0x1 PUSH1 0x1 PUSH1 0xA0 SHL SUB SWAP3 SWAP1 SWAP3 AND PUSH1 0xA0 DUP6 ADD MSTORE PUSH1 0xFF AND PUSH1 0xC0 DUP5 ADD MSTORE PUSH1 0xE0 DUP4 ADD MSTORE ISZERO ISZERO PUSH2 0x100 SWAP1 SWAP2 ADD MSTORE SWAP3 SWAP2 POP POP JUMP JUMPDEST DUP1 CALLDATALOAD PUSH1 0x1 PUSH1 0x1 PUSH1 0xA0 SHL SUB DUP2 AND DUP2 EQ PUSH2 0x2696 JUMPI PUSH1 0x0 DUP1 REVERT JUMPDEST SWAP2 SWAP1 POP JUMP JUMPDEST PUSH1 0x0 PUSH1 0x20 DUP3 DUP5 SUB SLT ISZERO PUSH2 0x26AD JUMPI PUSH1 0x0 DUP1 REVERT JUMPDEST PUSH2 0x26B6 DUP3 PUSH2 0x267F JUMP JUMPDEST SWAP4 SWAP3 POP POP POP JUMP JUMPDEST PUSH1 0x0 DUP2 MLOAD DUP1 DUP5 MSTORE PUSH1 0x20 DUP1 DUP6 ADD SWAP5 POP DUP1 DUP5 ADD PUSH1 0x0 JUMPDEST DUP4 DUP2 LT ISZERO PUSH2 0x26F6 JUMPI DUP2 MLOAD PUSH1 0x1 PUSH1 0x1 PUSH1 0xA0 SHL SUB AND DUP8 MSTORE SWAP6 DUP3 ADD SWAP6 SWAP1 DUP3 ADD SWAP1 PUSH1 0x1 ADD PUSH2 0x26D1 JUMP JUMPDEST POP SWAP5 SWAP6 SWAP5 POP POP POP POP POP JUMP JUMPDEST PUSH1 0x20 DUP2 MSTORE PUSH1 0x0 PUSH2 0x26B6 PUSH1 0x20 DUP4 ADD DUP5 PUSH2 0x26BD JUMP JUMPDEST PUSH1 0x0 DUP1 PUSH1 0x40 DUP4 DUP6 SUB SLT ISZERO PUSH2 0x2727 JUMPI PUSH1 0x0 DUP1 REVERT JUMPDEST DUP3 CALLDATALOAD PUSH1 0xFF DUP2 AND DUP2 EQ PUSH2 0x2738 JUMPI PUSH1 0x0 DUP1 REVERT JUMPDEST SWAP2 POP PUSH1 0x20 DUP4 ADD CALLDATALOAD DUP1 ISZERO ISZERO DUP2 EQ PUSH2 0x274D JUMPI PUSH1 0x0 DUP1 REVERT JUMPDEST DUP1 SWAP2 POP POP SWAP3 POP SWAP3 SWAP1 POP JUMP JUMPDEST PUSH1 0x0 DUP1 PUSH1 0x40 DUP4 DUP6 SUB SLT ISZERO PUSH2 0x276B JUMPI PUSH1 0x0 DUP1 REVERT JUMPDEST DUP3 CALLDATALOAD SWAP2 POP PUSH2 0x277B PUSH1 0x20 DUP5 ADD PUSH2 0x267F JUMP JUMPDEST SWAP1 POP SWAP3 POP SWAP3 SWAP1 POP JUMP JUMPDEST PUSH1 0x0 PUSH1 0x20 DUP3 DUP5 SUB SLT ISZERO PUSH2 0x2796 JUMPI PUSH1 0x0 DUP1 REVERT JUMPDEST DUP2 CALLDATALOAD PUSH1 0x3 DUP2 LT PUSH2 0x26B6 JUMPI PUSH1 0x0 DUP1 REVERT JUMPDEST PUSH1 0x0 DUP2 MLOAD DUP1 DUP5 MSTORE PUSH1 0x20 DUP1 DUP6 ADD SWAP5 POP DUP1 DUP5 ADD PUSH1 0x0 JUMPDEST DUP4 DUP2 LT ISZERO PUSH2 0x26F6 JUMPI DUP2 MLOAD DUP8 MSTORE SWAP6 DUP3 ADD SWAP6 SWAP1 DUP3 ADD SWAP1 PUSH1 0x1 ADD PUSH2 0x27B9 JUMP JUMPDEST PUSH1 0x0 DUP2 MLOAD DUP1 DUP5 MSTORE PUSH1 0x20 DUP1 DUP6 ADD SWAP5 POP DUP1 DUP5 ADD PUSH1 0x0 JUMPDEST DUP4 DUP2 LT ISZERO PUSH2 0x26F6 JUMPI DUP2 MLOAD PUSH1 0xFF AND DUP8 MSTORE SWAP6 DUP3 ADD SWAP6 SWAP1 DUP3 ADD SWAP1 PUSH1 0x1 ADD PUSH2 0x27E9 JUMP JUMPDEST PUSH1 0x0 DUP2 MLOAD DUP1 DUP5 MSTORE PUSH1 0x20 DUP1 DUP6 ADD SWAP5 POP DUP1 DUP5 ADD PUSH1 0x0 JUMPDEST DUP4 DUP2 LT ISZERO PUSH2 0x26F6 JUMPI DUP2 MLOAD ISZERO ISZERO DUP8 MSTORE SWAP6 DUP3 ADD SWAP6 SWAP1 DUP3 ADD SWAP1 PUSH1 0x1 ADD PUSH2 0x281C JUMP JUMPDEST PUSH1 0x0 PUSH2 0x120 DUP1 DUP4 MSTORE PUSH2 0x284E DUP2 DUP5 ADD DUP14 PUSH2 0x27A5 JUMP JUMPDEST SWAP1 POP PUSH1 0x20 DUP4 DUP3 SUB DUP2 DUP6 ADD MSTORE DUP2 DUP13 MLOAD DUP1 DUP5 MSTORE DUP3 DUP5 ADD SWAP2 POP DUP3 DUP15 ADD SWAP4 POP PUSH1 0x0 JUMPDEST DUP2 DUP2 LT ISZERO PUSH2 0x288F JUMPI PUSH2 0x287F DUP4 DUP7 MLOAD PUSH2 0x2603 JUMP JUMPDEST SWAP4 DUP4 ADD SWAP4 SWAP2 DUP4 ADD SWAP2 PUSH1 0x1 ADD PUSH2 0x286C JUMP JUMPDEST POP POP DUP5 DUP2 SUB PUSH1 0x40 DUP7 ADD MSTORE PUSH2 0x28A3 DUP2 DUP14 PUSH2 0x27A5 JUMP JUMPDEST SWAP3 POP POP POP DUP3 DUP2 SUB PUSH1 0x60 DUP5 ADD MSTORE PUSH2 0x28B9 DUP2 DUP11 PUSH2 0x27A5 JUMP JUMPDEST SWAP1 POP DUP3 DUP2 SUB PUSH1 0x80 DUP5 ADD MSTORE PUSH2 0x28CD DUP2 DUP10 PUSH2 0x27A5 JUMP JUMPDEST SWAP1 POP DUP3 DUP2 SUB PUSH1 0xA0 DUP5 ADD MSTORE PUSH2 0x28E1 DUP2 DUP9 PUSH2 0x26BD JUMP JUMPDEST SWAP1 POP DUP3 DUP2 SUB PUSH1 0xC0 DUP5 ADD MSTORE PUSH2 0x28F5 DUP2 DUP8 PUSH2 0x27D5 JUMP JUMPDEST SWAP1 POP DUP3 DUP2 SUB PUSH1 0xE0 DUP5 ADD MSTORE PUSH2 0x2909 DUP2 DUP7 PUSH2 0x27A5 JUMP JUMPDEST SWAP1 POP DUP3 DUP2 SUB PUSH2 0x100 DUP5 ADD MSTORE PUSH2 0x291E DUP2 DUP6 PUSH2 0x2808 JUMP JUMPDEST SWAP13 SWAP12 POP POP POP POP POP POP POP POP POP POP POP POP JUMP JUMPDEST PUSH1 0x0 DUP1 PUSH1 0x0 PUSH1 0x60 DUP5 DUP7 SUB SLT ISZERO PUSH2 0x2943 JUMPI PUSH1 0x0 DUP1 REVERT JUMPDEST DUP4 CALLDATALOAD SWAP3 POP PUSH2 0x2953 PUSH1 0x20 DUP6 ADD PUSH2 0x267F JUMP JUMPDEST SWAP2 POP PUSH1 0x40 DUP5 ADD CALLDATALOAD SWAP1 POP SWAP3 POP SWAP3 POP SWAP3 JUMP JUMPDEST PUSH4 0x4E487B71 PUSH1 0xE0 SHL PUSH1 0x0 MSTORE PUSH1 0x32 PUSH1 0x4 MSTORE PUSH1 0x24 PUSH1 0x0 REVERT JUMPDEST PUSH1 0x20 DUP1 DUP3 MSTORE PUSH1 0x25 SWAP1 DUP3 ADD MSTORE PUSH32 0x47616D652069732063757272656E746C7920696E207468652070617573656420 PUSH1 0x40 DUP3 ADD MSTORE PUSH5 0x7374617465 PUSH1 0xD8 SHL PUSH1 0x60 DUP3 ADD MSTORE PUSH1 0x80 ADD SWAP1 JUMP JUMPDEST PUSH4 0x4E487B71 PUSH1 0xE0 SHL PUSH1 0x0 MSTORE PUSH1 0x11 PUSH1 0x4 MSTORE PUSH1 0x24 PUSH1 0x0 REVERT JUMPDEST PUSH1 0x0 DUP3 DUP3 LT ISZERO PUSH2 0x29E6 JUMPI PUSH2 0x29E6 PUSH2 0x29BE JUMP JUMPDEST POP SUB SWAP1 JUMP JUMPDEST PUSH1 0x0 DUP2 PUSH2 0x29FA JUMPI PUSH2 0x29FA PUSH2 0x29BE JUMP JUMPDEST POP PUSH1 0x0 NOT ADD SWAP1 JUMP JUMPDEST PUSH1 0x0 PUSH1 0x0 NOT DUP3 EQ ISZERO PUSH2 0x2A16 JUMPI PUSH2 0x2A16 PUSH2 0x29BE JUMP JUMPDEST POP PUSH1 0x1 ADD SWAP1 JUMP JUMPDEST PUSH1 0x20 DUP1 DUP3 MSTORE PUSH1 0x22 SWAP1 DUP3 ADD MSTORE PUSH32 0x4F6E6C79206F776E65722063616E2063616C6C20746869732066756E6374696F PUSH1 0x40 DUP3 ADD MSTORE PUSH2 0x3717 PUSH1 0xF1 SHL PUSH1 0x60 DUP3 ADD MSTORE PUSH1 0x80 ADD SWAP1 JUMP JUMPDEST PUSH4 0x4E487B71 PUSH1 0xE0 SHL PUSH1 0x0 MSTORE PUSH1 0x41 PUSH1 0x4 MSTORE PUSH1 0x24 PUSH1 0x0 REVERT JUMPDEST PUSH1 0x20 DUP1 DUP3 MSTORE PUSH1 0x24 SWAP1 DUP3 ADD MSTORE PUSH32 0x43616C6C6572206973206E6F7420612076616C69642077616C6C657420616464 PUSH1 0x40 DUP3 ADD MSTORE PUSH4 0x72657373 PUSH1 0xE0 SHL PUSH1 0x60 DUP3 ADD MSTORE PUSH1 0x80 ADD SWAP1 JUMP JUMPDEST PUSH1 0x20 DUP1 DUP3 MSTORE PUSH1 0x27 SWAP1 DUP3 ADD MSTORE PUSH32 0x56616C7565206973206E6F742061626F766520746865206D696E696D756D2062 PUSH1 0x40 DUP3 ADD MSTORE PUSH7 0x65742073697A65 PUSH1 0xC8 SHL PUSH1 0x60 DUP3 ADD MSTORE PUSH1 0x80 ADD SWAP1 JUMP JUMPDEST PUSH1 0x0 DUP3 NOT DUP3 GT ISZERO PUSH2 0x2B13 JUMPI PUSH2 0x2B13 PUSH2 0x29BE JUMP JUMPDEST POP ADD SWAP1 JUMP JUMPDEST PUSH1 0x0 DUP2 PUSH1 0x0 NOT DIV DUP4 GT DUP3 ISZERO ISZERO AND ISZERO PUSH2 0x2B32 JUMPI PUSH2 0x2B32 PUSH2 0x29BE JUMP JUMPDEST POP MUL SWAP1 JUMP JUMPDEST PUSH1 0x20 DUP1 DUP3 MSTORE PUSH1 0x2D SWAP1 DUP3 ADD MSTORE PUSH32 0x47616D65206973206E6F7420696E20746865206177616974696E6720666F7220 PUSH1 0x40 DUP3 ADD MSTORE PUSH13 0x6C6F7474657279207374617465 PUSH1 0x98 SHL PUSH1 0x60 DUP3 ADD MSTORE PUSH1 0x80 ADD SWAP1 JUMP JUMPDEST PUSH1 0x20 DUP1 DUP3 MSTORE PUSH1 0x21 SWAP1 DUP3 ADD MSTORE PUSH32 0x506C61796572206973206E6F7420696E207468652063757272656E742067616D PUSH1 0x40 DUP3 ADD MSTORE PUSH1 0x65 PUSH1 0xF8 SHL PUSH1 0x60 DUP3 ADD MSTORE PUSH1 0x80 ADD SWAP1 JUMP JUMPDEST PUSH1 0x0 DUP3 PUSH2 0x2BE2 JUMPI PUSH4 0x4E487B71 PUSH1 0xE0 SHL PUSH1 0x0 MSTORE PUSH1 0x12 PUSH1 0x4 MSTORE PUSH1 0x24 PUSH1 0x0 REVERT JUMPDEST POP DIV SWAP1 JUMP JUMPDEST PUSH1 0x0 PUSH1 0x20 DUP3 DUP5 SUB SLT ISZERO PUSH2 0x2BF9 JUMPI PUSH1 0x0 DUP1 REVERT JUMPDEST POP MLOAD SWAP2 SWAP1 POP JUMP INVALID LOG2 PUSH5 0x6970667358 0x22 SLT KECCAK256 EXTCODESIZE DUP13 DUP4 0xAB EXP EXP XOR 0xB4 0x2B 0xE3 PUSH3 0xC98896 DUP6 0xE2 0xD1 PUSH29 0x5026EF3E64DE12301C84A473B83564736F6C6343000809003300000000 ",
  "sha1": "9098dcbd8f9489387c31c8568bfbdc9e852071dd",
  "source": "// SPDX-License-Identifier: UNLICENSED\npragma solidity >=0.4.22 <0.9.0;\n\nabstract contract Extension {\n    function blake2b256(bytes memory data)\n        public\n        view\n        virtual\n        returns (bytes32);\n\n    function blockID(uint256 num) public view virtual returns (bytes32);\n\n    function blockTotalScore(uint256 num) public view virtual returns (uint64);\n\n    function blockTime(uint256 num) public view virtual returns (uint256);\n\n    function blockSigner(uint256 num) public view virtual returns (address);\n\n    function totalSupply() public view virtual returns (uint256);\n\n    function txProvedWork() public view virtual returns (uint256);\n\n    function txID() public view virtual returns (bytes32);\n\n    function txBlockRef() public view virtual returns (bytes8);\n\n    function txExpiration() public view virtual returns (uint256);\n}\n\ncontract RollItVetMultiPlayerGame {\n    address owner;\n    address treasury;\n\n    bool public gamePaused;\n\n    address extension_native = 0x0000000000000000000000457874656E73696F6e;\n    Extension ext = Extension(extension_native);\n\n    enum GameStatus {\n        COMPLETE,\n        AWAITING_GAME_CRITERIA_MET,\n        CRITERIA_MET_AWAITING_LOTTERY\n    }\n    enum PlayerGameStatus {\n        PENDING_GAME_COMPLETION,\n        WITHDREW_FROM_GAME,\n        WIN,\n        LOSE\n    }\n\n    GameHouseRules public gameHouseRules;\n    Game[] games;\n    uint256 public gamesTotalCount;\n\n    uint256 public completeGamesOnlyTotalCount;\n    uint256 public awaitingGameCriteriaMetOnlyTotalCount;\n    uint256 public criteriaMetAwaitingLotteryOnlyTotalCount;\n\n    event GameCreatedEvent(\n        uint256 indexed gameId,\n        address indexed player,\n        uint256 indexed dateTime\n    );\n\n    event PlayerJoinedGameEvent(\n        uint256 indexed gameId,\n        address indexed player,\n        uint256 indexed dateTime\n    );\n\n    event PlayerLeftGameEvent(\n        uint256 indexed gameId,\n        address indexed player,\n        uint256 indexed dateTime\n    );\n\n    event GameAwaitingLotteryEvent(\n        uint256 indexed gameId,\n        GameStatus indexed status,\n        uint256 indexed dateTime\n    );\n\n    //can this be status changed\n    event GameCompletedEvent(\n        uint256 indexed gameId,\n        address indexed player,\n        uint256 indexed dateTime,\n        uint256 winningPayout,\n        bytes32 transactionId,\n        uint256 auditRecordDrawId\n    );\n\n    struct GameHouseRules {\n        uint8 houseCommissionPercent;\n        uint256 minBetSize;\n        uint8 minGamePlayers;\n        uint256 minimumAuditGameVetAmount;\n    }\n    struct GameCreatorSettings {\n        uint8 minGamePlayers;\n        uint256 gameBetSize;\n        uint256 createdDateTime;\n        bool isAuditEnabled;\n    }\n    struct Game {\n        uint256 id;\n        GameStatus status;\n        GameCreatorSettings settings;\n        uint256 auditRecordDrawId;\n        uint256 winningPayout;\n        uint256 totalGameWagers;\n        uint256 playerArrayCount;\n        uint256 eligiblePlayerCount;\n    }\n    //gameid => player address to array int\n    mapping(uint256 => mapping(address => uint256)) _players;\n    mapping(uint256 => mapping(uint256 => PlayerGameEntry)) players;\n\n    struct PlayerGameEntry {\n        address payable playerAddress;\n        uint256 betsize;\n        PlayerGameStatus playerGameStatus;\n        bool inCurrentGame;\n    }\n\n    modifier onlyOwner {\n        require(msg.sender == owner, \"Only owner can call this function.\");\n        _;\n    }\n    modifier onlyTreasury {\n        require(\n            msg.sender == treasury,\n            \"Only treasury can call this function.\"\n        );\n        _;\n    }\n    modifier gameIsActive {\n        require(gamePaused != true, \"Game is currently in the paused state\");\n        _;\n    }\n\n    modifier gameIsValid(\n        uint8 _minGamePlayers,\n        bool _isAuditEnabled,\n        uint256 _gameBetSize\n    ) {\n        require(\n            msg.sender != 0x0000000000000000000000000000000000000000,\n            \"Caller is not a valid wallet address\"\n        );\n        require(\n            msg.value >= gameHouseRules.minBetSize,\n            \"Value is not above the minimum bet size\"\n        );\n        require(\n            _minGamePlayers >= gameHouseRules.minGamePlayers,\n            \"Game players should be above the house rules setting\"\n        );\n        require(\n            (_isAuditEnabled &&\n                _minGamePlayers * _gameBetSize >\n                gameHouseRules.minimumAuditGameVetAmount) || (!_isAuditEnabled),\n            \"Audit game\"\n        );\n        _;\n    }\n    modifier canLeaveGame(uint256 _gameId) {\n        require(\n            players[_gameId][_players[_gameId][msg.sender]].inCurrentGame,\n            \"Player is not found participating in this game\"\n        );\n        require(\n            games[_gameId].status == GameStatus.AWAITING_GAME_CRITERIA_MET,\n            \"Game is no longer in the awaiting game criteria met phase\"\n        );\n        _;\n    }\n    modifier canJoinExistingGame(uint256 _gameId) {\n        require(\n            msg.sender != 0x0000000000000000000000000000000000000000,\n            \"Caller is not a valid wallet address\"\n        );\n        require(\n            msg.value == games[_gameId].settings.gameBetSize,\n            \"Bet size does not match the game creators bet size\"\n        );\n        require(\n            games[_gameId].status == GameStatus.AWAITING_GAME_CRITERIA_MET,\n            \"Game is not in the awaiting critieria met state\"\n        );\n        require(\n            msg.value >= gameHouseRules.minBetSize,\n            \"Value is not above the minimum bet size\"\n        );\n        require(\n            _players[_gameId][msg.sender] == 0 &&\n                !players[_gameId][_players[_gameId][msg.sender]].inCurrentGame,\n            \"Player is or was participating in the current game. Not eligible to join.\"\n        );\n        require(\n            games[_gameId].eligiblePlayerCount <\n                games[_gameId].settings.minGamePlayers,\n            \"Game is at maximum players\"\n        );\n        _;\n    }\n    modifier isGameInLotteryState(uint256 _gameId) {\n        require(\n            games[_gameId].status == GameStatus.CRITERIA_MET_AWAITING_LOTTERY,\n            \"Game is not in the awaiting for lottery state\"\n        );\n        _;\n    }\n    modifier isNoAuditGame(uint256 _gameId) {\n        require(\n            !games[_gameId].settings.isAuditEnabled,\n            \"Game creator settings game has random.org audits disabled\"\n        );\n        _;\n    }\n\n    modifier isAuditGame(uint256 _gameId) {\n        require(\n            games[_gameId].settings.isAuditEnabled,\n            \"Game creator settings game has random.org audits enabled\"\n        );\n        _;\n    }\n    modifier playerIsInGame(uint256 _gameId, address _playerAddress) {\n        require(\n            msg.sender != 0x0000000000000000000000000000000000000000,\n            \"Caller is not a valid wallet address\"\n        );\n        require(\n            _players[_gameId][_playerAddress] != 0 &&\n                players[_gameId][_players[_gameId][_playerAddress]]\n                    .inCurrentGame,\n            \"Player is not in the current game\"\n        );\n        _;\n    }\n\n    // Create a new contract\n    constructor() payable {\n        owner = msg.sender;\n        treasury = msg.sender;\n\n        gamesTotalCount = 0;\n\n        completeGamesOnlyTotalCount = 0;\n        awaitingGameCriteriaMetOnlyTotalCount = 0;\n        criteriaMetAwaitingLotteryOnlyTotalCount = 0;\n\n        gameHouseRules = GameHouseRules({\n            houseCommissionPercent: 3,\n            minBetSize: 1000000000000000000, // equivalent of 1 VET\n            minGamePlayers: 2,\n            minimumAuditGameVetAmount: 30000000000000000000 // equivalent of 30 VET\n        });\n    }\n\n    function createGame(uint8 _minGamePlayers, bool _isAuditEnabled)\n        public\n        payable\n        gameIsActive()\n        gameIsValid(_minGamePlayers, _isAuditEnabled, msg.value)\n    {\n        Game memory newGame =\n            Game({\n                id: gamesTotalCount,\n                status: GameStatus.AWAITING_GAME_CRITERIA_MET,\n                settings: GameCreatorSettings({\n                    gameBetSize: msg.value,\n                    createdDateTime: block.timestamp,\n                    minGamePlayers: _minGamePlayers,\n                    isAuditEnabled: _isAuditEnabled\n                }),\n                winningPayout: 0,\n                totalGameWagers: msg.value,\n                eligiblePlayerCount: 1,\n                playerArrayCount: 1,\n                auditRecordDrawId: 0\n            });\n\n        games.push(newGame);\n\n        // map player to position 1, using position 0 for default not present\n        _players[newGame.id][msg.sender] = newGame.playerArrayCount;\n        players[newGame.id][newGame.playerArrayCount] = PlayerGameEntry({\n            playerAddress: payable(msg.sender),\n            betsize: msg.value,\n            playerGameStatus: PlayerGameStatus.PENDING_GAME_COMPLETION,\n            inCurrentGame: true\n        });\n\n        gamesTotalCount++;\n        awaitingGameCriteriaMetOnlyTotalCount++;\n        emit GameCreatedEvent(newGame.id, msg.sender, block.timestamp);\n    }\n\n    function joinExistingGame(uint256 _gameId)\n        public\n        payable\n        gameIsActive()\n        canJoinExistingGame(_gameId)\n    {\n        Game storage existingGame = games[_gameId];\n\n        existingGame.playerArrayCount++;\n        existingGame.eligiblePlayerCount++;\n\n        //second player should be mapped to position 2\n        _players[_gameId][msg.sender] = existingGame.playerArrayCount;\n        players[_gameId][existingGame.playerArrayCount] = PlayerGameEntry({\n            playerAddress: payable(msg.sender),\n            betsize: msg.value,\n            playerGameStatus: PlayerGameStatus.PENDING_GAME_COMPLETION,\n            inCurrentGame: true\n        });\n\n        existingGame.totalGameWagers += msg.value;\n\n        emit PlayerJoinedGameEvent(_gameId, msg.sender, block.timestamp);\n\n        if (gameMeetsCriteriaToStart(_gameId)) {\n            existingGame.status = GameStatus.CRITERIA_MET_AWAITING_LOTTERY;\n\n            criteriaMetAwaitingLotteryOnlyTotalCount++;\n\n            awaitingGameCriteriaMetOnlyTotalCount--;\n\n            emit GameAwaitingLotteryEvent(\n                _gameId,\n                existingGame.status,\n                block.timestamp\n            );\n        }\n    }\n\n    function gameMeetsCriteriaToStart(uint256 _gameId)\n        internal\n        view\n        returns (bool)\n    {\n        Game storage existingGame = games[_gameId];\n        return\n            existingGame.eligiblePlayerCount ==\n            existingGame.settings.minGamePlayers;\n    }\n\n    function leaveGame(uint256 _gameId)\n        public\n        gameIsActive()\n        canLeaveGame(_gameId)\n    {\n        Game storage existingGame = games[_gameId];\n        existingGame.status = GameStatus.AWAITING_GAME_CRITERIA_MET;\n\n        PlayerGameEntry storage entry =\n            players[_gameId][_players[_gameId][msg.sender]];\n\n        existingGame.totalGameWagers =\n            existingGame.totalGameWagers -\n            entry.betsize;\n\n        existingGame.eligiblePlayerCount--;\n\n        entry.playerGameStatus = PlayerGameStatus.WITHDREW_FROM_GAME;\n        entry.playerAddress.transfer(entry.betsize);\n\n        emit PlayerLeftGameEvent(_gameId, msg.sender, block.timestamp);\n    }\n\n    function setMinimumAuditGameVet(uint256 _amount) public onlyOwner {}\n\n    function setTreasuryAddress(address _treasury) public onlyOwner {\n        treasury = _treasury;\n    }\n\n    function getPausedMode() public view returns (bool) {\n        return gamePaused;\n    }\n\n    function setPauseModeEnabled() public onlyOwner {\n        gamePaused = true;\n    }\n\n    function setPauseModeDisabled() public onlyOwner {\n        gamePaused = false;\n    }\n\n    function destroy() public onlyOwner {\n        selfdestruct(payable(msg.sender));\n    }\n\n    function setGameWinnerAudit(\n        uint256 gameId,\n        address playerWinner,\n        uint256 auditRecordDrawId\n    )\n        public\n        onlyOwner()\n        isGameInLotteryState(gameId)\n        isAuditGame(gameId)\n        playerIsInGame(gameId, playerWinner)\n    {\n        Game storage existingGame = games[gameId];\n\n        for (uint256 i = 1; i <= existingGame.playerArrayCount; i++) {\n            PlayerGameEntry storage entry = players[gameId][i];\n            if (\n                entry.playerGameStatus ==\n                PlayerGameStatus.PENDING_GAME_COMPLETION &&\n                entry.inCurrentGame\n            ) {\n                if (entry.playerAddress == playerWinner) {\n                    entry.playerGameStatus = PlayerGameStatus.WIN;\n\n                    uint256 houseCommissionWitholdings =\n                        (existingGame.totalGameWagers *\n                            gameHouseRules.houseCommissionPercent) / 100;\n\n                    payable(treasury).transfer(houseCommissionWitholdings);\n\n                    existingGame.winningPayout =\n                        existingGame.totalGameWagers -\n                        houseCommissionWitholdings;\n\n                    entry.playerAddress.transfer(existingGame.winningPayout);\n                } else {\n                    entry.playerGameStatus = PlayerGameStatus.LOSE;\n                }\n            }\n        }\n\n        existingGame.auditRecordDrawId = auditRecordDrawId;\n        existingGame.status = GameStatus.COMPLETE;\n\n        completeGamesOnlyTotalCount++;\n\n        criteriaMetAwaitingLotteryOnlyTotalCount--;\n\n        emit GameCompletedEvent(\n            gameId,\n            playerWinner,\n            block.timestamp,\n            existingGame.winningPayout,\n            ext.txID(),\n            existingGame.auditRecordDrawId\n        );\n    }\n\n    function setGameWinnerNoAudit(uint256 gameId, address playerWinner)\n        public\n        onlyOwner()\n        isGameInLotteryState(gameId)\n        isNoAuditGame(gameId)\n        playerIsInGame(gameId, playerWinner)\n    {\n        Game storage existingGame = games[gameId];\n\n        for (uint256 i = 1; i <= existingGame.playerArrayCount; i++) {\n            PlayerGameEntry storage entry = players[gameId][i];\n            if (\n                entry.playerGameStatus ==\n                PlayerGameStatus.PENDING_GAME_COMPLETION &&\n                entry.inCurrentGame\n            ) {\n                if (entry.playerAddress == playerWinner) {\n                    entry.playerGameStatus = PlayerGameStatus.WIN;\n\n                    uint256 houseCommissionWitholdings =\n                        (existingGame.totalGameWagers *\n                            gameHouseRules.houseCommissionPercent) / 100;\n\n                    payable(treasury).transfer(houseCommissionWitholdings);\n\n                    existingGame.winningPayout =\n                        existingGame.totalGameWagers -\n                        houseCommissionWitholdings;\n\n                    entry.playerAddress.transfer(existingGame.winningPayout);\n                } else {\n                    entry.playerGameStatus = PlayerGameStatus.LOSE;\n                }\n            }\n        }\n\n        existingGame.status = GameStatus.COMPLETE;\n\n        completeGamesOnlyTotalCount++;\n\n        criteriaMetAwaitingLotteryOnlyTotalCount--;\n\n        emit GameCompletedEvent(\n            gameId,\n            playerWinner,\n            block.timestamp,\n            existingGame.winningPayout,\n            ext.txID(),\n            0\n        );\n    }\n\n    function getEligiblePlayersForLotteryByActiveGameId(uint256 id)\n        public\n        view\n        returns (address[] memory playerWallets)\n    {\n        require(gamesTotalCount > 0, \"No games to return\");\n        Game memory thisGame = games[id];\n        //offset for not using first index\n        uint8 offset = 1;\n        uint256 insertIndex = 0;\n        playerWallets = new address[](thisGame.eligiblePlayerCount);\n\n        for (uint256 i = offset; i <= thisGame.playerArrayCount; i++) {\n            PlayerGameEntry memory entry = players[id][i];\n            if (\n                entry.playerGameStatus ==\n                PlayerGameStatus.PENDING_GAME_COMPLETION &&\n                entry.inCurrentGame\n            ) {\n                playerWallets[insertIndex] = entry.playerAddress;\n                insertIndex++;\n            }\n        }\n    }\n\n    function getGameById(uint256 id)\n        public\n        view\n        returns (\n            uint256 gameId,\n            GameStatus gameStatus,\n            uint256 gameTotalWagers,\n            uint256 gameTotalEligiblePlayers,\n            uint256 gameWinningPayout,\n            address gameWinnerAddress,\n            uint8 gcsMinGamePlayers,\n            uint256 gcsGameBetSize,\n            bool gcsIsAuditEnabled\n        )\n    {\n        require(gamesTotalCount > 0, \"No games to return\");\n        Game memory thisGame = games[id];\n\n        gameId = thisGame.id;\n        gameStatus = thisGame.status;\n        gameTotalWagers = thisGame.totalGameWagers;\n        gameTotalEligiblePlayers = thisGame.eligiblePlayerCount;\n        gameWinningPayout = thisGame.winningPayout;\n        gameWinnerAddress = getGameWinnerAddress(id);\n\n        // GameCreatorSettings\n        gcsMinGamePlayers = thisGame.settings.minGamePlayers;\n        gcsGameBetSize = thisGame.settings.gameBetSize;\n        gcsIsAuditEnabled = thisGame.settings.isAuditEnabled;\n    }\n\n    function getGameWinnerAddress(uint256 gameId)\n        public\n        view\n        returns (address gameWinningAddress)\n    {\n        Game memory thisGame = games[gameId];\n\n        if (thisGame.status == GameStatus.COMPLETE) {\n            for (uint256 pi = 1; pi <= thisGame.playerArrayCount; pi++) {\n                PlayerGameEntry memory entry = players[gameId][pi];\n                if (\n                    entry.playerGameStatus == PlayerGameStatus.WIN &&\n                    entry.inCurrentGame\n                ) {\n                    gameWinningAddress = entry.playerAddress;\n                    break;\n                }\n            }\n        }\n    }\n\n    function getGamesByStatus(GameStatus _status)\n        public\n        view\n        returns (\n            uint256[] memory gameIds,\n            GameStatus[] memory gameStatus,\n            uint256[] memory gameTotalWagers,\n            uint256[] memory gameTotalEligiblePlayers,\n            uint256[] memory gameWinningPayout,\n            address[] memory gameWinnerAddress,\n            uint8[] memory gcsMinGamePlayers,\n            uint256[] memory gcsGameBetSize,\n            bool[] memory gcsIsAuditEnabled\n        )\n    {\n        uint256 gamesWithRequestedStatusSize = 0;\n\n        if (_status == GameStatus.COMPLETE) {\n            gamesWithRequestedStatusSize = completeGamesOnlyTotalCount;\n        } else if (_status == GameStatus.AWAITING_GAME_CRITERIA_MET) {\n            gamesWithRequestedStatusSize = awaitingGameCriteriaMetOnlyTotalCount;\n        } else if (_status == GameStatus.CRITERIA_MET_AWAITING_LOTTERY) {\n            gamesWithRequestedStatusSize = criteriaMetAwaitingLotteryOnlyTotalCount;\n        }\n\n        gameIds = new uint256[](gamesWithRequestedStatusSize);\n        gameStatus = new GameStatus[](gamesWithRequestedStatusSize);\n        gameTotalWagers = new uint256[](gamesWithRequestedStatusSize);\n        gameTotalEligiblePlayers = new uint256[](gamesWithRequestedStatusSize);\n        gameWinningPayout = new uint256[](gamesWithRequestedStatusSize);\n        gameWinnerAddress = new address[](gamesWithRequestedStatusSize);\n\n        // GameCreatorSettings\n        gcsMinGamePlayers = new uint8[](gamesWithRequestedStatusSize);\n        gcsGameBetSize = new uint256[](gamesWithRequestedStatusSize);\n        gcsIsAuditEnabled = new bool[](gamesWithRequestedStatusSize);\n\n        uint256 returnIndexPosition = 0;\n        for (uint256 i = 0; i < games.length; i++) {\n            Game memory thisGame = games[i];\n\n            address gameWinningAddress = getGameWinnerAddress(i);\n\n            if (thisGame.status == _status) {\n                gameIds[returnIndexPosition] = thisGame.id;\n                gameStatus[returnIndexPosition] = thisGame.status;\n                gameTotalWagers[returnIndexPosition] = thisGame.totalGameWagers;\n                gameTotalEligiblePlayers[returnIndexPosition] = thisGame\n                    .eligiblePlayerCount;\n                gameWinningPayout[returnIndexPosition] = thisGame.winningPayout;\n                gameWinnerAddress[returnIndexPosition] = gameWinningAddress;\n\n                // GameCreatorSettings\n\n                gcsMinGamePlayers[returnIndexPosition] = thisGame\n                    .settings\n                    .minGamePlayers;\n                gcsGameBetSize[returnIndexPosition] = thisGame\n                    .settings\n                    .gameBetSize;\n                gcsIsAuditEnabled[returnIndexPosition] = thisGame\n                    .settings\n                    .isAuditEnabled;\n                returnIndexPosition++;\n            }\n        }\n    }\n}\n",
  "sourcePath": "contracts/RollItVetMultiPlayerGame.sol",
  "type": "contract"
}